S017000052445F415453414D344E5F56312E302E73726563DC
S214400000F8470020419440003D9440003D94400015
S2144000103D9440003D9440003D9440000000000068
S2144000200000000000000000000000003D9440007A
S2144000303D944000000000003D944000F1BE40006A
S2144000403D9440003D9440003D9440003D94400027
S214400050E1C640003D9440003D9440000000000052
S214400060C15D40003D944000E56140003D94400045
S2144000703D944000000000003D9440003D94400008
S2144000803D94400000000000000000003D94400009
S2144000903D9440003D9440003D9440009DB4400057
S2144000A03D9440003D9440000000000000000000E9
S2144000B000000000C93640003D9440003D9440009A
S2144000C010B5054C237833B9044B13B10448AFF34D
S2144000D000800123237010BDF809002000000000B6
S2144000E0743B41000C4B43B10C480D4910B5AFF37F
S2144000F000800C48036823B910BD0A48036833B92A
S2144001007047094B002BF7D0BDE810401847064B08
S214400110002BF5D0184700BF00000000743B41009C
S214400120FC090020743B41000000000000EBC002C8
S214400130064B03EB4203DB7913F0020F04D016287C
S214400140CCBF00200120704700207047AC13002031
S21440015000EBC002064B03EB4203DB7913F0040FBF
S21440016004D01628CCBF00200120704700207047DE
S214400170AC13002010B50446C0F3C7002A30064B27
S214400180984704F007040123A340184010F0FF0FDF
S21440019014BF0120002010BD6DA24000162815DCBB
S2144001A010B504460A4B984730B904EBC403094AD5
S2144001B002EB430381229A71064BE000021903EBDF
S2144001C04202D37943F01003D37110BD704700BF8D
S2144001D051014000AC130020162815DC10B504462B
S2144001E00A4B984730B104EBC403094A02EB430379
S2144001F080229A71064BE000021903EB4202D37943
S21440020023F01003D37110BD704700BF510140006A
S214400210AC130020162808DC044BC200111803EB70
S2144002204101CB7943F00303CB717047AC130020F8
S214400230162808DC044BC200111803EB4101CB79A9
S21440024023F00203CB717047AC13002000B516288C
S21440025000F29D80DFE800F00C161C272D33393F56
S214400260454B51575D63696F757A80868C919700D0
S21440027011F0080F1DBF00211170032202221A70D0
S2144002805DF804FB0021117004221A705DF804FB2F
S21440029011F0080F4FF00001117012BF19700122C3
S2144002A01A705DF804FB0221117006221A705DF880
S2144002B004FB0221117007221A705DF804FB02212C
S2144002C0117003221A705DF804FB0221117004229B
S2144002D01A705DF804FB0221117001221A705DF855
S2144002E004FB0021117005221A705DF804FB012101
S2144002F0117005221A705DF804FB01211170062268
S2144003001A705DF804FB0121117007221A705DF81F
S21440031004FB0021117007221A705DF804FB0321CC
S214400320117000221A705DF804FB0321117001223F
S2144003301A705DF804FB0321117002221A705DF8F2
S21440034004FB0321117019705DF804FB0321117042
S21440035004221A705DF804FB0321117005221A70FE
S2144003605DF804FB0221117005221A705DF804FB4B
S2144003700221117019705DF804FB022111700022F1
S2144003801A705DF804FB0321117006221A705DF89E
S21440039004FB0000162800DD7047F0B583B0044625
S2144003A01D4B984704EBC4031C4901EB43010A2349
S2144003B0CB7401250D7500234B758B750DF1070326
S2144003C00DF10602C979E0B2154EB0479DF80660B9
S2144003D02A363046134FB8479DF807108D400543E0
S2144003E0E9B23046104DA8473A20B847411CC9B23A
S2144003F03A20A847032102200C4B9847A4F1090352
S214400400012B03D9112C04D003B0F0BD084B9847FC
S214400410F8E7084B9847F7E715024000AC13002072
S2144004204D0240006DA24000FDA1400025B74000AF
S214400430DDA2400011A4400070B582B000238DF8C4
S214400440073003238DF80630162801DD02B070BD54
S214400450054600EBC003324C04EB43040DF10703A2
S2144004600DF10602E179C0B22E4EB047002323724A
S214400470E371A3716372A372E37223736373A3730E
S214400480E37323746374E3759DF806402A3420466C
S214400490254EB0479DF807300121994020EA0101DA
S2144004A0C9B22046214CA0473A20B047411CC9B2A9
S2144004B03A20A047A5F10903012B08D9A5F1110060
S2144004C0012804D906210120194B9847BEE72E2063
S2144004D0184DA84704463020A84705463A20124BF8
S2144004E09847064624F0E00189B215F0800F19BF00
S2144004F041F0A00125F0400541F0200125F0C0055F
S214400500ADB22E200C4CA04729463020A047711C87
S214400510C9B23A20054B98470022084B1A70D1E7DB
S214400520AC1300204D0240006DA24000FDA14000EB
S21440053025B7400079A2400015A2400043000020A5
S214400540F0B585B00C4615461F46082301AA012182
S214400550564EB047012802D0002005B0F0BD04EB4F
S214400560C403534A02EB430300229A751A7D0132B4
S2144005701A759DF8042042F00101D97112F0020F5D
S21440058024D19DF80510B9409DF82C30194004EB55
S214400590C403474A02EB4303DB7913F0080F1DD030
S2144005A004EBC40302EB4303DB7D13F0010F15D0CD
S2144005B011F0400F0ED03F4BB3F90030082B10DC43
S2144005C001333C4A138001F0BF010AE020463A4B13
S2144005D09847D6E70022374B1A8002E00022354B78
S2144005E01A80334B1D4485F8F71104EBC40203EB25
S2144005F042039DF807109DF8062042EA0122A3F820
S21440060009209DF809109DF8082042EA0122A3F827
S2144006100B209DF80B2002F00F029A74022C17D084
S2144006209DF80A30FF2B3BD0032B39D0204904EBF2
S214400630C40201EB420253744A889A424FEAC4000D
S21440064000F1050014BF1D4B1D4B9847012084E761
S214400650062A0DD0052A11D0042A15D0032A19D00F
S214400660022ADDD1124BB3F9CD21A3F82D20D7E7CE
S2144006700F4BB3F9D321A3F82D20D1E70C4BB3F998
S214400680D321A3F82D20CBE7094BB3F9D121A3F80A
S2144006902D20C5E7064BB3F9CF21A3F82D20BFE7A1
S2144006A0E0000530064B9847012056E70D3E4000D7
S2144006B0AC130020680E002015024000553540005F
S2144006C0AD354000F0B585B00D4616461F460823AA
S2144006D00DF1050201212E4CA047C4B2012C03D0D7
S2144006E00024204605B0F0BD05EBC503294A02EBC1
S2144006F0430300229A751A7D01321A759DF805202B
S21440070042F00101D97112F0100F14BF01210021EF
S214400710204B83F8A81112F0020F2BD11D4A164425
S2144007209DF80630BB409DF82C100B4096F8F7011C
S2144007309DF8281001400B4386F8F731EB00591915
S21440074002EB41019DF80B0088749DF80C101D4487
S21440075002EB4505697492F8A5318B4212D092F8A7
S214400760A631012B0AD90B4B002283F8A62183F829
S214400770A511B6E72846084B9847CFE7013382F8DD
S214400780A631AEE70022034B83F8A621A9E700BFB7
S2144007900D3E4000AC1300201502400008B51A4B31
S2144007A093F8A72102F0FB03532B01D0002008BD8D
S2144007B007211920154B9847012813D0124A92F862
S2144007C0A9310133DBB282F8A931032B19D913467C
S2144007D092F8A42122F0010283F8A421002083F895
S2144007E0A90108BD084B93F8A72183F8EA2093F89F
S2144007F0A42122F0010283F8A421002283F8A92133
S21440080008BD002008BD00BFAC130020DD3C400002
S21440081008B51C4B93F8A521082119201A4B984778
S214400820012813D0174A92F8A9310133DBB282F877
S214400830A931032B23D9134692F8A42122F00202B1
S21440084083F8A421002083F8A90108BD0D4B93F836
S214400850A52183F8E9200C200C4B984758B1094B4A
S21440086093F8A42122F0020283F8A421002283F800
S214400870A921012008BD0C20054B9847EFE7002032
S21440088008BD00BFAC130020DD3C400051014000D5
S2144008909D0140002DE9F04385B007460D460123F3
S2144008A001AA19462A4CA047012805D00020294B0A
S2144008B0186005B0BDE8F083DFF8AC80EE00741930
S2144008C008EB44044FF0000984F81690237D01336A
S2144008D023752846204B9847E37923F00C039DF870
S2144008E0042002F004021343E371B8F9BB41C4F399
S2144008F0072249463846194B9847012805D000201C
S214400900144B1860164B1870D3E7E2B201213846F4
S214400910124B9847012805D000200E4B1860104B0C
S2144009201870C6E700240F4D0C4E15F8012BE1B2A7
S2144009303846B047012804D10134082CF5D10120AF
S214400940B7E70020034B1860054B1870B1E700BFAF
S2144009500D3E4000E40A002015024000DD3C400009
S214400960EE0A00203C170020AC1300202DE9F04191
S21440097084B00C4616461F460B2301AA0121A64DFD
S214400980A847012803D0002004B0BDE8F08104EB5E
S214400990C405A24B03EB45050023AB752B7D013305
S2144009A02B7520469E4B9847EB7923F00C039DF819
S2144009B0042002F004021343EB719DF807209DF8D3
S2144009C0063043EA02231BB2A5F809309DF8091009
S2144009D09DF8082042EA012212B2A5F80B209DF8A5
S2144009E00B009DF80A1041EA002109B2A5F80D1047
S2144009F09DF80D009DF80CC04CEA002C0FFA8CFCBC
S214400A00A5F80FC09DF80EE085F811E0032C0CD039
S214400A10042C66D0082C1FD19DF80530C3F3400344
S214400A20F3B97E49A1F8CF211AE07E4A10687E4A83
S214400A3090420CD900207B4A10607C4A12782F2ABC
S214400A4032D87B4820F812300132784B1A7089B27F
S214400A5041EA0C41774B19609DF8053003F00103DD
S214400A606E490E4496F8F7019DF82820024003FA96
S214400A7007F7174386F8F77104EBC40301EB43010D
S214400A804FEA5E03A1F80D301EF0010F00F08B8098
S214400A90042C5BD0032C62D0062C69D0052C70D079
S214400AA0072C77D001206FE70022604B1A70604A0F
S214400AB0B2F90000134602F15E08054633F9022FEC
S214400AC09042B8BF10469542A8BF15469845F5D106
S214400AD0401BB0F5FA7FD4BF01220022564B1A7055
S214400AE0B5E7564A1068504A90420CD90020534AFF
S214400AF01060534A12782F2A0BD8524820F81230EA
S214400B0001324F4B1A7089B241EA0C414E4B196084
S214400B10A2E700224A4B1A704A4AB2F9000013462E
S214400B2002F15E08054633F9022F9042B8BF1046E0
S214400B309542A8BF15464345F5D1401BB0F5FA7F10
S214400B40D4BF01220022414B1A70DCE7334A92F8A8
S214400B50AE3163F07F0382F8AE31012014E72F4AAE
S214400B6092F8AE3143F0400382F8AE3101200BE7F5
S214400B702A4A92F8AE3143F0200382F8AE31012083
S214400B8002E7264A92F8AE3143F0100382F8AE31BF
S214400B900120F9E6214A92F8AE3143F0080382F884
S214400BA0AE310120F0E6042C09D0032C10D0062CE0
S214400BB017D0052C1ED0072C25D00120E4E6174A76
S214400BC092F8AE3103F07F0382F8AE310120DBE6C7
S214400BD0124A92F8AE3123F0400382F8AE3101203B
S214400BE0D2E60E4A92F8AE3123F0200382F8AE31B8
S214400BF00120C9E6094A92F8AE3123F0100382F884
S214400C00AE310120C0E6054A92F8AE3123F0080323
S214400C1082F8AE310120B7E60D3E4000AC1300200E
S214400C2015024000180E00203F771B00E80A0020FF
S214400C301C0A0020180A0020E00A0020200E00208F
S214400C40E90A0020800A00207C0A0020E10A0020F1
S214400C502DE9F04385B00C469046032301AA0221B5
S214400C60194DA84701280AD0002004EBC404174BAE
S214400C7003EB44040023637405B0BDE8F083134ED1
S214400C80E5002F1906EB47074FF0000987F8169046
S214400C903B7D01333B7520460D4B98479DF806201B
S214400CA09DF8053043EA0223A7F809300123FB727A
S214400CB087F80C90464496F8F7219DF8303013405C
S214400CC086F8F7310120D0E70D3E4000AC130020F7
S214400CD01502400008B505201D4B984718B9062058
S214400CE01B4B984780B31B4AB2F96330B2F9752064
S214400CF09342B8BF1346174AA2F8BD310320144B9F
S214400D00984718B90420124B9847F8B1114AB2F9DF
S214400D103F30B2F951209342B8BF13460D4AA2F86D
S214400D20BB3107200A4B984720B10A4BB3F98720BE
S214400D30A3F8BF210820064B984720B1054BB3F9CE
S214400D409B20A3F8C12108BD0023D4E70023E5E794
S214400D502D014000AC130020F8B506460C46002195
S214400D604F4B984740B9012C08D0022C4FD028460C
S214400D704C4B984700B2F8BD0026F4E74A4B1C6837
S214400D80002C2CDD494B1D68494C4A4B19682846B7
S214400D90A0472946A0472946A0470746464B19681C
S214400DA02846A0472946A047444E01463846B04705
S214400DB00746434B19682846A04701463846B04781
S214400DC0404B1968B04705463F49354B9847B0B940
S214400DD03E4928463E4B984790B13C4D10E0334D37
S214400DE031462868354B9847286001342E4B1C60A6
S214400DF0384BB3F90000384B98470546B7E700250F
S214400E0000222A4B1A600022274B1A60AFE7334B6A
S214400E101C68002C2CDD324B1D68254C254B196870
S214400E202846A0472946A0472946A0470746224BC2
S214400E3019682846A0472946A047204E014638460E
S214400E40B04707461E4B19682846A0470146384615
S214400E50B0471C4B1968B04705461B49104B98478E
S214400E60B0B91A4928461A4B984790B1174D10E02A
S214400E701B4D31462868114B984728600134174B64
S214400E801C60184BB3F90000134B984705466EE7B5
S214400E9000250022124B1A600022104B1A6066E7AB
S214400EA045DB400081DB4000740E0020900E0020A1
S214400EB0F5D74000983841009C384100E5D54000C1
S214400EC0A0384100A43841000000A041000063441F
S214400ED059DB4000860E00204DD74000780E00209B
S214400EE0940E0020880E00202DE9F04184B006467E
S214400EF00D4617460B2301AA01213F4CA047012867
S214400F0003D0002004B0BDE8F081DFF8F48005EBA4
S214400F10C50408EB44040023A375237D01332375E1
S214400F202846364B9847E37923F00C039DF8042077
S214400F3002F004021343E3719DF807209DF8063043
S214400F4043EA0223A4F809309DF809209DF80830AA
S214400F5043EA0223A4F80B309DF80B209DF80A3094
S214400F6043EA0223A4F80D309DF80D209DF80C307E
S214400F7043EA02231BB2A4F80F309DF80E20627499
S214400F80474497F8F7119DF828200A4087F8F7213C
S214400F903E2E10D03C2E28D03D2E2AD105EBC5053E
S214400FA0174B03EB4505EB7B2A7C43EA0223154AA5
S214400FB013800120A6E7B8F97701134B9847012123
S214400FC0124B9847124B1880B8F971316433A8F821
S214400FD07131B8F973316433A8F87331B8F97531A3
S214400FE06433A8F8753101208CE70A4A1380012043
S214400FF088E7012086E700BF0D3E4000150240000E
S214401000AC130020EA0A00204DD74000590D40009E
S214401010860E0020EC0A0020B64BB3F8F23113F0EF
S214401020200F03D1B44B1B68002B3DDD4FF400620C
S214401030B24B1A63B24A1378591C117013F0010F61
S21440104040F040842DE9F04F83B0AE4B1C78631CD3
S214401050DBB2162B2DD8AB4A1370AB4B1B78012B4B
S2144010602BD0AA4B1B78012B34D0A948A94B9847C4
S214401070162C00F20482DFE814F03C00AA00990027
S214401080B800C700D500E400F30002011F011001BC
S2144010902E015D016C017B018A019901A801B7010F
S2144010A0C601D501E401F3014FF40062934B5A6345
S2144010B0C0E70022934B1A70CFE79620964B98478E
S2144010C0964B1B788342CCD000228F4B1A70934BA2
S2144010D01870C6E79720904B9847914B1B788342F1
S2144010E0C3D00023894A13708E4A13708C4B1870F5
S2144010F0BBE702208C4EB04705460320B047054468
S214401100EDB2A346A146264607274FF05F0A4FF0AA
S2144011100A08002D40F0B68104EBC403754A02EB82
S2144011204303DB7913F0010F00F0AC8104EBC403FA
S21440113002EB430382229A7104EBC4036D4901EB30
S214401140430302F03F01D97500214046774B98474C
S214401150012800F0F58104EBC403664A02EB430322
S2144011609B7913F0020F00F0B08104EBC402614B90
S21440117003EB4202137A0133DBB213728221917180
S214401180604A1278002A00F02B82013A5D490A70C4
S214401190032B40F29A812046654B984704EBC404E3
S2144011A0544B03EB440300229A716CE301205E4EDD
S2144011B0B04705460020B0470544EDB22646A04657
S2144011C017274FF0000B4FF05F0AD946A1E70420DF
S2144011D0554B9847054626460F274FF0000B4FF0D5
S2144011E01F0AD9464FF0140893E716204E4B9847EF
S2144011F0054626461B274FF0F30B4FF0040A4FF0E8
S21440120002094FF01E0884E71720474B98470546CB
S2144012101E274FF01F0B4FF0100A4FF0050903260C
S214401220D84676E71320404B9847054623274FF08D
S214401230E30B4FF0040A4FF0020956464FF02208DF
S21440124067E71420384B9847054626274FF01F0B74
S2144012504FF0100A4FF0050904264FF0230858E7D0
S2144012601120314B984705462B274FF0F30B4FF094
S214401270040A4FF0020905264FF0260849E70520E4
S214401280294B984705463F27BB464FF0400A4FF04C
S214401290060907264FF032083BE70E20224B9847B8
S2144012A0054634274FF0C70B4FF0080A4FF00309A6
S2144012B006264FF029082CE70D201B4B984705467D
S2144012C031274FF0F80B4FF0010A4FF00009062681
S2144012D04FF028081DE70F20134B98470546372741
S2144012E04FF03F0B4FF0400A4FF006094E464FF086
S2144012F02A080EE7AC130020800E0020000E0E4099
S214401300EF0A0020F00A00204200002041000020A2
S21440131050140E40893A40006DA240008B0E0020CB
S214401320470000204000002075014000DD3C4000A2
S214401330390440000720C04B984705462F274FF0FA
S2144013403F0B4FF0400A4FF0060905264FF01908AC
S214401350DFE61820B84B984705465C274FF0CF0B82
S2144013604FF0200A4FF005090B264FF03308D0E621
S2144013701920B14B984705465E274FF03F0B4FF07C
S214401380800A4FF007090B264FF03408C1E61A20B2
S214401390A94B9847054660274FF0FC0B4FF0020AD2
S2144013A04FF001090C264FF03508B2E61B20A24B41
S2144013B09847054662274FF0F30B4FF0040A4FF06C
S2144013C003090C264FF03608A3E61C209A4B984794
S2144013D0054664274FF0CF0B4FF0200A4FF0050923
S2144013E00C264FF03C0894E61D20934B9847054644
S2144013F066274FF03F0B4FF0800A4FF007090C2648
S2144014004FF03D0885E615208B4B984705466827E4
S2144014104FF0FC0B4FF0020A4FF001090D264FF03B
S2144014203F0876E61220844B984705466A274FF0D9
S214401430F30B4FF0040A4FF003090D264FF03E0819
S21440144067E610207C4B984705466C274FF0CF0B3D
S2144014504FF0200A4FF005090D264FF0400858E699
S2144014601E20754B9847054619274FF0FC0B4FF04A
S214401470020A4FF0000903264FF0410849E64FF0B4
S214401480000B46E604EBC4036C4A02EB43039A792E
S21440149012F0800F7FF450AE684B93F8A431002BC7
S2144014A000F0A880654A92F8DF2012F0010F00F0A5
S2144014B0A18013F0010F40F0978013F0020F40F028
S2144014C0968000225D4B83F8A421002D00F0DF813A
S2144014D004EBC403594A02EB43035A7D01325A7562
S2144014E09B7D0133DBB2242B40F2E38104EBC40343
S2144014F0524A02EB430324229A75504B1E4496F8F8
S214401500F7210BEA020B86F8F7B104EBC40203EBB3
S214401510420300225A729A72DA721A735A739A7394
S214401520DA731A743846464B98472046454B9847D8
S2144015300C2C40F088810022404B83F8A82182E1A1
S21440154004EBC4033D4A02EB43039B7913F0010FBF
S21440155023D020463C4B984704EBC403374A02EB63
S21440156043039A7922F001029A7104EBC403334A8A
S21440157002EB43039B7913F0020F1BD1334A1278D8
S21440158052B3013A31490A7004EBC4022B4901EBCD
S214401590420203F07F039371B8E020462C4B9847F5
S2144015A004EBC403254A02EB4303DA7922F0040233
S2144015B0DA71DAE71346164496F8F7210BEA020B7F
S2144015C086F8F7B104EBC40203EB420300229A719B
S2144015D02046204B984756E116211C4A1170D3E707
S2144015E016211A4A1170D3E51B4B98476DE71B4BE3
S2144015F098476AE7132C33D0152C4BD0142C5DD06B
S214401600162C3FF662AFDFE814F0730073007300E9
S214401610A400A400A400A400A400A400EA00F400CF
S21440162008019800AE00B800C200CC00D600E0002A
S2144016302E005C002E00FE0075014000AC1300201A
S21440164055354000310240009D014000F00A002020
S214401650D9014000390440009D0740001108400071
S214401660994B1B784BB1CDF800B04B4632462146DD
S2144016704046DFF87C82C04745E0944B1A780B2101
S2144016803F20934B984701287FF41FAF01228E4B93
S2144016901A701AE78F4B1B78002BE4D18B4B1A78C5
S2144016A0C2F16402D2B20B214020894B98470128F0
S2144016B07FF40BAF0122874B1A7006E7864B1B78E8
S2144016C04BB1CDF800B04B46324614214046DFF8C9
S2144016D02082C04717E0814B1A780B213E207C4B76
S2144016E0984701287FF4F1AE01227B4B1A70ECE656
S2144016F0CDF804A0CDF800B04B46324621464046D1
S214401700DFF8F081C04700283FF4DFAE4FF40062B8
S214401710734B1A63002D40F089802046714B9847E2
S214401720714AE1000B1902EB43030A20D8740020EB
S21440173098751A7D01321A75A5E0CDF804A0CDF84B
S21440174000B04B4632460C214046DFF8AC81C047DD
S214401750D9E7CDF800B04B46324621464046DFF842
S2144017609C81C047CFE7CDF800B04B4632460D21AE
S2144017704046DFF87C81C047C5E7CDF800B04B4611
S21440178032460E214046DFF86881C047BBE7CDF8B9
S21440179000B04B4632460F214046DFF85481C047E2
S2144017A0B1E7CDF800B04B46324610214046DFF850
S2144017B04081C047A7E7CDF800B04B4632461121DE
S2144017C04046DFF82C81C0479DE7CDF800B04B4639
S2144017D0324612214046DFF81881C04793E7CDF8DD
S2144017E000B04B46324609214046DFF81481C047D8
S2144017F089E7CDF800B04B4632460A214046DFF82E
S2144018000081C0477FE7CDF800B04B4632461621F0
S2144018104046DFF8F080C04775E7334B334493F8D3
S214401820F7210BEA020283F8F7214EE638462F4BA3
S214401830984704EBC4032C4A02EB430300229A75F4
S2144018401A7D01321A7504EBC402274B03EB4202A1
S214401850537D127D1A44032A0BD904EBC401224857
S21440186000EB4101D31A03EB83035B0093FBF2F3D7
S214401870CB74092A07D91C4BE200111903EB41012E
S214401880002048750875012003B0BDE8F08F164D5E
S2144018902E4496F8F7310BEA030B86F8F7B1384634
S2144018A0124B984704EBC40405EB44050023AB7584
S2144018B0E9E704EBC4020C4901EB42029375232B83
S2144018C0C1D91AE601207047410000204700002099
S2144018D0DD3C400040000020420000208B0E0020EF
S2144018E0000E0E4095034000AC130020AD3540007E
S2144018F0E90E400041054000C50640006D09400025
S214401900510C400095084000F8B5C0F57F70033094
S214401910234B9847234EB04715A3D3E90023224CC8
S214401920A047224D14A3D3E90023A847204CA04744
S214401930B04702460B4612A1D1E90001A8471D4F09
S21440194011A3D3E90023B847A0471B491B4B984730
S214401950B0471B4B984702460B460DA1D1E9000104
S214401960A8470DA3D3E90023B847A047F8BD00BF5A
S2144019706666666666660A400000000000F88F40AD
S21440198000000000001DE040000000000088C3404A
S2144019900000000000DCAE40666666666612714077
S2144019A04DD74000A1CE400049CF40009DD14000D9
S2144019B039D54000E1CB40008D71903C5DD9400068
S2144019C0E5C640002DE9F04F83B08D4B984704465E
S2144019D08C4BB3F8EB3113F0400F3BD18A4B1B686E
S2144019E0E21A312A02D89C4280F00681864B1C605F
S2144019F08648874B98474020864B9847042828BF00
S214401A0004205FFA80FA844B1878844EB047844DA1
S214401A102B6818442860834C236801332360824B2C
S214401A201878B0476B681844686063680133636031
S214401A30BAF1020F11D800227A4B9A60BAF1030F1E
S214401A4015D80022774BDA60764D754E4FF0580B1E
S214401A50002447E0754B9847C0E7754B1878B04769
S214401A60AB681844A860A3680133A360E6E7714BEF
S214401A7018786A4B98476A4AD3681844D060694ACF
S214401A80D3680133D360DFE758466B4B98474846E8
S214401A906A4B98476A496B4B98470190012C33D064
S214401AA069490198694B9847DFF8C091C847554B3C
S214401AB004F1E40203EB4203A3F805000198C8478B
S214401AC0634B23F814003B689B103B60D8F800300B
S214401AD09B08C8F800300134043504360BF1010B7E
S214401AE0042C2CD0A24523DD2F462B684F2BF2DD4D
S214401AF0B0463268B2FBF3F942F216639945C3D951
S214401B005846544B9847DEE70820534B98470028E2
S214401B10D9D14D4901984D4B9847DFF85091C84769
S214401B20384BA3F8CF010198C847494B5880CAE7BD
S214401B3000232B60336058463F4B9847CBE7474BD4
S214401B401C68E0B2354B9847354A52F82430184462
S214401B5042F82400334A52F82430013342F8243005
S214401B60172B11DDB0FBF3F2D2003D49A1FB021268
S214401B70D2082449A1F8D9218008294A42F82400ED
S214401B809B10284A42F824300024364B1E68234FC8
S214401B90234D0DE01B4B03EB4403A3F8D501002374
S214401BA0204941F8223045F822300134022C23D017
S214401BB03019C0B2B847321955F82230184445F8A3
S214401BC02200184951F82230013341F822300F2BB9
S214401BD0EBDDB0FBF3F0244B1B78002BDAD100EBA7
S214401BE08000A3F15533A3FB0030064B03EB4403C0
S214401BF04008A3F8D501D2E703B0BDE8F08F00BF98
S214401C00B5BF4000AC1300204C0B002050140E40D3
S214401C10893A40006DA240008A0E0020D9C5400097
S214401C20F40A0020200B002045000020B9B84000F0
S214401C304600002044000020AD3540000919400011
S214401C400000C842F5D74000000020415DD9400062
S214401C50A4130020753540002D014000B4384100E3
S214401C60E1830F3EB8384100380E002081DB40004B
S214401C702DE9F04184B0A848A84B9847A84B984710
S214401C808046012840F36783A64B1B78F3B10022B9
S214401C90A54B1A60A54BDB78443B132B00F25B83C5
S214401CA0DFE813F056015903590359035903590302
S214401CB0590359035903590359035903A1035903B7
S214401CC0710459031F00590359038E04032102204F
S214401CD0974B98470122934B1A705620954B98473E
S214401CE0D5E7954B442283F8F421072283F8F52163
S214401CF08E4B1B79303B232B00F2BD80DFE813F080
S214401D003F006E00A900C500E5000401BB00BB0013
S214401D10BB000401BB00BB00BB00BB00BB00BB005C
S214401D20BB00BB00BB00BB00BB003200BB00BB001F
S214401D30BB00BB00BB00BB00BB00BB00BB00BB0086
S214401D40BB00BB00BB0024007B4BB3F8EB2142F446
S214401D508052A3F8EB21012283F8F221002283F877
S214401D60F3218EE0744BB3F8EB2122F48052A3F8B3
S214401D70EB21002283F8F22183F8F321EBE26E4A4E
S214401D80B2F8EB3143F48053A2F8EB31B2F8F231BB
S214401D9043F00301A2F8F211644A9279012A0DD960
S214401DA0624A52796F2A0DD0632A11D023F002037B
S214401DB043F00103604AA2F8F2315CE002215B4A3C
S214401DC09171EDE7594B997900205C4B984752E06A
S214401DD0564B99790120594B98474CE0564AB2F8F1
S214401DE0EB3143F48053A2F8EB31B2F8F23143F0D2
S214401DF00501A2F8F2114D4A5279412A09D0532AD8
S214401E0017D023F0040343F001034B4AA2F8F23103
S214401E1031E04FF400024A4B1A63012203F5007387
S214401E201A63454A92F8F13143F0030382F8F131E0
S214401E3021E04FF40002424B5A63012203F500733F
S214401E405A633D4A92F8F13123F0030382F8F131A8
S214401E5011E0394BB3F8EB2142F48052A3F8EB2162
S214401E60B3F8F22142F00902A3F8F2212F4B9979F8
S214401E7058792F4B9847304BB3F8F231002B00F08F
S214401E806A822A482F4B984765E22B4AB2F8EB31D4
S214401E9043F48053A2F8EB31244B5B79412B0AD0B4
S214401EA0254AB2F8F23123F01003A2F8F2310220AC
S214401EB0254B9847DFE7B2F8F23143F01103A2F81A
S214401EC0F2310220214B9847D5E71B4AB2F8EB3156
S214401ED043F48053A2F8EB31144B5B79432B07D085
S214401EE0154AB2F8F23123F02003A2F8F231C2E7E5
S214401EF01346B2F8F22142F02102A3F8F2210B4A2F
S214401F00927983F8F621B6E70B4AB2F8F23143F0FD
S214401F100103A2F8F231AEE750140E40893A400071
S214401F20B5634000700E00206C0E00203416002072
S214401F3025B74000AD354000AC1300207DB74000CB
S214401F40000E0E4081634000D90140009D014000D4
S214401F50DD4B54229A704422DA70DC4A92F8B5106F
S214401F601971B2F9C3115971091299715178D97121
S214401F7092F8EF11197292F8F0115972B2F9B7113E
S214401F8099720912D972B2F9B911197309125973B3
S214401F90B2F9DB1199730912D973B2F9E1111975C7
S214401FA009125975B2F9DD11197409125974B2F94A
S214401FB0E31199750912D975B2F9DF1199740912AE
S214401FC0D974B2F9E511197609125976B2F9C511E4
S214401FD083F82610091283F8271092F8371099765E
S214401FE0D17CD97692F825101977D37903F001047D
S214401FF013F0080F18BF44F0020413F0040F00F06B
S214402000AE8144F00404B14BDB7D13F0010F18BFE2
S21440201044F00804AD4B93F8F7310BB144F010048C
S214402020A94B9C77A94B5A7E02F0010312F0040F8D
S21440203018BF43F00403A54A92F8292012F0010F76
S21440204018BF43F00803A14A92F8F8210AB143F0BA
S21440205010039D4AD3779D4B93F82B2002F0010343
S21440206012F0080F18BF43F0020312F0040F18BF17
S21440207043F00403954A92F83B2012F0010F18BF34
S21440208043F00803914A92F8F9210AB143F010034D
S2144020908D4A53778D4B93F8932102F0010312F04B
S2144020A0020F18BF43F0020312F0040F18BF43F0AC
S2144020B00403864A92F8A32112F0010F18BF43F09A
S2144020C00803824A92F8FA210AB143F010037E4A86
S2144020D082F833307D49B1F90B3082F820301B123C
S2144020E082F821308B7C012B00F04081774BB3F98E
S2144020F0CF31754A82F822301B1282F82330734A59
S214402100B2F91D10704B83F82410091283F825107D
S214402110B2F91B1083F83110091283F83210B2F965
S2144021202F1083F82D10091283F82E10B2F92D10B7
S21440213083F82F10091283F83010B2F9E71183F8AC
S2144021402810B2F9E91183F82910091283F82A10E9
S21440215092F83D5015F0010100F0108192F84920A8
S214402160594B83F82B20584B584A107983F82C004B
S2144021705748B0F9000083F83400001283F8350061
S2144021805448B0F9000083F83600001283F8370050
S2144021905148B0F9000083F83800001283F839003F
S2144021A04E48B0F9000083F83A00001283F83B002E
S2144021B092F8570183F83C0092F8450183F83D00B9
S2144021C092F8392102F0010312F0040F18BF43F0D1
S2144021D004033E4A92F8492112F0010F18BF43F01B
S2144021E008033A4A92F8030208B143F01003364A0D
S2144021F082F83E30354B93F84B3103F0010213F032
S214402200040F18BF42F00402304B93F85B3113F0D2
S214402210010F18BF42F0080208B142F010022A4BE4
S21440222083F83F20294AB2F93F0083F84000001265
S21440223083F84100B2F9870083F84200001283F821
S2144022404300B2F9630083F84400B2F9510083F8C2
S2144022504500001283F84600B2F9750083F847003F
S214402260B2F9430083F84800B2F9550083F84900B4
S21440227092F8490083F84A0092F85B0083F84B00D6
S214402280B2F94140A01083F84C00C4F3852083F88F
S2144022904D00B2F95320901083F84E00C2F38520CB
S2144022A083F84F000B4615F0040F18BF41F00403A7
S2144022B0064991F84D1011F0010F18BF43F008037E
S2144022C0024991F8FA110BE034160020AC130020B6
S2144022D0EC0A0020EA0A0020160A0020140A002011
S2144022E009B143F01003C64880F85030C54B93F808
S2144022F04F0000F0010310F0040F18BF43F0040332
S214402300C04890F85F0010F0010F18BF43F0080374
S21440231009B143F01003BA4880F85130B94DB5F9C9
S21440232089309B0003F00C03B5F96510090101F0F4
S21440233030010B4304F00304234380F85230B5F9D0
S21440234077301B0103F0300302F00302134380F89A
S2144023505330AD4B9847404604B0BDE8F0819620D8
S214402360AA4B984700283FF44EAE4AE6B1F90930EA
S21440237082F822301B1282F82330C0E6A14B93F835
S2144023804F3013F0010F06D09E4B93F85B209C4BCA
S21440239083F82B20E7E69B4B93F8613013F0010F50
S2144023A006D0984B93F86D20954B83F82B20DAE6B1
S2144023B0944B93F8733013F0010F06D0914B93F87B
S2144023C07F208F4B83F82B20CDE68E4B93F88530BD
S2144023D013F0010F3FF4C7AE8A4B93F89120884B19
S2144023E083F82B20BFE6864B5979894B5B788B4226
S2144023F000F0B280864B824A1079187059709179F5
S2144024009970D179D970117A1971517A5971917A36
S2144024109971D27ADA717A4B2C229A705022DA70FD
S214402420784AB2F9CD211A7112125A710820794BA6
S2144024309847002800F09F80724BB3F99B30704A53
S21440244093711B12D3716F49B1F9D1216C4B1A723B
S21440245012125A72B1F9D3219A721212DA72B1F983
S214402460D5216D4880FB0254D217C2EBA40292B22B
S214402470642A28BF64221A73B1F9D72180FB024030
S214402480D217C2EBA00292B2642A28BF64225A73C3
S21440249091F8AE219A73B1F9BD21DA73B1F9BB2137
S2144024A01A7412125A74B1F9BF219A741212DA745D
S2144024B0B1F8EB211A75120A5A7591F8ED2103F816
S2144024C0162F01F5FB7201F2032112F8010F03F8F3
S2144024D0010F8A42F9D14B4B93F8932102F0010346
S2144024E012F0020F18BF43F0020312F0040F18BF99
S2144024F043F00403434A92F8A32112F0010F18BF99
S21440250043F008033F4A92F8FA210AB143F0100319
S2144025103B4C84F824303B4E96F8B13184F8253055
S2144025203A203A4DA84784F826007E20A84784F8EB
S21440253027009820A84784F82800ED20A84784F86C
S2144025402900B6F9C13184F82A301B1284F82B30A2
S21440255020462D4B9847FEE62D4BDA78284BDB7904
S2144025609A427FF447AF2A4B9A78254B9B799A42FA
S2144025707FF440AF4FE7234BB3F9CF31204A9371F6
S2144025801B12D3715FE71E4A13799CB256792644D4
S214402590013EB6B2C3F10703334493705223D3705F
S2144025A0B44209D8551D194F2046B84705F8010FC3
S2144025B00134A4B2A642F7D21148134B9847CAE654
S2144025C00F4B1D795C792C44013CA4B20023ADF836
S2144025D008304C22ADF80020ADF80A207E22ADF837
S2144025E002208522ADF80C209822ADF804209922CE
S2144025F0ADF80E20ED22ADF8062002A911E000BF8E
S21440260034160020AC130020816340006DA24000C9
S2144026103C1700202D014000676666660133042B98
S21440262015D031F81320AA42F8D83DF81320A2421C
S214402630F4D31648164B9847164A21462846164B5A
S2144026409847B0F1FF3F0CBF3225302503E00F48D6
S2144026500F4B984731250D480D4B98470F4C0B2391
S214402660A3705723E370A5713A200D4DA847E0713B
S2144026707E20A84720729820A8476072ED20A84781
S214402680A0722046074B984765E600BF50140E40A0
S214402690893A40003A160020BDAB40003416002070
S2144026A06DA240008163400010B504462B200B4BC2
S2144026B0984714F0800F1ABF40F00101C9B200F0ED
S2144026C0FE0114F0400F14BF41F0020101F0FD017D
S2144026D02B20034B9847034B5C7110BD6DA2400006
S2144026E0FDA14000AC1300202DE9F043A5B0A24B5D
S2144026F098470546012840F3FC81A04B1B79313BA7
S214402700262B00F2F381DFE813F00601F101F10118
S214402710F101F101F101F101F101F101F101F101E4
S214402720F101F101F101F101F101F101F101F101D4
S214402730F101F1012700F101F101F101F101F1018F
S214402740F101F101F101F101F101F1017301F10132
S214402750F101F101F101A5013B20894B984706465E
S214402760042800F0B280062814BF1123772343F0D4
S2144027700803824A517919408248017091790B408A
S21440278081490B70137AD07940EA032000B27F4B20
S214402790A3F8B701917A547A44EA012424B2A3F804
S2144027A0B941002800F09380794B984770A3D3E94D
S2144027B00023784FB847784B9847784B9847734BE9
S2144027C0A3F8DB01002C00F089802046704B984728
S2144027D067A3D3E900236F4CA0476F4B98476F4BD6
S2144027E098476A4BA3F8E1016849644B987B5A7B4B
S2144027F042EA0022A1F8DD21187DDA7C42EA002276
S214402800A1F8E321187CDA7B42EA0022A1F8DF2116
S2144028109A7D5B7D43EA0223A1F8E531604A13685E
S2144028200133136050205F4B9847022E5DD0042E34
S2144028300CBF0323072353490A784978914256D060
S21440284023EA020122F00F020A43504981F8FF2191
S2144028504D490A784978914253D023EA020322F040
S2144028600F021343494A82F80032484B93F8F0214E
S21440287002F00F0283F8F02193F8EF2102F00F02E6
S21440288083F8EF214420474CA0474C20A0472E20F9
S214402890454B984710F4804F0CD03C4B93F8F021B2
S2144028A022F00F0283F8F02193F8EF2122F00F0276
S2144028B083F8EF21334B5A789A701A785A70324B15
S2144028C05A789A701A785A7015E133234FE72F4B8F
S2144028D0002283F8DB2183F8DC2173E72B4B0022B0
S2144028E083F8E12183F8E2217EE70123A3E7254927
S2144028F089789142A4D122F00802244981F8EF2138
S214402900A6E7214989789142A7D122F008021F4BB9
S21440291083F8F021A9E7194B58791C4B5B79834221
S21440292001D0224B9847154B1B7A532B44D0134B60
S2144029305B7B432B4BD01D20114B98470F4B99790F
S214402940884202D01D201A4B98471E200C4B9847B1
S2144029500A4BD979884202D01E20154B9847002250
S214402960144B1A7051200F4B9847C4E0AFF30080C9
S2144029709A9999999999094019654000BC16002082
S2144029806DA24000680B0020640B0020AC130020B2
S2144029907DCE400049CF400039D54000CDDB4000D9
S2144029A0580B0020AD35400079A24000A9264000D3
S2144029B0FDA14000500B0020524B534A917A1970AB
S2144029C0D17A5970117B9970527ADA70AFE75520F8
S2144029D04E4B984722244E4F4E4E2046B847231D16
S2144029E0014698B2B0470134A4B2262CF5D1A2E7EE
S2144029F0454B9B79772B26D8434A567903F10909EC
S214402A00A9F102028DF8122007228DF813205222D7
S214402A108DF814208DF815608DF816307BB10024A3
S214402A20DFF8EC80384F3019C0B2C04724AB23449F
S214402A3003F8790C0134E4B2BB79A342F3D8494693
S214402A4004A8354B98470022344B1A7051202F4B20
S214402A50984750E02C4B5879997901440023ADF8BB
S214402A6008304C22ADF80020ADF80A207E22ADF8A2
S214402A7002208522ADF80C209822ADF80420992239
S214402A80ADF80E20ED22ADF8062002AC02E0013390
S214402A90042B10D034F813208242F8D83DF8132087
S214402AA08A42F4D31E4A1F4B9847B0F1FF3F14BFEB
S214402AB03021322100E0312108238DF812300723DF
S214402AC08DF8133057238DF814300F4B5A798DF804
S214402AD015209B798DF816308DF817100A2104A81A
S214402AE00D4B98470122104B1A7004E00F4B984745
S214402AF001E0002803DB284625B0BDE8F0830B4BF9
S214402B009847F8E73C170020BC160020AD3540003B
S214402B106DA24000FDA1400095644000500B00208F
S214402B20C3160020BDAB40006B0B00207564400010
S214402B3010B50A4B98470446094B1B68C21A022A2E
S214402B4001D8984203D29C4202D8054B1C6010BD67
S214402B50044B9847044B9847F7E700BFB5BF400083
S214402B60600B0020711C4000E926400030B589B05B
S214402B706C4BB3F8F23113F0200F4FD0694B93F8FB
S214402B80F641684B83F8EE4173228DF800206D22A3
S214402B908DF801200C228DF8022004228DF80320A7
S214402BA046228DF8042093F8AF218DF8052093F83F
S214402BB0B0318DF806308DF807403C205A4CA0477F
S214402BC08DF808003B20A0478DF8090000238DF8BB
S214402BD00A308DF80B3055490868421C0A6012F0DE
S214402BE0030F15D1524B196801EB81035B0093FB31
S214402BF0F0F34C484370172A0ADD002900F08D8018
S214402C004B4A13685B101360484A13685B101360A6
S214402C100E216846474B984709B030BD464B1B7857
S214402C20002B14BFF72500253E4A92F8013203F0E8
S214402C30DF0002F2F7120123002404E0002818BF48
S214402C400824013301320B2BF8D0A3F109010129E6
S214402C5035D91178002918BF08240C2BF1DD5520F2
S214402C60364B984710B144F00204E4B22D4B93F82B
S214402C70ED3113F0010F1CBF64F07F04E4B23B203B
S214402C80294B984702281FD004280BBF30237023B7
S214402C9003210721284A12784F2A18D0214A92F851
S214402CA0F021134204D11F4A92F8EF21134202D07A
S214402CB044F01004E4B20022214B1A7061E7117808
S214402CC00D4218BF0824C8E710230121E2E71C4A3A
S214402CD01278042A1AD90520194A1070114A92F817
S214402CE0F02131EA020003D044F01004E4B248E791
S214402CF00C4890F8EF018143F6D10243134214BFCB
S214402D0044F0100444F02004E4B23AE701320C4B9D
S214402D101A7044F02004E4B233E75020094B984739
S214402D206EE700BFAC1300206DA24000540B00209D
S214402D30580B002095644000380E00203535400082
S214402D405C0B002055354000714B1B78002B40F043
S214402D50DA8070B59AB007228DF803206D4A127853
S214402D6012F0010F40F0E48038228DF80220312224
S214402D708DF804206849B1F8EB218DF80520120A39
S214402D808DF8062091F8FF21003218BF012291F8F5
S214402D90001209B142F002028DF807205E4A92F80E
S214402DA0012202F05702002A18BF20238DF808306F
S214402DB0594C94F8F13103F003038DF8093055204F
S214402DC0564B98478DF80A00B4F9D521544981FBF3
S214402DD00203D217C2EBA3028DF80B20B4F9D73109
S214402DE081FB0321DB17C3EBA1038DF80C303B209E
S214402DF04C4B98478DF80D00B4F9B7318DF80E302E
S214402E001B128DF80F30B4F9B9318DF810301A1204
S214402E101AAB03F8572D0DF12501002203F8012FB8
S214402E208B42FBD13C4AB2F9DB318DF812301B1293
S214402E308DF81330B2F9E1318DF814301B128DF84D
S214402E4015309DF80D30022B1ED91146B2F9DD2102
S214402E508DF8162012128DF81720B1F9E3218DF85F
S214402E60182012128DF81920042B0DD9B1F9DF3134
S214402E708DF81A301B128DF81B30B1F9E5318DF8FC
S214402E801C301B128DF81D303A20264CA0478DF87A
S214402E9026007E20A0478DF827009820A0478DF872
S214402EA02800ED20A0478DF829001B4890F8EF3108
S214402EB08DF82A3090F8F0311AAA02F83D3D00F518
S214402EC0FB7300F2022013F8011F02F8011F834231
S214402ED0F9D13A240F4A137801331370124B1A78FB
S214402EE0C2F1160303EBD3735B100B490B71152A23
S214402EF000F2958201320C4B1A70214668460B4B05
S214402F0098471AB070BD0022014B1A70704700BF38
S214402F106B0B00205D0B0020AC13002035354000C5
S214402F20676666666DA24000500B002095644000C0
S214402F3067238DF8023032238DF80430D74BDA7889
S214402F408DF805209A788DF806205A788DF8072057
S214402F501B788DF80830D24B1B688DF809301A0A5A
S214402F608DF80A201A0C8DF80B201B0E8DF80C30AD
S214402F704020CC4CA04700F007008DF80D007B2089
S214402F80A0478DF835007C20A0478DF83600962067
S214402F90A0478DF865009720A0478DF86600C24B85
S214402FA093F8AE318DF83430C04BB3F900308DF81D
S214402FB00E301B128DF80F300820BD4B9847002866
S214402FC000F0BA81B84BB3F999308DF810301B1227
S214402FD08DF81130B74B1B7873B9B44AB2F9043048
S214402FE08DF812301B128DF81330B2F906308DF87A
S214402FF014301B128DF815300020AF4DA847041C26
S21440300018BF01240120A84708B144F0020402205A
S214403010A94B984708B144F00404A34B93F82B30CF
S21440302013F0080F18BF44F008049F4B9B7913F029
S214403030010F18BF44F010049B4B1B7E13F0010F8A
S21440304018BF44F02004984B93F82A3013F0010F31
S21440305018BF44F04004944BDB7913F0080F18BFB8
S21440306044F080048DF816408F4BB3F909208DF854
S214403070172012128DF81820B3F90B208DF8302047
S21440308012128DF83120B3F91B208DF8372012121A
S2144030908DF83820B3F91D208DF8192012128DF8BE
S2144030A01A20B3F92D208DF8392012128DF83A20C7
S2144030B0B3F92F308DF81B301B128DF81C307D4B2A
S2144030C01978002940F0AF81774BB3F9F3208DF89B
S2144030D03B2012128DF83C20B3F9F5208DF83D20A8
S2144030E012128DF83E20B3F9F7208DF83F201212C9
S2144030F08DF84020B3F9F9208DF8412012128DF852
S2144031004220B3F905218DF8432012128DF8442051
S214403110B3F907318DF845301B128DF84630624BB7
S214403120B3F909218DF8472012128DF84820B3F9DB
S2144031300B218DF8492012128DF84A20B3F9172139
S2144031408DF84B2012128DF84C20B3F919218DF8CA
S2144031504D2012128DF84E20B3F91B218DF84F20CA
S21440316012128DF85020B3F91D318DF851301B12D4
S2144031708DF8523071B94C4AB2F929318DF8533036
S2144031801B128DF85430B2F92B318DF855301B1286
S2144031908DF85630444AB2F92D318DF857301B120F
S2144031A08DF85830B2F92F318DF859301B128DF802
S2144031B05A30424BB3F900308DF85B301B128DF815
S2144031C05C303F4BB3F900308DF85D301B128DF804
S2144031D05E30A1B9B2F971318DF85F301B128DF8AF
S2144031E06030B2F973318DF861301B128DF8623061
S2144031F0B2F975318DF863301B128DF864302A4B66
S214403200B3F9BB218DF81D2012128DF81E20B3F99C
S214403210BD218DF81F20B3F9BF218DF82020B3F9CA
S214403220C3218DF8212012128DF82220B3F9C52132
S2144032308DF8232012128DF82420B3F9CF208DF874
S214403240252012128DF82620DA7C8DF8272093F858
S21440325025208DF8282093F837308DF829300A201D
S214403260134B9847002870D00F4B93F8C7308DF813
S2144032702A300D4B5B788DF82B300F20094B984742
S2144032803038C0B2022866D8C0EB401300EB83004B
S21440329000EB80000401A4B214E000BF3C170020FD
S2144032A07C0E00206DA24000AC130020A41300202A
S2144032B02D014000560E002051014000860E002091
S2144032C0880E00201020604EB04705461120B047BB
S2144032D0A5F13003DBB2C3EB431203EB8202A0F14D
S2144032E03003DBB203EB830303EB83039B0003EB68
S2144032F0C2031C44A4B2554B9847554BA3FB00232E
S2144033005B098DF82C30C82C27D819238DF82D3022
S2144033108DF82E00000A8DF82F004E4B93F8B12101
S2144033208DF8322093F8ED318DF833304A4B1B78C8
S214403330012B1AD06924CDE5484BB3F902308DF8FD
S21440334010301B128DF8113044E6424B93F8B530DE
S2144033508DF82A308DE70024B4E7B4F5966F94BF15
S21440336023232D238DF82D30D2E73D4BB3F9003083
S2144033708DF843301B128DF844303A4BB3F9003089
S2144033808DF845301B128DF84630374BB3F9003078
S2144033908DF85F301B128DF86030344BB3F9003037
S2144033A08DF861301B128DF86230314BB3F9003026
S2144033B08DF863301B128DF864302E4BB3F9003015
S2144033C08DF812301B128DF813302B4BB3F90030AA
S2144033D08DF814301B128DF81530284BB3F9003099
S2144033E08DF83B301B128DF83C30254BB3F900303E
S2144033F08DF83D301B128DF83E30224BB3F900302D
S2144034008DF853301B128DF854301F4BB3F90030F3
S2144034108DF855301B128DF8563069245AE55120E8
S2144034201A4B984769E50B4AB2F9F7308DF83F30AA
S2144034301B128DF84030B2F9F9308DF841301B122E
S2144034408DF842306BE600BF6DA240001149400047
S2144034501F85EB51AC130020560E0020A41300200D
S214403460400E00203E0E00204C0E00204E0E002047
S214403470500E0020540E0020520E00203C0E00201D
S2144034803A0E0020440E0020420E002055354000E3
S21440349008B51348134B9847134BDB6B13F0005F8C
S2144034A00DD0124A137801331370104B1B7813F06B
S2144034B0010F14BF0E4B0F4B9847012008BD002349
S2144034C00A4A13700C4A137051200C4B98470C4B09
S2144034D05B79002BE9D000200A4B9847E5E700BF10
S2144034E050140E40893A4000000E0E405E0B0020FD
S2144034F0492D40006D2B4000500B0020AD3540005C
S214403500AC130020A9264000084B03F10D01002211
S21440351003F8012F8B42FBD1054B03F170010022CB
S21440352003F8012F8B42FBD1704700BFA215002045
S214403530FF0E0020C0F3C702054B134493F8F73143
S21440354000F0070043FA00F000F00100704700BFAB
S214403550AC130020C0F3C702054B134400F007022B
S2144035600120904093F8F721104383F8F701704705
S214403570AC1300200B4B1B5C082B0ED9C0F3C703C3
S214403580094A1A4400F00700012303FA00F092F8B3
S214403590F731184382F8F70170470133014A135454
S2144035A0704700BF000F0020AC13002010B4C0F3DB
S2144035B0C7010C4B0B4493F8F73100F0070243FA6F
S2144035C002F414F0010F08D0064C2144012404FAFA
S2144035D002F223EA020381F8F7310022024B1A5422
S2144035E010BC7047AC130020000F0020002303607F
S2144035F0064A4260064A82604FF48022C260022237
S214403600027442748374C3740375704700E1F50511
S214403610808D5B00B1F5803F0AD0B1F5003F07D002
S214403620436819434160036C23F440330364704796
S214403630436823F010034360036C194301647047EA
S21440364038B5036B13F0807301D0192038BD0122C2
S21440365002608A7C002A18BF4FF000430A7C12069C
S21440366002F070624C7C240704F040542243CC683D
S21440367022438C6865004C68B4FBF5F4013C240298
S214403680A4B2224313434360CB7C002B14BF4FF0BD
S214403690807300230A7D002A14BF4FF48012002254
S2144036A0134303640968064B9847064B03F16001D1
S2144036B0002243F8042F8B42FBD1002038BD00BFC8
S2144036C015364000740F002070B582B00B4B1B6B54
S2144036D001930B4E341F0B4D5C3602E00435B4426A
S2144036E009D0019A54F8043F1A42F7D02B68002BB1
S2144036F0F4D09847F2E702B070BD00BF00800340A8
S214403700181C4100780F002000B583B01D20114BD7
S2144037109847114B9B78FF2B1AD0EFF31083B3FAE0
S21440372083F35B09019372B6BFF35F8F00220B4BA6
S2144037301A700199084A93780133937029B101228F
S214403740064B1A70BFF35F8F62B603B05DF804FB9A
S214403750FEE700BF85914000700F0020310000203A
S2144037600B4619B1096801605B6843601AB113687B
S214403770036153684361704721F0FE01C905C90DD6
S21440378001627047406870472A4B994249D8A3F572
S2144037907A5399422BD910B4274CA4FB0234A40B7D
S2144037A0043C264B0B449B00B2FBF3F2043AFF2C3E
S2144037B039D9002101316408FF2C0DD90729F9D1E8
S2144037C013029BB2090401F4E0210B43E4B2234305
S2144037D00361002010BC7047FF2AF1D90629EFD8B4
S2144037E001315208FF2AEBD90629F9D9E8E7490002
S2144037F0B2FBF1F2043AFF2A11D9002301335208F2
S214403800FF2A01D9072BF9D1110289B21B0403F410
S214403810E0230B43D2B21A430261002070470023D4
S214403820F2E701207047FF2A88BF0021D8D8002140
S214403830C6E700BF801A0600F11976050012FD3F64
S21440384038B504460D464FF0FF338362036A802343
S2144038500360036B08230360202303600423036094
S2144038600A684968054B9847012814BF0020012084
S2144038706B7A012B04BF4023236038BD8937400054
S2144038800A4659B103780129C4BF417841EA032367
S214403890022A04DD827842EA032300E00023184629
S2144038A070470000F8B5CC68002C5DD00B46054646
S2144038B08E68002068604A68120202F4407242F441
S2144038C08052097C090401F4FE010A436A60E860FC
S2144038D059681846294B9847E860012C0FD00123B9
S2144038E02B6000202B6A13F4807F44D147F22F517F
S2144038F047F230574FF0010E4FF0020C19E0032309
S2144039002B600120EEE70A4670460CE008B9C5F881
S21440391000C013F0020FF6D070462B6B3370013C9C
S21440392001363A4664B12B6A13F4807F1FD1511E8C
S214403930FAB1012CEAD013F0020FEED10A46F1E7B5
S21440394000220F4B1A601A462B6A13F0010F03D160
S2144039501368B3F5FA7FF7D32B6A094B1B68B3F5A8
S214403960FA7F28BF092400E001242046F8BD05243C
S214403970FBE70924F9E70524F7E700BF8138400054
S214403980A80E002070B5CD68002D4DD00B460446DD
S2144039908E68002060600A7C120402F4FE024968C9
S2144039A0090201F440710A436260E06059681846B3
S2144039B0214B9847E060236A13F4807F06D00525A4
S2144039C033E05DB1236A13F4807F30D113F0040FE7
S2144039D0F7D033786363013D0136F2E70022174B98
S2144039E01A601A46236A13F4807F22D113F0040F1C
S2144039F005D11368B3F5FA7FF4D3092515E0022301
S214403A00236000220D4B1A601A46236A13F0010FFA
S214403A1003D11368B3F5FA7FF7D3084B1B68B3F5A9
S214403A20FA7F28BF092500E00125284670BD0525F8
S214403A30FBE70525F9E700BF81384000A80E0020C7
S214403A40436913F0020F1DBFC1F30801C161002096
S214403A5001207047094BB3FBF1F1814202D94FF682
S214403A60FF707047C1EB0133834202D24FF6FF70BE
S214403A707047B0FBF1F0C0F30B0070470020A10781
S214403A804FF4004343607047024B984204BF024ADB
S214403A901A60704750140E40010000A54068C0F3FD
S214403AA00B00C001B0FBF1F1014800FB01F070478C
S214403AB040420F00024B01225A61C3F8A0207047D3
S214403AC0000E0E40024B02225A61C3F8A0207047F7
S214403AD0000E0E4008B5024B9847024B984708BD6B
S214403AE0C53A4000B53A4000034B01221A61C3F87C
S214403AF0A0205A63704700BF000E0E40034B0222C0
S214403B001A61C3F8A0205A63704700BF000E0E40EB
S214403B10034B01225A61C3F8A020D86B104070476F
S214403B20000E0E4010B5074B9847074B984740F29B
S214403B309550064CA047064B984740F29550A047F4
S214403B4010BD00BFB53A4000C53A40000100002015
S214403B50E93A400010B5094B9847094B984740F260
S214403B609550084CA047084B984740F29550A047C0
S214403B70064B984740F29550A04710BDFD3A40008E
S214403B80E93A400001000020C53A4000B53A4000FE
S214403B9038B50A4DA84740F2CB20094CA047094B00
S214403BA0984740F2CB20A047074B984740F29550A5
S214403BB0A047A847054B984738BD00BFFD3A400090
S214403BC001000020E93A4000C53A4000B53A4000BE
S214403BD070B5094EB04740F2CB20084CA047084D80
S214403BE0A84740F2CB20A047064B984740F2955056
S214403BF0A047B047A84770BDFD3A400001000020EE
S214403C00B53A4000C53A4000F8B5194EB04740F2C4
S214403C109550184DA847184B9847B320A847174FBC
S214403C20B8470446B320A847B8470444E4B2B32094
S214403C30A847B8470444E4B2B320A847B84704446A
S214403C40E4B2B320A847B8470444E4B2B320A84738
S214403C50B8470444E4B2B320A847B8470444E4B2A3
S214403C60B320A847B047032C94BF00200120F8BDDE
S214403C70FD3A400001000020C53A4000113B40009C
S214403C802DE9F843814608248026DFF84C8040F230
S214403C90CB270D4DC0473846A84719EA060F14BF34
S214403CA00A4B0B4B98473846A8470A4B9847760826
S214403CB040F29550A847C047631E13F0FF04E9D171
S214403CC0024B9847BDE8F88301000020B53A400013
S214403CD0E93A4000C53A4000FD3A400070B50E460D
S214403CE015464000C4B21E4B98471E4B9847204688
S214403CF01D4B98471D4B9847E8B930461A4B984796
S214403D001A4B9847E0B92846174B9847174B9847A1
S214403D10D8B9A01928444342C0B2DBB258BF584273
S214403D20C043C0B2104B9847104B984790B9104BC1
S214403D309847012070BD0E4B98476FF0040070BD49
S214403D400B4B98476FF0040070BD094B98476FF0D7
S214403D50040070BD064B98476FF0020070BD00BF70
S214403D60D53A4000253B4000813C4000093C40009D
S214403D70553B40002DE9F84F08274FF080084FF09C
S214403D80000ADFF884901D4D4FF0B30BC84740F251
S214403D909550A8471A4B98475846A847194EB047DB
S214403DA004465846A847B0470444E4B25846A84795
S214403DB0B0470444E4B25846A847B0470444E4B287
S214403DC05846A847B0470444E4B25846A847B047C8
S214403DD00444E4B25846A847B0470444E4B25846C0
S214403DE0A847042C88BF4AEA080AC8474FEA58083A
S214403DF0013FCBD15046BDE8F88F00BF0100002000
S214403E00C53A4000113B4000FD3A40002DE9F041E4
S214403E100D4617461E4640000130C4B23B4B9847FD
S214403E2020463B4B98473B4B9847002847D128466F
S214403E30374B9847374B9847002846D13046344B47
S214403E409847344B9847002845D160193044434240
S214403E50C0B2DBB258BF5842C043C0B22C4B9847A2
S214403E602C4B984700283CD140F295502A4B984717
S214403E70264B98472046264B9847264B984700287F
S214403E8035D18EB17D1E013E57FA86F6DFF890801A
S214403E90224FC04705F8010F2044C4B2B847AE428F
S214403EA0F7D1E0435FFA80F81D4B9847404524D150
S214403EB01A4B98471B4B98470120BDE8F081194B99
S214403EC098476FF00400BDE8F081164B98476FF0B6
S214403ED00400BDE8F081134B98476FF00400BDE83E
S214403EE0F081104B98476FF00A00BDE8F0810D4B0B
S214403EF098476FF00400BDE8F0810B4B9847094B9C
S214403F0098476FF00200BDE8F08100BF253B4000B7
S214403F10813C4000093C400001000020913B4000AD
S214403F20753D4000553B4000D13B4000091A83B2E6
S214403F3003F1630292B2312A12D8FA29CCBF244840
S214403F404FF07E50A1F1E203182B98BF2148A1F113
S214403F50C903182B98BF2048C82937DC1F4870472C
S214403F6095339BB2312B16D8B1F5967FCCBF1C4803
S214403F704FF07E50A1F1FB03312B98BF4FF07D50A0
S214403F80A1F1C903312B98BF4FF07C50C8291DDCE6
S214403F904FF07A50704710F1950F15DAB1F5AF7FB4
S214403FA0CCBF4FF07D504FF07E50A1F5A373182B39
S214403FB098BF0C48A1F22D13182B98BF0A48B1F5AC
S214403FC0967F03DC094870474FF07E50704700BF2D
S214403FD07B146E3F9A99593FC3F5283F3D0A173FD9
S214403FE0AE47613FCDCC0C3FAE47E13EC3F5A83E61
S214403FF038B54020964CA04705461220A0473628A4
S21440400000F07B810720934B984748B3924B93F838
S214404010A8312BB3914B1C782046914B9847914B37
S214404020984789A3D3E900238F4DA8478F4B9847DD
S214404030C0B28F4B1870322806D83334201A874BBC
S214404040187033228A4B1A70834AB2F8EB3143F029
S2144040500203A2F8EB3140F2B142864B1A6038BDFB
S2144040607D4BB3F8EB3113F0020F00F023817A4A10
S214404070B2F8F22112F0010F40F01C817D4A12681E
S214404080B2F5966F12DC042D40F088805B207A4BA8
S214404090984788B1704AB2F8EB3123F00203A2F891
S2144040A0EB314FF48002754B5A6338BD23F0020360
S2144040B0694AA2F8EB3138BD40206F4B984700283C
S2144040C0E8D148206C4B98470028E3D144206A4BFF
S2144040D098470028DED14C20674B98470028D9D116
S2144040E05D4BB3F9D331312B0EDD5B4AB2F8EB3181
S2144040F023F00203A2F8EB310022614B1A604FF422
S21440410080025E4B5A636AE05A4B1968322291FB32
S214404110F2F302FB1313002B61D10220594B984750
S21440412018B1594A594B1A6065E04B4BB3F9D33135
S21440413013F13B0F07DA564A544B1A604FF480028D
S2144041404E4B1A6357E013F1280F07DA514A4F4B8C
S2144041501A604FF48002494B1A634CE013F1140F77
S21440416007DA4D4A494B1A604FF48002434B1A63B4
S21440417041E0002B08DA4FF07D52444B1A604FF472
S21440418080023E4B1A6336E01D2B28DC434A3F4BE9
S2144041901A604FF48002394B5A632CE05920364B54
S2144041A0984750B12C4AB2F8EB3123F00203A2F8FC
S2144041B0EB310022324B1A6038BD58202E4B9847C0
S2144041C00028EFD1244BB3F9CD0110F1040FE9DA02
S2144041D0214BB3F9CF11324B98472C4B18602B4BE1
S2144041E01C684FF07A5120462E4B984700B34FF04C
S2144041F07A52264B1A60194B1C782046184B984723
S214404200224B1968284B9847284B9847C0B2184B02
S2144042101870322807D804F133031B1A0F4A13705C
S2144042203322134B1A70134A13680133136038BD98
S2144042304FF07E5120461E4B98470028DBD04FF06B
S2144042407E52124B1A60D6E79A9999999999D93F16
S2144042506DA2400075014000AC130020990B002071
S21440426045D74000A1CE400049CF4000A9D44000E9
S214404270980B0020800B002035354000000E0E4085
S2144042808C0B0020510140009A99593F2C00002089
S2144042903333B33E6666E63E9A99193F6666663F96
S2144042A02D3F400031DB4000F5D7400081DB400029
S2144042B06DDB40001D4A1268A2B9042D1ED11C4A6F
S2144042C0B2F9D3211E2A11DC1A490A68501C08602C
S2144042D0032A0EDD43F00203154AA2F8EB3104220E
S2144042E00A6006E0013A114B1A6038BD0022114BB5
S2144042F01A604FF07E52104B1A6038BD0C4AB2F925
S214404300CD2112F1310F0DDA0A490A68501C0860B7
S214404310032AEEDD43F00203054AA2F8EB310422FD
S2144043200A60E6E70022034B1A60E2E7800B0020B3
S214404330AC1300208C0B00202C0000200000000056
S21440434038B53F200C4B98470C4B98470C490D4BC3
S214404350984704460C4B984705A3D3E900230B4DDA
S214404360A84700B10A4C204638BD00BFAFF30080D6
S2144043709A9999999999D93F6DA2400045D740009E
S2144043800000C8425DD94000A1CE40002DD4400078
S214404390CDCCCC3E2DE9F04782B04E20B44CA04761
S2144043A005468DF804004F20A04706468DF80500C8
S2144043B07920A04707466B1EDBB2012B40F2BA813C
S2144043C0731EDBB2012B40F2CF81032D00F0CE816D
S2144043D0032E00F0CB810026ADE10024A54B1B78D0
S2144043E073B9E834A44B03EB4403B3F9052040F219
S2144043F0ED239A4206DC012D40F0C181112603E0F0
S2144044004F2B24D0012D3BD19C4B1A6843F6972363
S2144044109A4205D99A4B1B7813B90122984B1A70C9
S2144044204C20934B9847012800F0FC80924B93F821
S214404430ED3113F0010F00F04C818E4B1B784F2B63
S21440444000F00781002B00F00C8111261CE0E834B8
S214404450894B03EB4403B3F90530C72BCBDDD1E7DB
S2144044600024844B1B784BB9E834834B03EB44035E
S214404470B3F90530C72B03DD112605E04F2B11D0CD
S21440448016F0010F00F0DD807B4AB2F8EB3123F0E6
S2144044900103A2F8EB31802E40F24281304602B052
S2144044A0BDE8F087E834744B03EB4403B3F90520CA
S2144044B040F2ED239A42E3DD1126E5E70024E83496
S2144044C06D4B03EB4404B4F9053003339B10332B98
S2144044D040F35781FF2BA8BFFF23DBB2694A137016
S2144044E0694A13708026ACE004F1E80308EB430306
S2144044F0B3F90530B3F5AF7F05DA012F00F09080B1
S2144045003820C84725E03920604CA0473B20A047CC
S2144045103A20A04738205E4B98470FB18126B3E734
S2144045207E20534B9847044601217920594DA84791
S214404530611CC9B27E20A8478126A5E704F1E8039E
S21440454008EB4303B3F90530B3F5C87F27DA3920C3
S214404550C8470134022C93D001ABE35C012B3FF4F7
S2144045603DAF022B3FF47DAF032BA8D0A3F10B0247
S214404570D2B2032AEDD80B2BB6D00C2BDED00D2BA7
S2144045801ED00E2BE5D104F1E80308EB4303B3F944
S2144045900530B3F5C87F31DA5046C847D9E7FF2320
S2144045A0384A1370384A13703820384CA0473B209E
S2144045B0A0473A20A0473920354B9847822640E00E
S2144045C004F1E80308EB4303B3F90530B3F5C87FBD
S2144045D002DA3A20C847BCE7FF222A4B1A7000226C
S2144045E0294B1A703820294CA0473920A0473B2039
S2144045F0A0473A20264B9847832645E70022214B82
S2144046001A70FF22204B1A703820204CA0473920C1
S214404610A0473A20A0473B201D4B9847842610E0F1
S214404620812696E7144AB2F8EB31C3F30E03A2F89C
S214404630EB310023114A1360114A1370164A137067
S21440464010260D4AB2F8EB3143F00103A2F8EB31E5
S21440465021E70023094A1360094A13700E4A137073
S214404660EEE7054BB3F9D531962B17DC11260BE751
S2144046706DA24000380E0020AC1300208C0E0020A7
S214404680900B0020990B0020980B0020AD35400081
S21440469055354000FDA140006C0B00203A4B1B787E
S2144046A0002B3FF4EDAE394B1B78002B7FF4E8AE81
S2144046B0354A1370364A13600122344B1A70354A15
S2144046C0B2F8EB316FEA43436FEA5343A2F8EB315B
S2144046D0B6E7314B1B780BB11126D5E62D4BB3F917
S2144046E0D531962B01DC1126CEE6274B1B78002BC6
S2144046F03FF4C6AE254B1B78002B7FF4C1AE224A52
S2144047001370234A13600122204B1A70214AB2F8D4
S214404710EB316FEA43436FEA5343A2F8EB318FE73E
S21440472038201E4CA0473920A0473A20A0473B20BF
S214404730A047B3E61026174AB2F8EB3123F480734D
S214404740A2F8EB31012D3FF448AE022D3FF488AE7F
S214404750032D3FF4B3AE2B460024DFF838804FF0ED
S2144047603B0ADFF8389001E71026E4E7094AB2F83A
S214404770EB3143F48073A2F8EB318026E2E7112652
S21440478082E6812680E600BF900B00206C0B00205E
S2144047908C0E0020AC130020380E0020AD354000B3
S2144047A010B582B000204F4B984720B14E4BDB7976
S2144047B013F0080F0ED102204A4B984728B14A4BB7
S2144047C093F82B3013F0080F04D10120454B98473F
S2144047D0002844D0454B1B6843B9434BB3F8EB31F4
S2144047E013F03F0F3FD09622404B1A600220404CB9
S2144047F0A0470020A0470120A0473C4B1A68013A3A
S2144048001A60394BB3F8EB3123F03F039BB2002AD2
S2144048104AD1354AA2F8EB31334991F8AF21013AF3
S214404820D2B281F8AF2191F8B031013BDBB281F8CA
S214404830B031542A03D855212B4A82F8AF11542B55
S21440484003D85522284B83F8B021274B93F8AF1155
S214404850284A117093F8B021274B1A7022E0234B58
S2144048601B68002BC2D10023244A1360214A1370D0
S214404870214A13701C4A82F8AF3182F8B031B2F840
S214404880EB3123F03F03A2F8EB311D4A13680133A6
S2144048901360072B10D01A4B1B680C2B02DD0C2222
S2144048A0174B1A6002B010BD43F004030E49A1F83E
S2144048B0EB317D2AF6DCAFE70020124B9847124BCF
S2144048C01B688DF800301A0A8DF801201A0C8DF8F6
S2144048D002201B0E8DF803306A46252122200B4B02
S2144048E09847D8E751014000AC1300207C0B0020CD
S2144048F0D9014000990B0020980B0020880B00201F
S214404900840B002071B440007C0E0020BDAB4000FC
S214404910F8B5224B1B680BB3204C0F26204D1027B2
S21440492002E054F8063FCBB13046A84723681B78D0
S2144049308342F6D13846A84723685B788342F0D155
S2144049401120A84723689B788342EAD11220A847C3
S2144049502368DB788342E4D1A088F8BD0F20104E50
S214404960B04704461020B04705461120B047A0F592
S214404970A650103804EB840404EB840400EB840354
S21440498005EB850503EB45031BB223EAE37303EB14
S214404990830303EB8300800080B2F8BD0C00002048
S2144049A06DA24000000000002DE9F04F85B00C4697
S2144049B0C0F1640A0846344B9847804689462046EC
S2144049C0324B9847CDE90001314D05EB4A15314C45
S2144049D0D5E9002340464946A04742464B46A047B5
S2144049E0DDE90023A0472C4EB0472C4FB8478246FF
S2144049F08B46D5E9022340464946A047DDE90023D9
S214404A00A047DFF8B08002460B4650465946C0479E
S214404A10CDE90201D5E90423DDE90001A04782463D
S214404A208B46DDE90201B047B84702460B46504682
S214404A305946C047B047B847D5E90623C047B047B0
S214404A400546174B9847174B9847B8470CA3D3E9EA
S214404A500023A047B047044601462846124B9847D5
S214404A6028B912492846124B984720B10F4C204689
S214404A7005B0BDE8F08F2C46F9E700BFAFF30080E5
S214404A801F85EB51B81EF13F5DCE40007DCE400005
S214404A90781C410049CF400039D54000A1CE4000A7
S214404AA01149400045D740006DDB400000002041E2
S214404AB031DB4000E5CB4000754BB3F9DB31754A3E
S214404AC011880B445B1013801BB2772B00DC7047B9
S214404AD02DE9F047074612206F4B9847002872D0C2
S214404AE06B4BB3F95381B8F5487FA8BF4FF448786D
S214404AF0B8F1000FB8BF4FF00A08684BA3F8008023
S214404B00674B98470646674C3846A0476649674B0A
S214404B10984705463046A04701462846644B984786
S214404B2082465B4B93F8AF01A047624B984754A32D
S214404B30D3E90023604CA047604B98475FFA80F962
S214404B405F4B98475F4950465F4B984700283CD19B
S214404B505E4D02245C4E55F8041F5046B04710B9CF
S214404B6001343D2CF7D1C4F16504A4B21FFA89F391
S214404B709C422CD84046564B98475649564B9847E9
S214404B80564B984781B24846554B9847554B9847A1
S214404B90554B1880554A13780133DBB213703C2BC3
S214404BA011D93B4B93F8AF31BA1E90453BD2B8EB88
S214404BB0570F1BDA0133E2214C4A1170FF2BA8BF76
S214404BC0FF234B4A1370BDE8F0870124CBE71FFA5A
S214404BD088F1E0B2424B9847364B98472AA3D3E930
S214404BE00023444CA047444B9847CFE7A7EB970198
S214404BF0414504DD0133EC213C4A1170DEE7A7EB6A
S214404C00D701414504DD0133F621384A1170D5E716
S214404C1007EB87013948A0FB0101A7EB5117474531
S214404C20A8BF0133CAE7BA1C9045CAD907EB57025A
S214404C30424507DA013BE2212C4A1170342BB8BFBB
S214404C403423BEE707EB9702424504DA013BEC21EA
S214404C50264A1170F2E707EBD702424504DA013BD9
S214404C60F621224A1170E9E707EB87022348A0FBAA
S214404C70020207EB52174745A8BF03F1FF33DDE7B3
S214404C806666666666660440666666666666EE3FA6
S214404C90AC130020401000202D014000EA0A0020FE
S214404CA01149400045D7400000007A445DD9400095
S214404CB0F5D74000A1CE40009DD14000F9D4400039
S214404CC0414340001740C7446DDB40003424410058
S214404CD04DD74000DD499F3CE1D54000CDDB40004C
S214404CE0A949400081DB4000140A0020750B0020D3
S214404CF0990B002049CF400039D540001F85EB5125
S214404D00754BB3F9E131754A11880B445B1013803B
S214404D101BB2772B00DC70472DE9F0470746112081
S214404D206F4B9847002872D06B4BB3F94181B8F56A
S214404D30487FA8BF4FF44878B8F1000FB8BF4FF08F
S214404D400A08684BA3F80080674B98470646674CAE
S214404D503846A0476649674B984705463046A047C1
S214404D6001462846644B984782465B4B93F8B00111
S214404D70A047624B984754A3D3E90023604CA04712
S214404D80604B98475FFA80F95F4B98475F495046BB
S214404D905F4B984700283CD15E4D02245C4E55F848
S214404DA0041F5046B04710B901343D2CF7D1C4F12A
S214404DB06504A4B21FFA89F39C422CD84046564B51
S214404DC098475649564B9847564B984781B248465F
S214404DD0554B9847554B9847554B1880554A13782E
S214404DE00133DBB213703C2B11D93B4B93F8B031F7
S214404DF0BA1E90453BD2B8EB570F1BDA0133E2217F
S214404E004C4A1170FF2BA8BFFF234B4A1370BDE8D6
S214404E10F0870124CBE71FFA88F1E0B2424B98476F
S214404E20364B98472AA3D3E90023444CA047444B2B
S214404E309847CFE7A7EB9701414504DD0133EC21C6
S214404E403C4A1170DEE7A7EBD701414504DD01334C
S214404E50F621384A1170D5E707EB87013948A0FBA1
S214404E600101A7EB51174745A8BF0133CAE7BA1C53
S214404E709045CAD907EB5702424507DA013BE22183
S214404E802C4A1170342BB8BF3423BEE707EB970289
S214404E90424504DA013BEC21264A1170F2E707EB63
S214404EA0D702424504DA013BF621224A1170E9E76F
S214404EB007EB87022348A0FB020207EB5217474541
S214404EC0A8BF03F1FF33DDE76666666666660440A4
S214404ED0666666666666EE3FAC13002040100020AD
S214404EE02D014000EC0A00201149400045D7400003
S214404EF000007A445DD94000F5D74000A1CE40007E
S214404F009DD14000F9D44000414340001740C7447B
S214404F106DDB4000342441004DD74000DD499F3CC6
S214404F20E1D54000CDDB4000A949400081DB400090
S214404F30140A0020750B0020980B002049CF400033
S214404F4039D540001F85EB512DE9F047904B9A88A4
S214404F50DA80598899801C885C808E4DB5F9DB5183
S214404F601D802C4421440A4412B2B2F5177F06DB5A
S214404F70894A13780133DBB21370062B01D8BDE89B
S214404F80F0870446854B9847854DA847804620467F
S214404F90A8478449844B98474146844B98470646E1
S214404FA07C4B93F8AF01A847814B984774A3D3E94D
S214404FB00023804CA047804B98475FFA80FA7F4B8F
S214404FC098477F4930467F4B984700BB7E4D02242A
S214404FD07C4F55F8041F3046B84718B90134E4B240
S214404FE03D2CF6D1C4F16504A4B26A4BB3F9AB00CC
S214404FF0764B984781467649724B984748B9002188
S2144050004846744B984730B1DFF81C9203E00124C1
S214405010E8E7DFF8BC9148466F4B98475D4BA3F8EE
S214405020C3011FFA8AF5AC427ED86C4948466C4BA1
S2144050309847DFF8EC91C84781B25046694B98478D
S2144050400746544B93F8AF31674A1370674A13705C
S214405050C847674A136813FA80F01060654A1368B9
S21440506001331360072B7CDC4B4B1B780B2B86D90C
S214405070394630465A4B984707460022464B1A70E8
S21440508040464B4B984700225B4B5C4EB047002255
S2144050905B4B5C4EB04700225B4B464EB0475B4B8B
S2144050A09847064601463846594B984738B906F160
S2144050B000413846574B984700283FF460AF564962
S2144050C030463A4B9847804601463846504B9847BC
S2144050D0002800F0AB800535642D28BF6425A8B2B3
S2144050E0A04238BF20462E4B9847314DA84726A3AE
S2144050F0D3E90023434CA047444CA047A84720A3ED
S214405100D3E900233D4DA847A047044643492D4BCD
S214405110984700B1414C2046414B9847C0B2324B6D
S2144051201870324B18702AE748463D4B984781B274
S214405130E0B22C4B984720463A4B984712A3D3E907
S2144051400023304CA0470EA3D3E900232B4CA047A6
S214405150194B9847C0B2244B1870244B1870BDE8C2
S214405160F08790FBF3F10B4AA2F8C5115B10214A79
S214405170136040101E4B186076E700BFAFF3008008
S2144051806666666666660440CDCCCCCCCCCCDC3F4E
S21440519040100020AC130020740B00201149400042
S2144051A045D7400000007A445DD94000F5D740001E
S2144051B0A1CE40009DD14000F9D44000414340007C
S2144051C01740C7446DDB4000342441004DD74000B3
S2144051D00000484431DB400081DB4000541CC73CA3
S2144051E0E1D54000A9494000990B0020980B0020CB
S2144051F0700B0020940B00200000144049CF400064
S21440520000004940E5CB40000000594039D54000F9
S21440521059DB400045DB40000000404000007F4333
S214405220CDDB40007DCE4000000020413146304678
S214405230124B9847064601463846114B984708B1E8
S214405240023549E7002138460E4B984708B10135EC
S21440525042E708F1004138460B4B984710B1053DF0
S214405260ADB239E706F100413846074B984710B1D2
S214405270023DADB230E7013DADB22DE7E5D5400089
S21440528059DB40006DDB400031DB40000000000091
S21440529010B50B4B98470B4B984707A3D3E9002311
S2144052A0094CA047094B9847C0B2094B1870094BA8
S2144052B0187010BDAFF3008052B81E85EB51D03F3A
S2144052C045D74000A1CE400049CF4000F9D4400029
S2144052D0990B0020980B00202DE9F04F83B050200A
S2144052E0A34B984798B9A34B93F82B3013F0080F6D
S2144052F020D111209E4B984768B100239E4A1370D8
S2144053009E4A13709B4A82F8AF3182F8B031012032
S21440531003B0BDE8F08F1220954B98470028ECD19B
S2144053201020934B98470028E7D11320904B98477E
S2144053300028E2D12E20924B9847044610F4804F26
S21440534004D008208F4B984700285BD116208D4B01
S214405350984718B917208B4B984718B34C208A4B60
S2144053609847F8B9894B1A68894B9A421AD900224D
S214405370864B1A60874B1B7813B9874B1B788BB1CB
S214405380864B1B7813B9864B1B785BB10023834A48
S2144053901370834A1370774AB2F8EB3143F4804374
S2144053A0A2F8EB3114F4004F58D1724AB2F8EB3100
S2144053B023F48043A2F8EB3100227A4B1A607A4BF2
S2144053C0984705465020704EB0475020B047812D34
S2144053D000F00A81112D00F007814FFA85F8B8F1E8
S2144053E0000F7DDB4C20B047624B93F8ED3103F065
S2144053F00303032B71D1002872D101214C206B4B43
S21440540098476DE05B4CB4F8EB3143F00103A4F8E9
S214405410EB317C20DFF870A1D047574DDFF8C091C4
S214405420C847DFF8C081C047614F4FA3D3E9002388
S214405430B847604EB04728707B20D047C847C04723
S21440544049A3D3E90023B847B047C0B24B4B1870C6
S2144054502B7884F8AF3184F8B00158E71620494BD2
S214405460984700B34F4B1A68534B9A4222D8414B49
S214405470B3F8EB2142F48042A3F8EB21CC223E491C
S2144054800A703E490A7083F8AF2183F8B0210023A2
S214405490424A13703F4A13703F4A1370474A13609C
S2144054A0474A136033E71720364B984700283FF4A7
S2144054B07CAFD7E7C4F30E0400223A4B1A603A207A
S2144054C0314B9847054621462E203E4B9847691C4F
S2144054D0C9B23A20354B984771E7002800F08480DF
S2144054E0394B1B78002B00F082800022374B1A6025
S2144054F04FF48042364B5A631E4AB2F8EB3143F0C3
S2144055000101A2F8EB11334A1268182A73DC013203
S21440551030490A60552613F0400F71D113F4005FEE
S2144055207FF4F5AEB8F1000FC0F2EF82114B93F85E
S214405530ED3113F0010F75D013F0020F00F08C80A0
S2144055409F0914F0400F61D06120DFF83480C047D7
S21440555081465D20C047804648461F4B9847404698
S2144055601E4B984778E000BF6666666666660440EF
S21440557035354000AC130020990B0020980B0020D6
S21440558079A24000750140006DA240002C0E00201C
S214405590FFDC6D00E80A0020E90A0020E00A00204F
S2144055A0E10A0020280E002095434000FDA140005F
S2144055B049CF4000F9D4400040771B00180E002029
S2144055C0200E002015A24000380E0020840B00203C
S2144055D0000E0E40880B0020014D4000B94A4000A6
S2144055E045D74000A1CE4000B34B98478FE64F20AA
S2144055F0B24B98478BE61A21B14A116040268AE79B
S214405600B04B83F8AF6183F8B06180E678005330E2
S21440561080B2AD4B984714F0800F14BFAB4BAC4BE9
S214405620984719E05220AB4B9847032828BF0320E1
S214405630074614F0400F40D114F0800F05D0A14B20
S214405640B3F8EB3113F4606F46D07800533080B235
S2144056509D4B98479E4B984714F0010F44D19E4B64
S2144056609847984BB3F8EB3113F0020F02D114F081
S214405670400F3CD023F00803924AA2F8EB3114F0D6
S214405680C00F00F0FB827D35EDB2012D0BD9934B58
S2144056901B78B3423CBF914B1E70914B1B78B34274
S2144056A03CBF8F4B1E70874B8C4A127883F8AF21D5
S2144056B08B4A127883F8B02129E66120DFF8088209
S2144056C0C04781465D20C04780464846854B984740
S2144056D04046854B9847BFE74000533080B27A4BF0
S2144056E098477A4B9847B7E7804B9847B7E77B4B46
S2144056F093F800A007207E4B984728B1714BB3F82B
S214405700F23113F0010F4BD06E4AB2F8EB3123F46E
S2144057100063A2F8EB314FF000090520744B984720
S214405720002800F09B80674BB3F8F23113F0010F6E
S21440573000F09B80634AB2F8EB3123F40073A2F882
S214405740EB3103206A4B9847002800F004815D4BFC
S214405750B3F8F23113F0010F00F00481594AB2F861
S214405760EB3123F48063A2F8EB31B9F1000F40F03F
S21440577041810A22534B83F8B12114F0020F40F0C6
S2144057808E81504AB2F8EB3123F01003A2F8EB3189
S2144057904C4BB3F8EB3113F0020F00F0C18169E7D0
S2144057A06920494B9847C31F9BB2532B19D80928E9
S2144057B027D8031F0FFA83FECAF58073C3F38F03FF
S2144057C0404AB2F9BF21824226DD3E4AB2F8EB316A
S2144057D043F40063A2F8EB314FF001094FF0FF0AA3
S2144057E09BE70A216920434B98470F20A0F10A0304
S2144057F00FFA83FECAF580730A22B3FBF2F39BB21C
S214405800DEE70E28F2D80FFA83FECAF58073072229
S214405810B3FBF2F39BB2D3E7964515DA2948B0F8C6
S214405820EB1141F40061A0F8EB11A2EB0E022B49FC
S214405830097803FB0213FF2B28BFFF239A4538BF86
S2144058409A464FF0010968E71E4AB2F8EB3123F456
S2144058500063A2F8EB314FF000095EE70620244BC8
S214405860984700283FF466AF5DE76820194B984795
S21440587080B2A0F114039BB24F2B3DD8312840D8BC
S214405880A0F10A0319B2CAF580730A22B3FBF2F3F9
S2144058901FFA83FE0B4BB3F9BD3183423CDB094A0A
S2144058A0B2F8EB3143F40073A2F8EB314FF0010944
S2144058B04FF0FF0A45E700BFA147400071B44000E3
S2144058C0880B0020AC13002079A24000494F4000CE
