:020000040800F2
:10000000E00A00208901000865320008452C00083C
:100010006132000889040008713C000800000000FB
:10002000000000000000000000000000553400083F
:10003000A704000800000000673200080D35000822
:10004000A3010008A3010008A3010008A301000800
:10005000A3010008A3010008A3010008A3010008F0
:10006000A3010008A3010008A3010008A3010008E0
:10007000A3010008A3010008A3010008A3010008D0
:10008000A3010008A301000891020008A3010008D1
:10009000A3010008A3010008A30100081D05000832
:1000A000A3010008A3010008A3010008A3010008A0
:1000B0005136000861360008A3010008A3010008BA
:1000C000A3010008A3010008A3010008A301000880
:1000D000A3010008613C0008A3010008A301000877
:1000E000A3010008A3010008A301000800F002F822
:1000F00000F03AF80AA090E8000C82448344AAF188
:100100000107DA4501D100F02FF8AFF2090EBAE885
:100110000F0013F0010F18BFFB1A43F0010318473B
:100120005C4700007C470000103A24BF78C878C1C3
:10013000FAD8520724BF30C830C144BF04680C60ED
:10014000704700000023002400250026103A28BF35
:1001500078C1FBD8520728BF30C148BF0B60704739
:100160001FB51FBD10B510BD00F058F81146FFF7C0
:10017000F7FF03F0DBFE00F076F803B4FFF7F2FFC1
:1001800003BC00F07DF8000009488047094800479B
:10019000FEE7FEE7FEE7FEE7FEE7FEE7FEE7FEE737
:1001A000FEE7FEE704480549054A064B7047000094
:1001B0004D360008ED000008E0040020E00A0020B1
:1001C000E0060020E00600204FF0000200B51346D4
:1001D00094469646203922BFA0E80C50A0E80C5067
:1001E000B1F12001BFF4F7AF090728BFA0E80C5018
:1001F00048BF0CC05DF804EB890028BF40F8042B11
:1002000008BF704748BF20F8022B11F0804F18BF7D
:1002100000F8012B7047704770477047754600F033
:100220002BF8AE4605006946534620F00700854688
:1002300018B020B5FFF7B6FFBDE820404FF000062C
:100240004FF000074FF000084FF0000B21F00701BE
:10025000AC46ACE8C009ACE8C009ACE8C009ACE801
:10026000C0098D46704710B50446AFF300802046A4
:10027000BDE81040FFF781BF004870477C040020B4
:1002800001491820ABBEFEE72600020070470000BF
:1002900010B5024800F078FB10BD00007C00002083
:1002A00070B5044600252068806800F0010018B38E
:1002B0002068806820F001002168886000F034FF29
:1002C000054613E000F030FF401B02280ED92068DD
:1002D000806800F0010048B1A06A40F01000A06200
:1002E000E06A40F00100E062012070BD2068806893
:1002F00000F001000028E5D10020F6E738B50446FB
:100300000025002000902068806800F0010078BB84
:100310002068806840F00100216888601948006802
:100320001949B0FBF1F0009002E00098401E0090E7
:1003300000980028F9D100F0F7FE054619E000F01A
:10034000F3FE401B022814D92068806800F00100E9
:1003500078B9A06A40F01000A062E06A40F00100A5
:10036000E06200BF002084F8240000BF012038BDF7
:1003700005E02068806800F001000028DFD0002040
:10038000F5E700007800002040420F0010B5364825
:100390000078002867D00121344800F029FA344958
:1003A00008600221314800F023FA324908603048E1
:1003B0000068C0EB802040F6FF71B0FBF1F02C49E3
:1003C00008602C480068C0EB802040F6FF71B0FB4D
:1003D000F1F0284908602848006825490968084460
:1003E00025490860084640682249096808442249AE
:1003F000486022480068401C2049086008460068A0
:1004000080282AD31C480068C0091D4908601A4882
:100410004068C0094860184800680009164908602B
:1004200008464068000948601448006800091349FC
:10043000086013484068C0EBC00040000D21B0FBCD
:10044000F1F0104908630E480068C0EBC00040009E
:100450000D21B0FBF1F00B49486300200249087000
:10046000024800F0DFF910BD020000207C000020EF
:100470002000002024000020140000201C00002088
:10048000080000203002002000BFFEE710B5024641
:100490000B460021002402E0505C0444491C9942B0
:1004A000FADBE04310BD704710B500241348007814
:1004B00018B300201149087001221103104800F000
:1004C0002DFE012251030E4800F028FE00BF07E078
:1004D00000210C4840F824100C3040F82410641C13
:1004E000032CF5DB0020084908600849086008492A
:1004F0000870084908700849086010BD58000020BD
:10050000000C014038020020400000203C00002088
:10051000390000203A0000205000002010B5402093
:1005200000F04CFC802000F049FC10BD10B501200B
:100530000649087000220103054800F0EFFD002283
:100540004FF40051024800F0E9FD10BD58000020B2
:10055000000C014070470000002003E00021084A21
:100560001154401C4028F9DB7321054A11706D219C
:1005700051701B2191700121D1704621117170477A
:100580003C03002038B5024600230020009090680C
:1005900000B100BF00BF92F82400012801D1022061
:1005A00038BD012082F8240000BF906890B94868E7
:1005B000012809D11068806B6FF315000C6840EAC0
:1005C000C4301468A06338E0906A40F02000906264
:1005D000012332E00C694868A0421ED84C680869C3
:1005E000001BC0F1030000EB80041F20A04040F47A
:1005F00040141068806BA0434D680C69641BC4F103
:10060000030404EB84050C68AC400D8A6D1E44EABB
:10061000055420431468A0630FE04C680869001B70
:10062000C0F1030000EB80041F20A04040F4401400
:100630001068806BA0431468A0631068806800F0A5
:10064000010040B91068806847F20104A0438C693A
:1006500020431468A060487D01280FD18869B0F557
:10066000E04F06D11068406840F480601468606014
:1006700004E0906A40F0200090620123087D012888
:100680000DD1487D30B91068406840F4805014683E
:10069000606004E0906A40F02000906201230868E6
:1006A0000A2812D31068C0680C780A3C04EB440591
:1006B0000724AC40A0430D780A3D05EB45058C6846
:1006C000AC4020431468E0600FE0106800690C78CB
:1006D00004EB44050724AC40A0430D7805EB450529
:1006E0008C68AC402043146820610868102802D050
:1006F0000868112805D11068806840F4000014686B
:10070000A0604868012806D002280DD0032814D024
:1007100004281BD11BE0106840696FF30B00CC6804
:100720002043146860611BE0106880696FF30B0060
:10073000CC6820431468A06112E01068C0696FF3B0
:100740000B00CC6820431468E06109E000BF10682A
:10075000006A6FF30B00CC6820431468206200BF6E
:1007600000BF0868102802D00868112827D1174C4C
:100770001068A0421ED11068806800F40000F0B933
:100780001068806840F400001468A06008681028B1
:1007900015D10F4800680F4CB0FBF4F000EB80005F
:1007A0004000009002E00098401E00900098002851
:1007B000F9D104E0906A40F020009062012300BF6C
:1007C000002082F8240000BF1846E9E6002401401A
:1007D0007800002040420F0010B50446204600F08B
:1007E0009DF801200149087010BD000002000020A2
:1007F0000246002001290FD0022909D0032904D084
:10080000042908D11368986C09E01368586C06E055
:100810001368186C03E000BF1368D86B00BF00BFFB
:100820007047000070B50446002500BF94F824000E
:10083000012801D1022070BD012084F8240000BFEE
:100840002046FFF75BFD0546002D5BD1A06A42F212
:100850000101884340F48050A0622E4920688842FC
:1008600008D12D48006800F4702008B9012002E08A
:10087000002000E0012020B1A06A20F48010A062D6
:1008800003E0A06A40F48010A062A06A00F48070C7
:1008900008B90020E06200BF002084F8240000BFF7
:1008A000401F216808602068406840F0800021688F
:1008B00048602068406800F4806010BB2068806851
:1008C00000F4E040B0F5E04F15D1124920688842AD
:1008D00008D11148006800F4702008B9012002E036
:1008E000002000E0012030B12068806840F4021050
:1008F000216888600BE02068806840F4004021682F
:10090000886004E000BF002084F8240000BF28466F
:1009100091E70000002801400424014070B504461E
:10092000002500BF94F82400012801D1022070BDE9
:10093000012084F8240000BFA06A00F48070B0B9E0
:100940002068406800F4806088B92046FFF7A8FC62
:1009500005468DB92068406820F080002168486015
:10096000A06A20F4885040F00100A06204E0A06A70
:1009700040F02000A062012500BF002084F8240080
:1009800000BF2846D3E7704710B50446206840688A
:1009900000F0200020282FD12068006800F002001D
:1009A000022829D1A06A00F0100018B9A06A40F40A
:1009B0000070A0622068806800F46020B0F5602FAD
:1009C00013D1207B88B92068406820F0200021687E
:1009D0004860A06A20F48070A062A06A00F4805091
:1009E00018B9A06A40F00100A0622046FFF7CBFFD3
:1009F0006FF01200216808602068406800F08000F5
:100A000080283BD12068006800F00400042835D11C
:100A1000A06A00F0100018B9A06A40F40050A0626B
:100A20002068806800F4E040B0F5E04F0DD0206809
:100A3000406800F48060D0B92068806800F46020CD
:100A4000B0F5602F13D1207B88B92068406820F072
:100A5000800021684860A06A20F48050A062A06AEB
:100A600000F4807018B9A06A40F00100A06220462E
:100A7000FFF7B2FE6FF00C00216808602068406844
:100A800000F0400040280FD12068006800F001000D
:100A900050B1A06A40F48030A062204600F0A8F86F
:100AA0006FF001002168086010BD00002DE9F041E1
:100AB0000446002700250026A84614B90120BDE8F9
:100AC000F081A06810B1207D00B100BFA06A30B9EC
:100AD0000020E06284F82400204600F08BF82046D5
:100AE000FFF7DEFB0746A06A00F01000002873D174
:100AF000002F71D1A06A20F4885040F00200A0625B
:100B0000E16960680843217B40EA41000643A06830
:100B1000B0F5807F02D0A068012802D14FF4807028
:100B200000E000200543207D012811D1207B38B949
:100B3000A069401E4FF4006141EA4030054307E0E0
:100B4000A06A40F02000A062E06A40F00100E0628C
:100B50002068406820F46940284321684860206884
:100B6000806821490840304321688860A068B0F55A
:100B7000807F02D0A068012802D14FF4807000E08D
:100B80000020B0F5807F03D1208A401E4FEA005834
:100B90002068C06A20F4700040EA08002168C8623A
:100BA0002068806811490840B04208D10020E06206
:100BB000A06A20F0020040F00100A06211E0A06AEB
:100BC00020F0020040F01000A062E06A40F0010056
:100BD000E062012705E0FFE7A06A40F01000A06294
:100BE000012738466BE70000FDF7E1FFFE0E1FFF0F
:100BF0007047000010B586B00446002002900390B4
:100C0000049005901849206888422AD100BF1748EF
:100C1000806940F40070154988610846806900F4D5
:100C20000070019000BF00BF00BF0846806940F01F
:100C3000040088610846806900F00400019000BF4C
:100C400000BF062002900320039002A9084800F08C
:100C5000C3F800221146122000F0F4FA122000F02E
:100C6000E1FA06B010BD000000240140001002406F
:100C7000000801400146002291F82100022808D016
:100C80000420886300BF002081F8200000BF0120FD
:100C900070470868006820F00E000B68186008684C
:100CA000006820F001000B68186091F840300120C6
:100CB0009840CB6B5860012081F8210000BF0020D4
:100CC00081F8200000BF1046E2E7000070B504463E
:100CD000002594F82100022803D00420A0630125F8
:100CE00048E02068006820F00E0021680860206855
:100CF000006820F00100216808601F4920688842D0
:100D000001D1012026E01C4914312068884201D11C
:100D100010201FE0184928312068884201D1801531
:100D200018E015493C312068884201D1801411E057
:100D3000114950312068884202D14FF4803009E0D7
:100D40000D4964312068884202D14FF4801001E0DF
:100D50004FF08070084908394860012084F821006C
:100D600000BF002084F8200000BF606B10B1204657
:100D7000616B8847284670BD0800024070B5044684
:100D800000F0D2F906462546681C10B104480078E8
:100D9000054400BF00F0C8F9801BA842FAD370BD1B
:100DA0007400002010B50446402C01D101F04CFF26
:100DB000802C01D101F084FF10BD000010B5044665
:100DC00004480068204020B1024804602046FFF734
:100DD000E9FF10BD140401402DE9F8470346002245
:100DE00094466EE14FF0010808FA02F4D1F8008051
:100DF00008EA0400A0427DD1DFF8DCA2D1F804802B
:100E0000A8EB0A09D0453AD014DCB8F1030F50D052
:100E100009DCB8F1000F31D0B8F1010F1CD0B8F1E6
:100E2000020F49D120E0B8F1110F18D0B8F1120F1C
:100E300042D11EE0B9F5881F25D006DCB9F5803F08
:100E400020D0B9F5801F37D11AE0B9F5001F18D0AE
:100E5000B9F5041F30D117E0D1F80CC02DE0D1F85E
:100E60000C8008F1040C28E0D1F80C8008F1080C83
:100E700023E0D1F80C8008F10C0C1EE000BF00BF8D
:100E800000BF00BF00BF00BFD1F80880B8F1000F5D
:100E900002D14FF0040C0BE0D1F80880B8F1010F3B
:100EA00003D14FF0080C1C6102E04FF0080C5C61AC
:100EB00003E04FF0000C00E000BF00BFFF2801D8A6
:100EC000984601E003F104084646FF2802D84FEA9D
:100ED000820803E0A2F108084FEA88084746D6F8DE
:100EE00000804FF00F0909FA07F928EA09080CFAFF
:100EF00007F900E088E048EA0908C6F80080D1F860
:100F0000048008F08058B8F1805F7DD100BFDFF821
:100F1000CC81D8F8188048F00108DFF8C091C9F8F2
:100F20001880C846D8F8188008F00108CDF800806D
:100F300000BF00BF4FEAB9384FEA920958F829506C
:100F40004FEA82784FEA18794FF00F0808FA09F84B
:100F500025EA0805DFF88881434502D14FF00008F3
:100F600016E0DFF88081434502D14FF001080FE021
:100F7000DFF87481434502D14FF0020808E0DFF842
:100F80006C81434502D14FF0030801E04FF00408A3
:100F90004FEA82794FEA197908FA09F848EA050513
:100FA000DFF84C814FEA920948F82950D1F80480C3
:100FB00008F48038B8F5803F0AD1DFF83881D8F8D6
:100FC000008048EA0008DFF82C91C9F8008009E0A9
:100FD000DFF82081D8F8008028EA0008DFF81491B3
:100FE000C9F80080D1F8048008F40038B8F5003F53
:100FF00010D1DFF8008108F10408D8F8008048EA31
:101000000008DFF8F09000E05AE009F10409C9F89F
:1010100000800DE0DFF8DC8008F10408D8F80080DB
:1010200028EA0008DFF8CC9009F10409C9F800802B
:10103000D1F8048008F48018B8F5801F0ED1DFF8CD
:10104000B48008F10808D8F8008048EA0008DFF802
:10105000A49009F10809C9F800800DE0DFF8948038
:1010600008F10808D8F8008028EA0008DFF8849022
:1010700009F10809C9F80080D1F8048008F40018C3
:10108000B8F5001F0ED1DFF86C8008F10C08D8F815
:10109000008048EA0008DFF85C9009F10C09C9F803
:1010A00000800DE0DFF84C8008F10C08D8F80080D3
:1010B00028EA0008DFF83C9009F10C09C9F8008023
:1010C000521CD1F8008028FA02F8B8F1000F7FF422
:1010D00089AEBDE8F8870000000011100010024042
:1010E00000080140000C01400010014000140140C4
:1010F0000800014000040140024693680B400BB118
:10110000012000E00020704710B5C26821EA020308
:1011100002EA010443EA0443036110BD0AB101611C
:1011200001E00B040361704701480068704700004C
:101130006C00002001464AF6AA200A6810600020D0
:1011400070470000034800680349097808440149D2
:10115000086070476C0000207400002010B508483B
:10116000006840F0100006490860032000F0A8F86D
:10117000002000F007F800F02BF8002010BD000060
:101180000020024070B504460E4800784FF47A7192
:10119000B1FBF0F00C490968B1FBF0F5284600F00E
:1011A000CDFE08B1012070BD102C07D200222146CF
:1011B000501E00F047F80548046001E00120F2E706
:1011C0000020F0E77400002078000020700000206C
:1011D00008B500BF1148806940F001000F498861DF
:1011E0000846806900F00100009000BF00BF00BF0A
:1011F0000846C06940F08050C8610846C06900F0E8
:101200008050009000BF00BF00BF0549486820F033
:10121000E06040F00070486000BF08BD0010024070
:101220000000014001460846002809DB00F01F03CA
:1012300001229A4043099B0003F1E023C3F80021F7
:1012400000BF70472DE9F05F80460D461646002727
:1012500002F010FD074639462A46334601F00700E2
:10126000C0F1070ABAF1040F02D94FF0040A01E0F5
:10127000C0F1070AD14600F1040ABAF1070F02D201
:101280004FF0000A01E0A0F1030AD4464FF0010A32
:101290000AFA09FAAAF1010A0AEA020A0AFA0CFA97
:1012A0004FF0010B0BFA0CFBABF1010B0BEA030B3C
:1012B0004AEA0B042146404602F0E4FCBDE8F09FF8
:1012C00000BF00F00702064B19684FF6FF031940F4
:1012D000044B0B4343EA0221014B196000BF7047E6
:1012E0000CED00E00000FA0501200149086270479A
:1012F00000000E422DE9F04385B006463BA30FCB1C
:1013000001AC0FC43DA0006800904FF0000800251C
:1013100000270024A146012E30D0022E55D0102ED9
:101320005ED137484468006800F0807000B301A8BF
:10133000C4F38341475C04F4803070B130484068A6
:10134000C0F340401DF8008004F4803040B12D48C7
:10135000B0FBF8F000FB07F502E02B4807FB00F5B7
:101360002748406800F48000B0F5800F01D1A946FD
:1013700003E068000321B0FBF1F932E02048046A81
:1013800004F44070B0F5807F05D104F0020010B184
:101390004FF4004918E004F44070B0F5007F07D125
:1013A0001748406A00F0020010B149F640490BE0CE
:1013B00004F44070B0F5407F06D11148006800F495
:1013C000003008B14FF224490BE000F099F90C49C4
:1013D0004968C1F38131491C4900B0FBF1F900E0D3
:1013E00000BF00BF484605B0BDE8F0830203040516
:1013F000060708090A0B0C0D0E0F10100102000061
:101400000010024000127A0000093D00F8B50446C1
:1014100000260025207800F0010000286BD000276E
:101420004348C06900F0805070B900BF4048C069AF
:1014300040F080503E49C8610846C06900F08050C5
:10144000009000BF00BF01273A48006800F4807098
:10145000B0B93848006840F4807036490860FFF73A
:1014600063FE064606E0FFF75FFE801B642801D995
:101470000320F8BD2F48006800F480700028F2D0E7
:101480002B48006A00F440752DB3A08800F440702A
:10149000A84220D02648006A20F440750120264941
:1014A0000860002008602248056205F0010090B144
:1014B000FFF73AFE064608E0FFF736FE801B41F2D2
:1014C0008831884201D90320D3E71948006A00F027
:1014D00002000028F0D01648006A20F440706168CD
:1014E000084313490862012F04D10846C06920F05F
:1014F0008050C86100BF207800F00200022807D1A8
:101500000B48406820F44040A168084308494860FF
:10151000207800F01000102807D10548406820F41A
:101520008000E1680843024948600020A1E700000C
:1015300000100240007000404004424270B5044672
:101540000D460CB9012070BD5A48006800F0070034
:10155000A8420ED25748006820F00700284355499A
:1015600008600846006800F00700A84201D001208A
:10157000E9E7207800F0020002281DD1207800F071
:101580000400042805D14C48406840F4E0604A4912
:101590004860207800F00800082805D146484068D7
:1015A00040F46050444948604348406820F0F000EF
:1015B000A168084340494860207800F0010078B3F2
:1015C0006068012806D13C48006800F4003090B9FA
:1015D0000120B8E76068022806D13748006800F0AB
:1015E000007040B90120AEE73348006800F0020007
:1015F00008B90120A7E73048406820F0030061687F
:1016000008432D494860FFF78FFD064609E0FFF7C4
:101610008BFD801B41F28831884202D9032092E77A
:1016200007E02548406800F00C006168B0EB810FCE
:10163000EDD12048006800F00700A8420ED91D48EF
:10164000006820F0070028431A490860084600682F
:1016500000F00700A84201D0012074E7207800F0D4
:101660000400042807D11448406820F4E060E168D1
:10167000084311494860207800F00800082808D184
:101680000D48406820F46050216940EAC1000A49D1
:10169000486000F045F808494968C1F30311074A5A
:1016A000515CC8400649086006480068FFF76AFDBB
:1016B000002048E700200240001002406448000873
:1016C000780000207000002001200149C8647047A4
:1016D0000000424201480068704700007800002086
:1016E00000B5FFF7F7FF04494968C1F30221034A37
:1016F000515CC84000BD0000001002407448000862
:1017000000B5FFF7E7FF04494968C1F3C221034A66
:10171000515CC84000BD0000001002407448000841
:10172000F0B585B00FF26C0C9CE8E01001A8A0E8C1
:10173000E0101CA52D680095002100220023002444
:101740000020194D696801F00C05F5B1042D02D097
:10175000082D19D101E0154819E001ADC1F3834608
:10176000AC5D01F4803555B10F4D6D68C5F3404552
:101770001DF805200D4D6543B5FBF2F302E00C4D5D
:1017800004FB05F3184602E000BF084800BF00BF95
:1017900005B0F0BD02030405060708090A0B0C0D8D
:1017A0000E0F1010010200000010024000127A001B
:1017B00000093D00F8B504460CB90120F8BD2078B9
:1017C00000F00100002878D0F848406800F00C00D4
:1017D00004280CD0F548406800F00C00082811D10E
:1017E000F248406800F48030B0F5803F0AD1EF48FD
:1017F000006800F4003000285FD0606800285CD1E9
:101800000120DBE700BF6068B0F5803F06D1E74804
:10181000006840F48030E549086028E0606858B905
:10182000E248006820F48030E0490860084600681B
:1018300020F4802008601AE06068B0F5A02F0BD17A
:10184000DA48006840F48020D849086008460068FB
:1018500040F4803008600AE0D448006820F480300A
:10186000D24908600846006820F48020086000BF64
:10187000606888B1FFF758FC054606E0FFF754FCA6
:10188000401B642801D9032098E7C848006800F489
:1018900000300028F2D010E0FFF746FC054606E0D5
:1018A000FFF742FC401B642801D9032086E7BF48AC
:1018B000006800F400300028F2D1207800F0020027
:1018C000022857D1B948406800F00C0050B1B74821
:1018D000406800F00C00082818D1B448406800F4B3
:1018E000803098B9B148006800F0020020B120694A
:1018F000012801D0012061E7AC48006820F0F80021
:10190000616940EAC100A949086033E02069E8B193
:101910000120A7490860FFF707FC054606E0FFF72E
:1019200003FC401B022801D9032047E79F480068B9
:1019300000F002000028F2D09C48006820F0F80077
:10194000616940EAC1009949086013E000209849A4
:101950000860FFF7E9FB054606E0FFF7E5FB401BE3
:10196000022801D9032029E79048006800F002000E
:101970000028F2D1207800F0080008282DD1A069B5
:10198000B8B101208B490860FFF7CEFB054606E0A1
:10199000FFF7CAFB401B022801D903200EE783484A
:1019A000406A00F002000028F2D0012001F05CFC47
:1019B00013E000207F490860FFF7B6FB054606E00C
:1019C000FFF7B2FB401B022801D90320F6E6774857
:1019D000406A00F002000028F2D1207800F00400F4
:1019E000042873D100277148C06900F0805070B995
:1019F00000BF6E48C06940F080506C49C86108461D
:101A0000C06900F08050009000BF00BF01276A4805
:101A1000006800F48070B0B96748006840F48070D6
:101A200065490860FFF780FB054606E0FFF77CFB91
:101A3000401B642801D90320C0E65F48006800F419
:101A400080700028F2D000BFE068012806D1574816
:101A5000006A40F001005549086227E0E06858B983
:101A60005248006A20F00100504908620846006AA6
:101A700020F00400086219E0E06805280BD14B480B
:101A8000006A40F00400494908620846006A40F0D4
:101A9000010008620AE04548006A20F0010043495D
:101AA00008620846006A20F00400086200BFE0688F
:101AB000A0B1FFF739FB054609E0FFF735FB401BF6
:101AC00041F28831884202D9032077E622E0374884
:101AD000006A00F002000028EFD012E0FFF724FBBC
:101AE000054608E0FFF720FB401B41F288318842A1
:101AF00001D9032062E62D48006A00F002000028A8
:101B0000F0D1012F05D12948C06920F08050274924
:101B1000C86100BFE069C8B32448406800F00C0009
:101B2000082860D0E069022848D1002020490866D2
:101B3000FFF7FAFA054606E0FFF7F6FA401B02281F
:101B400001D903203AE61948006800F00070002827
:101B5000F2D1206AB0F5803F07D11448406820F4E4
:101B60000030A168084311494860D4E908010843DE
:101B70000E49496821F4741108430C49486001205A
:101B80000B490866FFF7D0FA054607E03DE0FFF78E
:101B9000CBFA401B022801D903200FE60348006856
:101BA00000F000700028F2D02FE00000001002408A
:101BB000000042428004424200700040002014496C
:101BC0000866FFF7B1FA054606E0FFF7ADFA401BDD
:101BD000022801D90320F1E50E48006800F00070EA
:101BE0000028F2D111E0E069012800D1E6E50948BA
:101BF000466806F48031206A814204D106F47011EF
:101C0000606A814201D00120D8E50020D6E50000BD
:101C1000000042420010024070B5044600250CB995
:101C2000012070BD607C20B900202074204600F0A7
:101C30005BF802206074204600F060F918B10420BF
:101C400060740120EDE7204601F02DFB18B104205F
:101C500060740120E5E72068406820F007002168F3
:101C60004860A06828B11F48006820F001001D49A5
:101C700008601C48001F006820F46070A1680843D9
:101C80001849091F08606068401C08B1656809E0D0
:101C90000120FFF72FFB05461DB9042060740120C9
:101CA000BFE76D1E2068806820F00F0040EA1540F5
:101CB000216888602068C06865F30F002168C860EB
:101CC000204601F00DFB18B1042060740120A8E744
:101CD0000021E17301216173A17301206074002070
:101CE0009FE70000306C004038B504460B4920687F
:101CF000884212D1FFF7F8FA00BF0948C06940F0E6
:101D000000600749C8610846C06900F000600090A3
:101D100000BF00BF01200349086038BD0028004013
:101D2000001002403C0442422DE9F04704460D46B3
:101D3000904600260027B14604B115B90120BDE840
:101D4000F08700BF207C012801D10220F7E70120A5
:101D5000207400BF02206074B8F1000F06D1E9784A
:101D6000E17369786173A978A1730BE0E87801F0F9
:101D70008FFAE073687801F08BFA6073A87801F04D
:101D800087FAA073A27B617BE07B01F0ECFA207301
:101D9000207B2870204601F0CCFA06464FF46160A3
:101DA000B6FBF0F9B9F1180F2FD91820B9FBF0F0F4
:101DB00000EB4000C000C0EB4011C1EB0020A6EBDF
:101DC00000163146204601F027FB38B1042060742C
:101DD00000BF0020207400BF0120B0E7204601F0C2
:101DE0009CFA0746781C80B1B7420ED20B480744D4
:101DF0003946204601F0F9FA38B10420607400BF7A
:101E00000020207400BF012099E70120607400BF0A
:101E10000020207400BF00BF91E700008051010046
:101E20002DE9F04704460D4690460026002704B1F0
:101E300015B90120BDE8F08700BF207C012801D141
:101E40000220F7E70120207400BF02206074B8F17F
:101E5000000F0BD128784FF4616148436978C1EBDA
:101E6000011100EB8100A978461812E0287801F0F2
:101E70000FFA4FF4616100FB01F9687801F008FA8C
:101E8000C0EB001009EB8009A87801F001FA09EB1A
:101E900000063146204601F0BFFA38B104206074D4
:101EA00000BF0020207400BF0120C3E72068406805
:101EB00020F0050021684860204601F02EFA074610
:101EC000781C80B1B7420ED20B48074439462046F1
:101ED00001F08BFA38B10420607400BF0020207438
:101EE00000BF0120A6E70120607400BF002020741D
:101EF00000BF00BF9EE700008051010070B504469E
:101F000000250CB9012070BD2068406820F0080051
:101F100021684860FFF708F9054607E0FFF704F974
:101F2000401BB0F57A7F01D90320ECE720684068B8
:101F300000F008000028F1D00020E4E770B5044666
:101F40002546681EB0F1807F01D301200FE0681E96
:101F50004FF0E02148610F214FF0FF3001F092FE79
:101F600000204FF0E021886107200861002070BD4B
:101F70007047704710B50346002200BF93F83C003D
:101F8000012801D1022010BD012083F83C0000BFD0
:101F900022F0FF00CC6840EA040222F440708C6812
:101FA00040EA040222F480604C6840EA040222F411
:101FB00000600C6840EA040222F480500C6940EA98
:101FC000040222F400504C6940EA040222F48040EA
:101FD000CC6940EA04021868426400BF002083F81C
:101FE0003C0000BF00BFCEE730B502460B4600BF45
:101FF00092F83C00012801D1022030BD012082F876
:102000003C0000BF022082F83D0010684468106860
:10201000816824F070041868044310684460104D0F
:102020001068A8420BD01068B0F1804F07D00D4D5A
:102030001068A84203D00C4D1068A84205D121F0C9
:1020400080015868014310688160012082F83D00DA
:1020500000BF002082F83C0000BF00BFCDE70000B9
:10206000002C0140000400400008004010B5044668
:102070000CB9012010BD94F83D0028B9002084F867
:102080003C00204600F026F8022084F83D00211D87
:10209000206801F0EDFA012084F8460000BF84F8C2
:1020A0003E0001213F2001554020015541200155AE
:1020B00000BF00BF012084F84200432001554420A6
:1020C00001554520015500BF012084F83D00002046
:1020D000D0E7000038B504462D49206888420DD16C
:1020E00000BF2C48806940F400602A498861084696
:1020F000806900F40060009000BF47E02068B0F104
:10210000804F16D100BF2348C06940F0010021492B
:10211000C8610846C06900F00100009000BF00BF20
:10212000002211461C20FFF78DF81C20FFF77AF8DB
:102130002CE019492068884216D100BF1548C069B3
:1021400040F002001349C8610846C06900F002006F
:10215000009000BF00BF002211461D20FFF772F85B
:102160001D20FFF75FF811E00C49206888420DD16F
:1021700000BF0848C06940F004000649C86108462D
:10218000C06900F00400009000BF00BF38BD00002F
:10219000002C0140001002400004004000080040F4
:1021A000014691F83D00012801D00120704702202E
:1021B00081F83D000868C06840F001000B68D860F5
:1021C000124B086898420BD00868B0F1804F07D0D6
:1021D0000F4B0868984203D00E4B086898420CD108
:1021E0000868806800F00702062A0CD008680068BA
:1021F00040F001000B68186005E00868006840F0D6
:1022000001000B6818600020D0E70000002C01409E
:1022100000040040000800402DE9F04104460D464E
:1022200000BF94F83C00012802D10220BDE8F081F3
:10223000012084F83C0000BF022084F83D002068A3
:10224000866826F0770626F47F4620688660286830
:10225000502833D00CDC202850D004DC00284BD090
:10226000102851D149E0302849D040284CD139E0DC
:1022700060282DD0702807D0B0F5805F03D0B0F56E
:10228000005F41D10DE040E0D5E902136A682068A3
:1022900001F039FA2068866846F077062068866083
:1022A00033E0D5E902136A68206801F02CFA20684F
:1022B000806840F480402168886026E0EA686968A8
:1022C000206801F0F1FA5021206801F027FA1CE0A3
:1022D000EA686968206801F0FAFA6021206801F074
:1022E0001DFA12E0EA686968206801F0DDFA402111
:1022F000206801F013FA08E000BF00BF00BF2968A2
:10230000206801F00BFA00E000BF00BF012084F854
:102310003D0000BF002084F83C0000BF00BF85E7FF
:10232000704710B5044620680069C0F34000D8B17A
:102330002068C068C0F34000B0B16FF002002168AF
:102340000861012020772068806900F0030018B13F
:102350002046FFF7E5FF05E0204600F0DBF82046C9
:1023600000F08BF90020207720680069C0F380001E
:10237000D8B12068C068C0F38000B0B16FF004002D
:1023800021680861022020772068806900F440708D
:1023900018B12046FFF7C4FF05E0204600F0BAF868
:1023A000204600F06AF90020207720680069C0F319
:1023B000C000D8B12068C068C0F3C000B0B16FF0F1
:1023C000080021680861042020772068C06900F0B7
:1023D000030018B12046FFF7A3FF05E0204600F0F8
:1023E00099F8204600F049F900202077206800691C
:1023F000C0F30010D8B12068C068C0F30010B0B1BD
:102400006FF0100021680861082020772068C069FB
:1024100000F4407018B12046FFF782FF05E0204627
:1024200000F078F8204600F028F900202077206896
:10243000006900F0010058B12068C06800F0010098
:1024400030B16FF0010021680861204600F0CEF93C
:1024500020680069C0F3C01058B12068C068C0F39C
:10246000C01030B16FF08000216808612046FFF78E
:102470007FFD20680069C0F3801058B12068C068F3
:10248000C0F3801030B16FF0400021680861204631
:1024900000F0C6F920680069C0F3401058B1206808
:1024A000C068C0F3401030B16FF0200021680861AF
:1024B0002046FFF75EFD10BD10B586B00446002033
:1024C00002900390049005900F492068884218D12B
:1024D00000BF0E48806940F004000C49886108463E
:1024E000806900F00400019000BF00BF4FF440700D
:1024F0000290022003900320059002A90448FEF7F1
:102500006BFC06B010BD0000002C01400010024022
:1025100000080140704770B504460D46164600BFDE
:1025200094F83C00012801D1022070BD012084F8FC
:102530003C0000BF36B1042E1BD0082E31D00C2E2B
:102540005ED145E02946206801F0F2F820688069F4
:1025500040F00800216888612068806920F004004C
:102560002168886120688069296908432168886139
:1025700047E02946206801F00BF92068806940F4A3
:102580000060216888612068806920F4806021688B
:10259000886120688069296940EA01202168886192
:1025A0002FE02946206801F027F92068C06940F033
:1025B00008002168C8612068C06920F00400216813
:1025C000C8612068C069296908432168C86118E0AA
:1025D0002946206801F044F92068C06940F4006091
:1025E0002168C8612068C06920F480602168C861E2
:1025F0002068C069296940EA01202168C86100E0BB
:1026000000BF00BF00BF002084F83C0000BF00BF37
:102610008BE710B504460CB9012010BD94F83D00BD
:1026200028B9002084F83C00204600F025F802205C
:1026300084F83D00211D206801F01AF8012084F87B
:10264000460000BF84F83E0001213F200155402094
:1026500001554120015500BF00BF012084F8420010
:1026600043200155442001554520015500BF01205C
:1026700084F83D000020D0E77047704770B50446ED
:102680000D4615B994F83E000BE0042D02D13F2011
:10269000005D06E0082D02D14020005D01E04120F0
:1026A000005D012801D0012070BD1DB9022084F811
:1026B0003E000EE0042D03D102213F20015508E029
:1026C000082D03D102214020015502E002214120C2
:1026D000015501222946206801F004F819492068B3
:1026E000884201D1012000E0002028B12068406C20
:1026F00040F40040216848641249206888420BD0A9
:102700002068B0F1804F07D00F492068884203D07D
:102710000E49206888420CD12068806800F00706C6
:10272000062E0CD02068006840F001002168086087
:1027300005E02068006840F0010021680860002082
:10274000B2E70000002C01400004004000080040F7
:1027500030B504460D4600222946206800F0C2FF2D
:1027600021492068884201D1012000E0002090B179
:1027700000BF2068006A41F21111084050B920687A
:10278000006A8910084028B92068406C20F4004095
:102790002168486400BF00BF2068006A41F211113F
:1027A000084050B92068006A8910084028B920689C
:1027B000006820F001002168086000BF1DB90120F9
:1027C00084F83E000EE0042D03D101213F20015585
:1027D00008E0082D03D101214020015502E001212C
:1027E00041200155002030BD002C014010B50446A9
:1027F00009492068884207D101F086F80748007827
:1028000080F00100054908702068B0F1804F01D1C7
:1028100001F072F810BD0000000400400400002028
:1028200070477047704700002DE9F84F0446206854
:1028300005682068C668206847694FF00009CA46E5
:1028400005F00F09B9F1000F0AD105F0200038B1E9
:1028500006F0200020B1204601F0A7F8BDE8F88F6F
:10286000B9F1000F71D007F0010018B906F49070AB
:1028700000286AD005F0010030B106F4807018B16C
:10288000206C40F00100206405F0040030B107F036
:10289000010018B1206C40F00200206405F0020035
:1028A00030B107F0010018B1206C40F00400206442
:1028B00005F0080048B106F0200010B907F001004B
:1028C00018B1206C40F008002064206C68B305F05B
:1028D000200028B106F0200010B1204601F065F874
:1028E00020684069C0F3801A206C00F0080010B91D
:1028F000BAF1000F22D0204601F02CF82068406980
:1029000000F04000B0B12068406920F0400021682C
:102910004861A06B50B15648A16B4863A06BFEF7AD
:10292000D5F910B1A06B416B88470CE02046FFF74A
:1029300079FF08E02046FFF775FF04E02046FFF727
:1029400071FF0020206489E7FFE7206B012878D120
:1029500005F01000002874D006F01000002870D098
:1029600000BF002000902068006800902068406848
:10297000009000BF00BF2068406900F04000C0B375
:10298000A06B006840681FFA80F8B8F1000F2FD0E4
:10299000A08D40452CDDA4F82E80A06B80692028F6
:1029A0001FD02068C06820F480702168C86020684B
:1029B000406920F00100216848612068406920F0EA
:1029C000400021684861202084F83E0000202063F8
:1029D0002068C06820F010002168C860A06BFEF776
:1029E00049F9A08DE28D801A81B22046FFF719FFC8
:1029F00034E7FFE7A08DE18D401A1FFA80F8E08DE3
:102A0000E8B1B8F1000F1AD02068C06820F49070C7
:102A10002168C8602068406920F001002168486191
:102A2000202084F83E00002020632068C06820F049
:102A300010002168C86041462046FFF7F2FE0DE70E
:102A4000FFE705F0800030B106F0800018B12046A5
:102A500001F0BFF802E705F0400030B106F0400099
:102A600018B1204600F091FFF8E600BFF6E600003E
:102A70004139000810B504460CB9012010BDA06909
:102A800000B100E000BF94F83D0028B9002084F8B0
:102A90003C00204600F028F8242084F83D002068FF
:102AA000C06820F400502168C860204600F0F0FFA4
:102AB0002068006920F4904021680861206840691E
:102AC00020F02A00216848612068C06840F4005066
:102AD0002168C86000202064202084F83D0084F82C
:102AE0003E000020CAE7000010B586B00446002072
:102AF00002900390049005902249206888423ED1BC
:102B000000BF2148806940F480401F498861084621
:102B1000806900F48040019000BF00BF00BF0846FC
:102B2000806940F0080088610846806900F008006C
:102B3000019000BF00BF40200290022003900320BC
:102B4000059002A91148FEF747F980200290002065
:102B50000390049002A90D48FEF73EF900BF0C490E
:102B6000486840F0E06040F00400486000BF002288
:102B700011462520FEF766FB2520FEF753FB06B025
:102B800010BD00000038014000100240000C014060
:102B90000000014070B504460D46164694F83E000C
:102BA000202816D105B10EB9012070BD00BF94F8E0
:102BB0003C00012801D10220F7E7012084F83C0005
:102BC00000BF0020206332462946204600F0DEFF89
:102BD000EBE70220E9E710B5044600F0ADF810BDC0
:102BE00010B5034693F83D00202823D101B10AB95E
:102BF000012010BD00BF93F83C00012801D1022044
:102C0000F7E7012083F83C0000BF19629A84DA8458
:102C100000201864212083F83D0000BF002083F8C5
:102C20003C0000BF1868C06840F080001C68E0608D
:102C30000020DEE70220DCE70121014A1170704725
:102C40000300002000BFFEE770B500F0FDFB054665
:102C500013480088134901EA00442C4312480068D5
:102C600028B912481249097840F8214008E00E4876
:102C70000068052804D10F480D49097840F8214023
:102C80000D480068201A0D490968884204D9064891
:102C90000068401C044908600748046070BD0000DB
:102CA000500000200000FFFF400000206C020020C8
:102CB0003800002078020020480000205400002046
:102CC00070B500F0C1FB054613480088134901EABE
:102CD00000442C431248006828B912481249097868
:102CE00040F8214008E00E480068052804D10F484C
:102CF0000D49097840F821400D480068201A0D4917
:102D00000968884204D906480068401C04490860E4
:102D10000748046070BD0000500000200000FFFF65
:102D20003C00002084020020380000209002002097
:102D30004C0000205400002010B50E4800780E49C9
:102D40000E4A127888540D480078401C0B490870D0
:102D50000846007800F07F000870002005490870E0
:102D600001220748FFF716FF4FF4E26005490860AB
:102D700010BD0000620000207C03002060000020E5
:102D8000EC0100206400002000B587B01C216846DB
:102D9000FDF71AFA1C481D49086081151B4881601F
:102DA0000021017301754FF46021C16100201749B2
:102DB0004860012115480161FDF778FE08B1FDF773
:102DC000C9FB012000900190022004900420029091
:102DD0004FF4E040069000208DF815008DF81400A7
:102DE000039069460948FDF7CDFB08B1FDF7B2FB3A
:102DF00002200090019069460448FDF7C3FB08B12A
:102E0000FDF7A8FB07B000BD002401407C000020B6
:102E100000B585B00020019002900390049000BF9F
:102E20006F48806940F010006D49886108468069EC
:102E300000F01000009000BF00BF00BF084680698E
:102E400040F0200088610846806900F02000009072
:102E500000BF00BF00BF0846806940F004008861E1
:102E60000846806900F00400009000BF00BF00BF6A
:102E70000846806940F0080088610846806900F0D3
:102E80000800009000BF00BF0820019001200290C0
:102E9000002003900220049001A95248FDF79CFFF6
:102EA0001020019001200290002003900220049045
:102EB00001A94C48FDF790FF2020019001200290CD
:102EC000002003900220049001A94648FDF784FFEA
:102ED0004FF48050019001200290002003900220C6
:102EE000049001A93F48FDF777FFC02001903E48BC
:102EF00002900020039001A93A48FDF76DFF4FF4BE
:102F00008060019001200290002003900220049034
:102F100001A93648FDF760FF4FF4006001900120E1
:102F20000290002003900220049001A92F48FDF791
:102F300053FF4FF480500190012002900020039035
:102F40000220049001A92948FDF746FF4FF40050E4
:102F5000019001200290002003900220049001A91A
:102F60002248FDF739FF4FF40060019000200290E5
:102F7000039001A91B48FDF72FFF012001900020BD
:102F80000290039001A91948FDF726FF4FF48070C5
:102F9000019000200290039001A91448FDF71CFF46
:102FA0004FF48060019000200290039001A90D4829
:102FB000FDF712FF0220019000200290039001A96A
:102FC0000A48FDF709FF4FF40070019000200290BD
:102FD000039001A90548FDF7FFFE05B000BD000004
:102FE000001002400008014000002110000C0140C8
:102FF0001CB50020019000901848194908604FF056
:10300000FF3048604FF4807115488160FEF704FE80
:1030100008B1FDF79FFA00208DF804008DF8050037
:103020008DF80600012201A90D48FEF7F9FE08B14E
:10303000FDF790FA01208DF800008DF801008DF861
:10304000020000208DF80300012269460448FEF7C3
:103050006BFE08B1FDF77EFA1CBD000000280040A1
:10306000B800002000B595B0002011901290139088
:1030700014900F9010901C2108A8FDF7A5F82021AE
:103080006846FDF7A1F82F482F4908600E204860D8
:1030900000212D4881602D4801882B48C160002106
:1030A000016141618161FEF7E1FF08B1FDF752FA6C
:1030B0004FF48050119011A92348FFF7ADF808B1E3
:1030C000FDF748FA2048FFF7A4FA08B1FDF742FAE5
:1030D00000200F9010900FA91B48FEF785FF08B144
:1030E000FDF738FA60200890002009900A900B90B4
:1030F0000C900D900E90002208A91348FFF70BFAD0
:1031000008B1FDF727FA042208A90F48FFF703FAD0
:1031100008B1FDF71FFA0020009001900290039083
:1031200004904FF40050059000200790694606482F
:10313000FEF720FF08B1FDF70DFA0348FFF7BCF9D1
:1031400015B000BD002C0140CC000020060000207E
:1031500000B587B000200390049005900690019080
:1031600002904FF080401449086040F2337048608C
:103170000021114881604FF6FF71C160002101619B
:103180008161FEF773FF08B1FDF7E4F94FF4805059
:10319000039003A90848FFF73FF808B1FDF7DAF9F3
:1031A00000200190029001A90348FEF71DFF08B11D
:1031B000FDF7D0F907B000BD1401002000B587B0BD
:1031C000002003900490059006900190029014480E
:1031D0001449086048F6A040486000211148816009
:1031E000C821C160002101618161FEF73FFF08B184
:1031F000FDF7B0F94FF48050039003A90948FFF799
:103200000BF808B1FDF7A6F900200190029001A982
:103210000448FEF7E9FE08B1FDF79CF907B000BDD0
:10322000000400405C01002010B50B480B49086009
:103230004FF416404860002108488160C160016178
:103240000C21416100218161C161FFF713FC08B1CC
:10325000FDF780F910BD000000380140EC010020AE
:1032600000BFFEE77047704708B508490968C908FC
:103270004FF47A72B1FBF2F14143009100BF00BFFD
:1032800000994A1E00920029F9D108BD780000205B
:10329000014600BF080900EB8000420001F00F006A
:1032A0001044C0B2704770B504460025FDF73CFFDE
:1032B000054607E0FDF738FF401BB0F57A7F01D9DE
:1032C000032070BD2068406800F020000028F1D085
:1032D0002068406840F01000216848600020F0E756
:1032E00070B5044600252068406820F01000216871
:1032F0004860FDF719FF054607E0FDF715FF401B85
:10330000B0F57A7F01D9032070BD2068406800F0D5
:1033100020000028F1D00020F6E70146002200231B
:103320000868006A82B20868406A83B243EA0240D1
:10333000704730B5014600220023002400200D68AC
:10334000AD69AAB20D68ED69ACB20D68AD69ABB2FA
:103350009A4205D00D68ED6963F31F45284601E0E8
:1033600044EA024030BDF0B504460B46002100257A
:1033700004F5FA61032B1BD2C3EBC30000EB03106F
:103380000926B0FBF6F01044001D4618481E06EB57
:1033900090066427B0FBF7F0361A481EBF00B0FB5A
:1033A000F7F030440726B0FBF6F706FB17051AE0E6
:1033B000C3EBC30000EB03100926B0FBF6F010448A
:1033C000001D084400EB91006426B1FBF6F6801B5B
:1033D0004FF4C876B1FBF6F63044801E0726B0FBEA
:1033E000F6F706FB1705E8B2F0BD70B504460D46CA
:1033F00000262046FFF757FF08B101260AE0280CF7
:1034000021680862A8B2216848622046FFF768FF79
:1034100000B10126304670BD70B504460D46002649
:103420002046FFF740FF08B101260AE0280C21687A
:103430008861A8B22168C8612046FFF751FF00B13A
:103440000126304670BD000001480068406A7047A0
:1034500014010020704770B505460C46ED00E400ED
:1034600040F2FB70854200D9054640F2FB70844271
:1034700000D90446284600F005F8204600F024F85C
:1034800070BD000010B588B004461C2101A8FCF7EF
:103490009BFE00210B48FFF75BF96020019002942E
:1034A000002003900590002201A90648FFF733F899
:1034B00008B1FDF74FF800210248FFF7DFF808B028
:1034C00010BD0000CC00002010B588B004461C21BF
:1034D00001A8FCF779FE04210B48FFF739F96020B9
:1034E00001900294002003900590042201A906484F
:1034F000FFF711F808B1FDF72DF804210248FFF796
:10350000BDF808B010BD0000CC00002010B5FDF7DC
:1035100019FE10BD00B593B0282109A8FCF754FE90
:10352000142104A8FCF750FE0020009001900290A6
:103530000390052009904FF480300A9000200B90F2
:1035400001200C900D9002201090C10311914FF4B6
:10355000E011129109A8FEF72DF908B1FCF7FAFF66
:103560000F20049002200590002006904FF4806008
:10357000079000200890022104A8FDF7DFFF08B1A2
:10358000FCF7E8FF032000904FF480700190C00129
:1035900002906846FDF73AFF08B1FCF7DBFFFEF743
:1035A00093F813B000BD000010B5002100200022E8
:1035B000214B5B6803F00C0121B1042906D00829D6
:1035C00028D107E01D4B1E4C236027E01B4B1C4CF1
:1035D000236023E0184B5B6803F47010164B5B68A4
:1035E00003F48032022303EB904022B9154B43438E
:1035F000134C23600DE0104B5B6803F4003323B1E0
:10360000104B43430E4C236003E00C4B43430C4CE4
:10361000236003E0094B0A4C236000BF00BF064B48
:103620005B68C3F30313084CE15C054B1B68CB409C
:10363000034C236010BD00000010024000127A000D
:103640007800002000093D00644800087047000031
:1036500010B50248FEF765FE10BD00001401002001
:1036600010B50248FEF75DFE10BD00005C010020B1
:1036700010B50268184B984208D0B0F1804F05D0C1
:10368000164B984202D0164B984203D122F070029A
:103690004B681A43104B984208D0B0F1804F05D0C8
:1036A0000E4B984202D00E4B984203D122F4407246
:1036B000CB681A4322F080034C6943EA040202609B
:1036C0008B68C3620B688362034B984201D10B691C
:1036D00003630123436110BD002C0140000400403E
:1036E0000008004030B501F01F05012404FA05F37D
:1036F000046A9C430462046A01F01F0502FA05F59E
:103700002C43046230BD30B50C46816821F47F4102
:1037100042EA032525432943816030BD0A4681687A
:1037200021F0700142F007031943816070470000E7
:1037300030B5056A25F001050562026A43688469AF
:1037400024F0700424F003040D682C4322F00202DC
:103750008D682A430D4DA84206D100BF22F0080211
:10376000CD682A4322F00402084DA84207D123F471
:10377000807323F400734D692B438D692B434360A1
:1037800084614D684563026230BD0000002C014039
:1037900030B5056A25F010050562026A4368846940
:1037A00024F4E04424F440740D6844EA052422F033
:1037B00020028D6842EA05120E4DA84207D100BFD3
:1037C00022F08002CD6842EA051222F04002094D43
:1037D000A84209D123F4806323F400634D6943EACE
:1037E00085038D6943EA8503436084614D68856381
:1037F000026230BD002C014030B5056A25F48075A9
:103800000562026A4368C46924F0700424F003046A
:103810000D682C4322F400728D6842EA05220F4D98
:10382000A84207D100BF22F40062CD6842EA052217
:1038300022F48062094DA84209D123F4805323F475
:1038400000534D6943EA05138D6943EA051343604C
:10385000C4614D68C563026230BD0000002C0140A8
:1038600030B5056A25F480550562036A4468C2696B
:1038700022F4E04222F440720D6842EA052223F469
:1038800000538D6843EA0533064DA84204D124F461
:1038900080444D6944EA85144460C2614D68056402
:1038A000036230BD002C014030B50B461446026A5D
:1038B000056A25F001050562816921F0F00141EA00
:1038C000041122F00A021A438161026230BD30B550
:1038D0000B461446056A25F0100505628169026AE7
:1038E00021F4704141EA043122F0A00242EA0312BD
:1038F0008161026230BD000002480068401C01493D
:103900000860704750000020002013E00B4901EBD5
:103910000011096869B1094901EB0011496841B119
:10392000064901EB00114968491E044A02EB0012E6
:103930005160401C0A28E9DB704700009C0200200F
:1039400070B505466C6A0020E085E0842046FEF7ED
:1039500069FF70BD0168C96821F490710268D16087
:103960000168496921F0010102685161016B012977
:1039700005D10168C96821F010010268D1602021D9
:1039800080F83E1000210163704710B5044620689E
:10399000C06820F040002168C860202084F83D0005
:1039A0002046FFF749F9002010BDF8B5044694F809
:1039B0003E00222869D1A068B0F5805F0CD1206953
:1039C00050B90025A66A20684068C0F3080030801E
:1039D000A06A801CA06215E0A56A0026A068B0F568
:1039E000805F03D0A06828B9206918B920684068B2
:1039F000287004E02068406800F07F002870A06A0A
:103A0000401CA062E08D401E80B2E085A8BB20680B
:103A1000C06820F020002168C8602068C06820F4D9
:103A200080702168C8602068406920F0010021682A
:103A30004861202084F83E00206B01281ED1002020
:103A400020632068C06820F010002168C8602068EA
:103A5000006800F0100010280AD100BF002000907C
:103A600020680068009020684068009000BF00BF98
:103A7000A18D2046FEF7D5FE03E004E02046FFF7C7
:103A8000AAF80020F8BD0020FCE70220FAE70000B9
:103A900070B504462168096921F44051E268114378
:103AA000226811612269A1681143626941EA020535
:103AB0002168C96841F20C62914329432268D160B0
:103AC0002168496921F44071A2691143226851615A
:103AD0002D4A2168914202D1FDF712FE01E0FDF767
:103AE000FFFD00EBC00101EB001162689200B1FB29
:103AF000F2F100EBC00202EB001263689B00B2FB24
:103B0000F3F26423B2FBF3F202EBC20303EB021203
:103B1000A1EB8201322202EB01116422B1FBF2F12E
:103B200001F0F00100EBC00202EB001263689B00A1
:103B3000B2FBF3F26423B2FBF3F201EB021200EBEF
:103B4000C00101EB001163689B00B1FBF3F100EBD6
:103B5000C00303EB00136668B600B3FBF6F36426FC
:103B6000B3FBF6F303EBC30606EB0313A1EB8301F0
:103B7000322303EB01116423B1FBF3F101F00F01D8
:103B800011442268916070BD0038014010B50346B1
:103B900099629A85DA8500201864222083F83E0015
:103BA00000BF002083F83C0000BF1868C06840F4E4
:103BB00080701C68E0601868406940F001001C6873
:103BC00060611868C06840F020001C68E060002058
:103BD00010BD014691F83D00212828D18868B0F534
:103BE000805F0BD1086948B90A6A1088C0F30800E1
:103BF0000B685860086A801C086205E00B6A581C54
:103C0000086218780B685860C88C401E80B2C8845F
:103C100058B90868C06820F080000B68D860086850
:103C2000C06840F040000B68D86000207047022058
:103C3000FCE7000070B504460D46AAB221460648CE
:103C4000FEF7CEFF00BF054800780028FBD000201B
:103C50000249087070BD0000EC0100200300002044
:103C600010B50248FEF7E0FD10BD0000EC01002099
:103C700000BFFEE702480068C0F302207047000062
:103C80000CED00E010B5002804DB0A07130E054A0E
:103C9000135406E00A07140E034A00F00F031B1F1B
:103CA000D45410BD00E400E018ED00E010B5024867
:103CB000FCF7B8FD10BD00007C000020704700003C
:103CC00010B5012202490348FEF764FF10BD000051
:103CD00062000020EC01002010B500224FF40061CA
:103CE0000D48FDF71BFA00224FF480610A48FDF7EA
:103CF00015FAFCF71BFC0020084908700849086009
:103D0000032201211720FDF79DFA1720FDF78AFAFB
:103D10000448FEF745FA10BD000C014038000020B1
:103D2000440000201401002010B5002407E0002109
:103D30000D4840F824100C3040F82410641C032C6B
:103D4000F5DB002008490839086348630220086051
:103D500004204860002088638862C8620A46D16AED
:103D6000906AFFF778FB10BD3802002010B50122E1
:103D700008210948FDF7D2F9012210210648FDF774
:103D8000CDF9012220210448FDF7C8F901221103D1
:103D90000148FDF7C3F910BD0008014010B500242B
:103DA00011E000200B4901EB04110860094901EB07
:103DB0000411C860074901EB04114860054901EB93
:103DC00004118860641C0A2CEBDB0348FEF7E8F959
:103DD00010BD00009C0200205C01002030B50346AD
:103DE0000A464FF0FF30002118E00E4C04EB01149E
:103DF000246894B901240B4D05EB01152C60094C86
:103E000004EB0114E360074C04EB01146260054C01
:103E100004EB0114A260002002E0491C0A29E4DB43
:103E200000BF30BD9C02002010B53D48006828B995
:103E30004FF480513B48FDF767F96EE03848006861
:103E4000401E374908603848806B00F0100020B1F0
:103E500008213448FDF758F90FE03348806B00F033
:103E6000200028B1012208212E48FDF757F904E06F
:103E7000002208212B48FDF751F92B48806B00F0F8
:103E8000400020B110212748FDF73EF90FE02648F9
:103E9000806B00F0800028B1012210212148FDF73D
:103EA0003DF904E0002210211E48FDF737F91E48B5
:103EB000806B00F0010020B120211A48FDF724F9A1
:103EC0000FE01948806B00F0020028B10122202188
:103ED0001448FDF723F904E0002220211148FDF7E2
:103EE0001DF91148806B00F0040028B14FF4805197
:103EF0000C48FDF709F910E00B48806B00F0080052
:103F000028B1012211030748FDF708F905E0002256
:103F10004FF480510348FDF701F9012010BD000066
:103F20005C0000200008014030020020FDF716F977
:103F3000FFF7F0FAFFF738FBFEF76AFFFEF724FF02
:103F4000FFF756F8FFF78EF8FFF738F9FFF76CF92F
:103F5000FFF7FEF800F052FA00F068FA02210B4871
:103F6000FFF73CFF05210A48FFF738FF0821094801
:103F7000FFF734FF0848FDF7DDF805E000F028F909
:103F8000FCF704FA00F00EFAF8E700009D3F000885
:103F9000293E0008E5440008AC0000202DE9F0416E
:103FA000002600277B48007810B90120BDE8F08189
:103FB0007948406810B901207749486076484068E0
:103FC000C821B1FBF0F07549086075480068052804
:103FD0002EDD74487449097850F821007349724AFB
:103FE000127851F8221088421FD96E486E4909781C
:103FF00050F821006D496C4A127851F82210461A87
:104000006B4F654840687043B7FBF0F442F20F70A5
:10401000844200D90446604808306349097840F872
:10402000214001206349087002E000205C490860DB
:104030006148006805282EDD60485B49097850F822
:1040400021005F49584A127851F8221088421FD93E
:104050005A485549097850F821005949524A12786E
:1040600051F82210461A524F4B4840687043B7FB34
:10407000F0F442F20F70844200D9044646481430EE
:104080004949097840F8214001204E49087002E072
:104090000020494908604C480068401C4A490860B3
:1040A000084600680C2807DC4648007800286ED0D7
:1040B0004048007800286AD00020434908603D4805
:1040C000007830B9002134480830374A127840F877
:1040D00022103C48007830B900212F481430324A71
:1040E000127840F822100020334908602C490860FB
:1040F000344908702F49087027480068C0F3470505
:10410000012D44DD28480078401C274908700846E6
:104110000078A84201DB002008702348007820B115
:1041200001280FD0022825D118E000224FF40061A9
:104130002648FCF7F3FF00224FF480612348FCF788
:10414000EDFF17E00122D1022048FCF7E7FF002233
:104150004FF480611D48FCF7E1FF0BE000224FF4B3
:1041600000611A48FCF7DAFF012291021748FCF7B8
:10417000D5FF00BF00BF00224FF480511348FCF769
:10418000CDFF00224FF400511048FCF7C7FF01207B
:104190000CE70000580000203002002054000020EE
:1041A0003C00002090020020380000208402002003
:1041B0005ED0B200390000204000002078020020CC
:1041C0006C0200203A00002044000020000C014056
:1041D0002DE9F04100276C4800684FF6FF718842D6
:1041E00001D1BDE8F0816848006828B166480068E0
:1041F000401E65490860C4E04FF6FF7062490860E0
:10420000624804780020614908706148007873288A
:1042100003D15F4840786D2800D0E2E75C488178A0
:10422000A01E814200D0DCE75948C078042800D0A5
:10423000D7E757488178FCF729F90546544886782E
:104240000146701C085C4FF47F4101EA002750488A
:10425000805D0743ADB2BD4200D0C2E74C48007953
:1042600046287DD11E204B490860494840794A497B
:10427000896A884205D1464880794749C96A884297
:1042800018D0434840794449886241488079C862DF
:104290000A46D16A906AFFF7DEF83F48806A322802
:1042A00003D83D48C06A322802D9FCF73FF901E043
:1042B000FCF7FAF83648C079374988633448007A01
:1042C00048603348407A0860FCF746F93248006A93
:1042D00000F07F00314948712F48406A00F07F00AC
:1042E00088712D48006BC8712B48006B000A08725A
:1042F0002948406B48722848406B000A887226485B
:104300008068C87224488068000A08732248C06820
:1043100048732148C068000A88731F480069C87341
:104320001D480069000A08741B48406948741A480F
:104330004069000A887418488069C8741648806902
:10434000000A08751448C06948751348C069000A16
:10435000887513484078C87511480078087600E0E1
:104360000EE01B2421460D48FCF790F805460B494A
:10437000CD76280A0877A11C0848FFF75BFC00BF30
:1043800000BF00BF2DE70000640000206000002097
:104390007C0300205C000020300200203C03002051
:1043A0000000002010B5002422E0134901EB0411A5
:1043B0000968E1B1104901EB04114968B9B90E4A25
:1043C00002EB0412D168884740B10B4901EB04119C
:1043D0008968094A02EB0412516008E00021064A8C
:1043E00002EB0412D160044A02EB04121160641C57
:1043F0000A2CDADB10BD00009C02002010B500245E
:1044000001E000BF641CB4F57A7FFADBFFF7AEFC75
:10441000FFF756FCFFF760FCFFF748FCFFF74EFC88
:10442000FFF7BCFCFFF780FC10BD000010B50122B7
:1044300008212A48FCF772FE012210212748FCF7C8
:104440006DFE012220212548FCF768FE01221103A0
:104450002248FCF763FE2248FCF76CFE4FF4FA603A
:1044600000F0FAF91E48FCF765FE002433E0FA205C
:1044700000F0F2F9012208211848FCF74FFE012252
:1044800010211648FCF74AFE012220211348FCF7B0
:1044900045FE012211031148FCF740FEFA2000F00E
:1044A000DBF90F48FCF746FE002208210B48FCF719
:1044B00035FE002210210948FCF730FE00222021A1
:1044C0000648FCF72BFE00224FF480510348FCF70E
:1044D00025FE601CC4B2032CC9DD10BD00080140DC
:1044E000AC0000202DE9FC474FF00008C146002039
:1044F00001900090CE48FCF71DFECE48806A3C2813
:104500001FD2CC48C06A3C281BD2CB480078242854
:1045100017DBC848006A20F00800C6490862084650
:10452000406A20F008004862002405E00020C349EA
:104530000855C3490855641C032CF7DB0120BDE86E
:10454000FC87BD480078242804DCBB480078401C68
:10455000B9490870B748806A8400B648806A032168
:10456000B0FBF1F0001DB349096B0D1AB148806A28
:104570000321B0FBF1F0001DAE49096B4618B442AF
:1045800001DCAC4210DAAF4800780C2805DAAD48FF
:104590000078401CAB4908700FE0A648006A40F064
:1045A0000800A449086208E00020A6490870A14854
:1045B000006A20F008009F4908629E48C06A840093
:1045C0009C48C06A0321B0FBF1F0001D9949496B7A
:1045D0000D1A9848C06A0321B0FBF1F0001D9549FF
:1045E000496B4618B44201DCAC4210DA9548407879
:1045F0000C2805DA93484078401C924948700FE037
:104600008C48406A40F008008A49486208E000206F
:104610008C4948708748406A20F008008549486204
:104620004FF400618848FCF767FD10B101208DF858
:10463000040001218548FCF75FFD10B101208DF8D1
:1046400005004FF480718148FCF756FD10B1012040
:104650008DF806004FF480617B48FCF74DFD10B1EA
:1046600001208DF8000002217848FCF745FD10B1CB
:1046700001208DF801004FF400717448FCF73CFDF7
:1046800010B101208DF8020000242AE001A8005D8D
:1046900048B16F48005D10280DDA6D48005D401C80
:1046A0006B49085507E06A48005D20B16848005D25
:1046B000401E674908551DF8040048B16548005D73
:1046C00010280DDA6348005D401C6249085507E078
:1046D0006048005D20B15F48005D401E5D4908559F
:1046E000641C032CD2DB534800684708002499E07F
:1046F000BC427BDC5648005D082807DB4D48006A59
:104700000121A14008434B4908620AE05048005D7E
:10471000012806DC4748016A0120A0408143454842
:1047200001624448006BC32821D34248083050F846
:1047300024003C2811D24148005D142805DA3F4886
:10474000005D401C3D49085511E03A48016A1020BF
:10475000A04001433748016209E03648016A102051
:10476000A04081433348016200203449085539484C
:10477000005D082807DB2F48416A0120A040014363
:104780002C4841620AE03348005D012806DC2948D4
:10479000406A0121A1408843264948622548406B70
:1047A000C3283ED32348143050F824003C2812D2AA
:1047B0002348005D142805DA2148005D401C20498B
:1047C00008552EE01B48416A1020A04001431948BB
:1047D000416226E00AE01748416A1020A040814368
:1047E000144841620020164908551AE01148006A31
:1047F0000121A14088430F4908620846016A102040
:10480000A04081430B480162406A0121A1408843D6
:10481000084948620846406A1021A140884305497A
:104820004862641C032CFFF663AF012087E600009A
:10483000AC00002030020020360000202E000020B6
:10484000310000203400002000080140000C01402D
:10485000280000202B00002010B504462046FCF75D
:104860008DFA10BD000000000000000001020304EA
:104870000607080900000000010203049C48000824
:10488000000000207C0000002801000818490008F2
:104890007C000020640A00004401000801020000BE
:1048A0000000DC0800000000000000000000000024
:1048B00000000000000000000000000000000000F8
:1048C00000000000060606060606000000000000C4
:1048D00000000000000000000000000000000000D8
:1048E00000000000000000000000000000000000C8
:1048F00032000000010000001E0000000000000067
:10490000FFFF0000FFFF000000000000100000009B
:08491000010000000024F40086
:04000005080000ED02
:00000001FF
