:020000040000fa
:020000040040ba
:10000000f07f022035bf4400470544000b10440038
:10001000435044001b624400936c44000000000005
:1000200000000000000000000000000023a94300c1
:10003000473044000000000023a9430081474500e9
:1000400023a9430023a9430023a9430023a9430074
:1000500023a9430023a9430023a9430023a9430064
:1000600075ef430023a9430000000000bd67450071
:10007000cd67450023a9430059f8430023a9430055
:1000800023a9430023a9430023a94300ddcd440055
:1000900089e1430023a9430023a9430023a9430086
:1000a00023a9430023a94300c947450023a94300ce
:1000b00023a9430023a94300000000000000000022
:1000c0000000000000000000000000000000000030
:1000d0000000000000000000000000000000000020
:1000e0000000000000000000000000000000000010
:1000f00000000000000000000000000023a94300f1
:0801000023a9430023a94300d9
:020000040000fa
:020000040040ba
:1001080038434c4472617765720000bfb83e4500c1
:100118000801400008b10181b0b00084000000006f
:1001280008b10181b0b000840000000008b101816d
:10013800b0b000840000000008b10181b0b00084b4
:100148000000000008b10181b0b000840000000088
:1001580008b10181b0b000840000000008b101813d
:10016800b0b000840000000008b10181b0b0008484
:100178000000000008b10181b0b000840000000058
:1001880008b10181b0b000840000000080c901817d
:10019800008408b10000000008b10181b0b00084fb
:1001a8000000000008b10181b0b000840000000028
:1001b80008b10181b0b000840000000008b10181dd
:1001c800b0b000840000000008b10181b0b0008424
:1001d8000000000008b10181b0b0008400000000f8
:1001e80008b10181b0b000840000000008b10181ad
:1001f800b0b000840000000008b10181b0b00084f4
:100208000000000008b10181b0b0008400000000c7
:1002180008b10181b0b0008400000000c91001815c
:10022800b0b0af840000000008b10181b0b0008414
:100238000000000008b10181b0b000840000000097
:1002480008b10181b0b000840000000008b101814c
:10025800b0b000840000000008b10181b0b0008493
:100268000000000008b10181b0b000840000000067
:1002780008b10181b0b000840000000008b101811c
:10028800b0b000840000000008b10181b0b0008463
:100298000000000008b10181b0b000840000000037
:1002a80008b10181b0b000840000000008b10181ec
:1002b800b0b000840000000008b10181b0b0008433
:1002c80000000000c90b0181b0b0ae800000000042
:1002d80080c90181b0ad08b100000000c90d0181dd
:1002e800b0b0ae810000000008b10181b0b0008458
:1002f8000000000008b10181b0b0008400000000d7
:1003080008b10181b0b000840000000080c90181fb
:10031800b0ad08b100000000c92c0181b0b0af80b9
:1003280000000000c9070181b0b0ae8000000000e5
:1003380008b10181b0b00084000000003f020181d3
:10034800b0b000840000000008b10181b0b00084a2
:100358000000000008b10181b0b000840000000076
:1003680008b10181b0b0008400000000039701814a
:10037800b0b008840000000008970181b0b009847b
:100388000000000004970181b0b00984000000005b
:1003980004970181b0b0098400000000049701812e
:1003a800b0b0098400000000990803008401970197
:1003b800b0b0b00bff1019010c0a06100118041c8c
:1003c800052e0c000001007f00007d0000000000e9
:1003d8000000000001970181b0b00884000000000f
:1003e80003970181b0b008840000000003970181e1
:1003f800b0b008840000000001970181b0b0088403
:100408000000000001970181b0b0088400000000de
:100418000a970181b0b009840000000003970181a8
:10042800b0b008840000000005970181b0b00884ce
:100438000000000003970181b0b0088400000000ac
:1004480007970181b0b0088400000000039701817c
:10045800b0b0088400000000e90703008420970179
:10046800b0b0b009ff1019011136d0070000b0086c
:1004780004f40901d2089e010000010000000000f8
:100488000a970181b0b0098400000000b507030095
:1004980084019701b0b0b008ffff0100a507030071
:1004a80084169701b0b0b009ff1019011184010a30
:1004b8008e0101800266ec0200fa020400000100cd
:1004c800000000007d07030084079701b0b0b00862
:1004d800ffff010003970181b0b00884000000000d
:1004e80003970181b0b008840000000005970181de
:1004f800b0b008840000000001970181b0b0088402
:100508000000000008b10181b0b0008400000000c4
:1005180008b10181b0b0008400000000f8b500bf48
:10052800f8bc08bc9e467047e5204500252d4500cf
:1005380081444300a90745005d2d4500815c4500c5
:100548000568430019564500d54145006dba43007a
:10055800f13b450019fe4400493c45002542450051
:10056800753c4500052e45001d6a4500f8b500bfdd
:0c057800f8bc08bc9e467047c12045003e
:020000040000fa
:020000040040ba
:100584007cee0100b0ae178094fe0100b0ab188081
:1005940020ac0200b0af108080b602000100000061
:1005a4008cb6020001000000e8b602000100000061
:1005b40008b70200b0a90280a0b70200b0b0a880ba
:1005c400f0b7020001000000f4b7020001000000cf
:1005d400f0b7020001000000ecb70200b0b0aa803e
:1005e40020b80200ae71b280e8b802000100000039
:1005f400e4b80200ab3f38803cb9020001000000bf
:1006040048b90200b0b0aa8084b902000100000019
:100614008cb902000100000088b90200010000004a
:100624008cb9020001000000b0b902000100000012
:10063400c0b9020001000000e4b90200010000009a
:10064400f4b90200ab0eb2805cba0200b0af08800d
:100654001cbd02000100000018bd020001000000e2
:1006640014bd02000100000010bd0200ac3f038075
:1006740088bf0200a8fcff7fe4c70200b0af14806b
:1006840004d00200b0af0880f8d6020094fbff7fcc
:10069400ece30200b0b0aa80acf50200b0ac258057
:1006a40044fb0200b0aa17809c050300b0fdff7f45
:1006b4009c0a0300b0af0280900f0300b0ae3980f3
:1006c40030140300b0aa0380a01c0300b0af06805e
:1006d400b820030001000000a8240300f8fbff7ffa
:1006e40088280300b0af0680382c0300b0ab02802a
:1006f400b82f0300b0b0ae80a436030001000000a0
:10070400d436030000840480e836030001000000ae
:10071400e4360300b0ad0480a4390300b0a803801c
:10072400c4390300e4fdff7fc8390300e8fdff7fff
:10073400d239030001000000d03903000100000099
:10074400d0390300b0ab1280343d03000100000037
:1007540088400300b0af0a80d8430300b0af0e80d6
:100764001c470300af08b180604a03000100000089
:10077400e0500300ae80c98010540300af08b1807c
:100784003c570300b0aa1780605a0300b0af08803a
:100794007c5d03004cfbff7f6860030001000000e8
:1007a40050630300b0af1a8030660300b0af04801a
:1007b40000690300b0ab1680c46b0300b0af0280c5
:1007c400886e0300b0af088020710300b0af0480ce
:1007d400b0730300b0af06803c7603000100000054
:1007e400c8780300b0ab02804c7b0300b0af048038
:1007f400cc7d03000100000040800300b0ae1180f6
:10080400b0820300b0ad04801885030004fbff7fb1
:1008140074870300b0af0480b8890300b0aa0780ce
:10082400f08b030001000000248e0300ad08b180aa
:1008340050900300b0aa1580a0940300b0af0e80be
:10084400b0960300b0aa1380bc980300b0af088030
:10085400bc9a0300b0ad0880bc9c0300b0ab188008
:10086400bc9e0300b0af1080b0a2030001000000e2
:10087400aca203000100000098a40300b0ae018004
:100884006ca80300b0af048050aa0300b0af02808c
:1008940030ac0300b0b0ae8010ae0300ab08b18042
:1008a400e8af0300b0ab1a80c0b103000100000040
:1008b40090b3030074faff7f5cb50300b0b0a88066
:1008c40024b70300b0ab1a80ecb80300b0af0a80c1
:1008d400b0ba0300b0af088040be0300b0b0aa8035
:1008e40000c00300b0ae1380bcc10300ab08b180ec
:1008f40068c30300b0af0a8014c50300b0ad028022
:1009040068c80300b0b0ae8008ca0300b0af02806c
:1009140048cd030048f9ff7fdcce0300b0af04806c
:1009240070d00300b0aa0b8000d20300b0b0ae8038
:1009340090d30300b0ac1f8020d50300b0b0ae80cc
:10094400b0d60300b0b0ae80ccd90300b0a91080fb
:1009540054db0300b0b0ae80dadc0300b0b0ae808c
:1009640060de0300b0af0a8070e10300b0ad028026
:10097400f0e20300b0b0ae8070e4030024fbff7f1c
:1009840070e7030001000000e8e80300b0af028054
:100994005cea0300b0ad0a80cceb0300b0af088082
:1009a4003ced0300b0a9128020f00300b0aa098036
:1009b4008cf10300b0a80d80f8f20300b0b0ae8053
:1009c400d8f50300b0ad068040f70300b0aa098053
:1009d400a4f803000100000008fa030074f8ff7f84
:1009e40064fb0300b0af0880bcfc0300b0ab1c8008
:1009f40010fe0300b0b0ae8064ff0300b0b0ae8060
:100a0400b8000400b0b0ae8004020400b0b0ae8000
:100a140050030400b0b0ae809c040400af08b18061
:100a2400e8050400f0f9ff7f7c08040001000000e1
:100a3400c0090400b0af0480000b0400b0ab068012
:100a44003c0c0400b0af0880740d0400b0aa1380fd
:100a5400ac0e0400b0b0ae80e00f0400b0af048070
:100a64000c110400a908b18034120400b0af048052
:100a74008c140400b0af0280e0160400b0ad0a800c
:100a840004180400b0af088028190400b0b0ae8088
:100a9400a01c0400b0af0280c01d0400b0ae0180f1
:100aa400e01e0400b0b0aa8000200400b0af0c80a7
:100ab4001c210400b0aa078034220400b0af0680d1
:100ac4004c230400b0af06807c250400b0af068040
:100ad4008c260400b0aa01809c270400a908b180d8
:100ae400ac280400b0b0ae80b6290400b0af0480d6
:100af400c02a0400d4f7ff7fd82c0400b0b0aa8029
:100b0400dc2d0400b0a80980f830040001000000c6
:100b14000c330400b0ab1e800c3404000100000050
:100b24001c370400b0b0ae8020390400b0a80b809c
:100b34001c3a0400b0ab06801c3c0400ab08b18036
:100b4400143d0400b0ab06800c3e0400b0af04803a
:100b5400043f0400b0a90c80fc3f04000100000025
:100b6400f4400400b0aa0b80e8410400ad08b18051
:100b7400da420400b0af0680cc430400a908b18077
:100b8400c0440400b0ab0880b0450400b0a80f8096
:100b9400a0460400ab08b1808c470400b0ad0280cd
:100ba40078480400b0a9028064490400b0aa078010
:100bb400504a0400d0f8ff7f3c4b0400b0aa0180e7
:100bc400244c0400b0ab08800c4d0400b0af04808a
:100bd400f44d0400ab08b180dc4e0400b0aa0580db
:100be400c44f0400b0b0aa80a8500400b0f5ff7f41
:100bf4008c510400b0a9028070520400b0aa0b808a
:100c040054530400b0a80b8038540400b0b0ae8034
:100c140008560400b0a90480e8560400b0af04806c
:100c2400c4570400b0aa03809c58040001000000cb
:100c340074590400ab08b1804c5a0400b0af06806c
:100c4400245b0400b0ac0380fc5b0400ab08b180ff
:100c5400d05c0400b0af0280a45d0400b0af028099
:100c6400545f0400b0b0ae8028600400af08b180c7
:100c7400f860040001000000c8610400b0aa078005
:100c840094620400b0a90a8060630400af08b180d4
:100c94002c640400a908b180f8640400b0af028099
:100ca400c4650400b0ac058090660400b0ae078053
:100cb40058670400b0aa098020680400b0ab0c8017
:100cc400e8680400b0aa0380b0690400b0ab0480f3
:100cd400786a0400b0af0480406b04000100000097
:100ce400086c0400b0ad0280cc6c0400b0af04808a
:100cf400906d0400b0aa0380546e0400b0af048069
:100d0400186f040001000000a4700400b0a805805e
:100d140064710400b0ab048024720400b0aa0b8098
:100d2400e4720400b0b0ac80a4730400b0ab0480df
:100d340064740400b0ab0480b476040001000000c5
:100d440038780400b0ac0d80f4780400b0af0280b1
:100d5400b079040040f6ff7f6a7a040001000000c5
:100d6400647a0400b0af0480dc7b0400b0af02807e
:100d7400947c0400b0ab04804c7d0400b0b0aa8025
:100d8400047e0400b0a90280bc7e0400b0af0280df
:100d9400707f0400b0ac0180e0800400010000001a
:100da40090810400010000003e82040080f6ff7f71
:100db400a4830400b0ad068050840400b0ac01806c
:100dc400fc840400b0ac0180a8850400b0ab0280b0
:100dd40054860400b0a9028000870400b0ae0380ea
:100de400ac870400b0ab0a800c890400b0af048067
:100df400b4890400b0ae01805c8a0400b0ad028006
:100e0400048b0400b0ae0380ac8b0400b0ae03804e
:100e1400548c040001000000fc8c0400b0ae03807c
:100e2400a48d0400b4f6ff7f4c8e0400b0ae0180a4
:100e3400f08e0400af08b180948f0400b0aa038040
:100e440038900400b0ab0280dc900400b0ac0180a8
:100e540028920400b0a90480c8920400b0ac0580b4
:100e640068930400ab08b18008940400b0ab02801e
:100e7400a8940400b0a9088048950400b0ae01808d
:100e8400e8950400b0ae018088960400b0ae0180fd
:100e940028970400b0aa0580c89704000100000048
:100ea40014990400ab08b180549a0400b0aa0380da
:100eb400f09a0400b0ab0480d49c0400010000004c
:100ec400709d0400010000000a9e0400fcf5ff7ff1
:100ed400449f0400b0ac0980dc9f0400b0ac0980de
:100ee40074a00400b0ab0480aca10400b0af0880cf
:100ef40044a20400b0ad0280dca20400b0a90280c8
:100f040074a30400b0ab0480aca404006cf2ff7fb3
:100f14004ca504000100000080a60400ab08b180c9
:100f240014a70400b0ad0480a8a70400b0aa0f80e1
:100f34003ca80400b0ac0980d0a80400b0b0aa80da
:100f440064a90400af08b18030ab0400b0ac0780e2
:100f5400c4ab0400b0ac018054ac0400b0ab02805c
:100f6400e4ac0400b0a8078074ad0400b0ad028006
:100f740004ae0400b0a8018090ae0400b0ae0180bd
:100f84001caf0400b0ab028038b00400b0b0aa803b
:100f9400c0b00400b0ad028048b10400b0aa018022
:100fa400d0b10400b0ad028058b20400b0ad0280ec
:100fb400e0b20400b0aa018064b30400b0af0280c0
:100fc400e8b30400b0ae01806cb40400b0b0a880f3
:100fd400f0b40400b0aa098074b50400b0a8078076
:100fe40010b70400b0a8018090b70400b0a8018035
:100ff40010b80400b0aa018018b90400b0aa018096
:1010040098b90400b0aa018018ba0400ab08b180f2
:1010140098ba0400b0aa018018bb0400b0aa0180e9
:1010240098bb0400b0aa018018bc0400b0aa0180d7
:101034002cbe0400f0f0ff7fa8be0400b0b0a8806e
:1010440024bf0400b0ac0180a0bf0400b0ac018098
:101054001cc00400b0aa098098c00400b0b0a880e5
:1010640014c10400b0aa018090c10400b0ac038094
:101074000cc20400b0a9028088c20400b0aa018096
:1010840004c304000100000004c4040001000000c3
:101094007cc40400b0a90880f4c40400b0b0aa80e1
:1010a4006cc50400b0aa0980e4c50400008404806f
:1010b4005cc70400b0b0a880d4c80400b0a81f80e6
:1010c40048c90400b0af0280bcc90400b0af0280bc
:1010d40030ca0400b0ad0280a4ca0400b0ad0280de
:1010e40018cb0400a908b1808ccb0400ab08b180f4
:1010f40000cc0400ab08b18074cc0400b0ac018017
:10110400e8cc0400e0f3ff7f5ccd0400a908b180c3
:10111400cccd0400ab08b1803cce0400b0ab04805d
:10112400acce0400ab08b1801ccf0400a908b18088
:101134008ccf0400a908b180fccf0400a908b180b9
:10114400e4d00400b0aa018052d10400f8f2ff7f79
:10115400c0d10400b0b0aa802cd20400b0b0aa80e0
:1011640098d20400b0ae038004d30400008402804b
:1011740070d3040001000000dad304000100000071
:1011840044d4040001000000aed4040001000000b7
:1011940018d504000100000064d60400b0ac01803e
:1011a400ccd604000100000034d70400b0af0280a4
:1011b4000cd80400b0ac018074d80400b0ac018039
:1011c400dcd80400a908b18044d90400a908b1807e
:1011d400acd90400b0b0aa8014da04000100000005
:1011e4007cda040001000000e4da040001000000dd
:1011f4004cdb040001000000b0db0400010000002f
:1012040014dc0400b0af028078dc0400af08b180c5
:10121400dcdc0400af08b180acdd04000100000098
:1012240010de0400b0ab048072de0400a908b180b3
:10123400d4de0400d4f1ff7f08e0040001000000c4
:10124400d0e004000100000030e1040001000000cf
:1012540090e10400b0b0aa80f0e10400a908b180d4
:1012640050e20400b0b0ac80b0e20400b0aa018047
:1012740010e30400a908b18070e304000100000039
:10128400d0e304000100000030e404000100000089
:1012940060e50400b0b0a880bee50400b0b0a8804a
:1012a4001ce60400b0a8038078e6040001000000f6
:1012b400d4e60400b0aa158030e70400a908b18080
:1012c400f0e7040038f2ff7f4ce80400b0a9028084
:1012d400a4e80400b0aa0180fce80400b0b0a8802f
:1012e400b4e90400b0a902800cea0400b0aa0180a9
:1012f40064ea0400a908b180bcea040000842680e2
:1013040014eb0400010000006ceb0400b0a805809d
:10131400c4eb0400b0b0aa801cec0400010000007f
:1013240034ed0400a908b1808ced0400b0b0aa80ab
:10133400e0ed0400b0ae018034ee04004cf0ff7f19
:1013440088ee0400b0a90280daee0400b0b0a880f0
:101354002cef0400b0b0a8807eef04000100000070
:10136400d0ef04000100000024f00400b0aa0180c2
:1013740074f00400a908b180c4f00400b0b0ac80db
:1013840014f10400b0b0aa8064f10400a908b1808b
:101394000cf20400010000005cf2040001000000f3
:1013a400acf2040001000000faf20400b0a80780c7
:1013b40048f30400c8efff7f98f304000100000025
:1013c400e4f304000100000030f404009ceeff7f0d
:1013d4007cf40400b0b0aa8070f5040020f0ff7f14
:1013e40010f60400b0a801805af60400b0a90280e7
:1013f400a4f6040001000000eef604000100000061
:1014040038f704000100000084f704000100000024
:10141400ccf70400a908b18014f80400b0b0aa8085
:101424005cf8040001000000a4f80400b0aa0980dc
:10143400ecf80400b0aa078034f90400b0b0a88026
:101444007cf90400b0a90280c4f90400b0a90280a8
:101454000cfa0400b0aa0180f4fa040001000000b0
:101464003cfb0400b0a81f8080fb040001000000c6
:10147400c4fb04000100000008fc0400b0ac0180bf
:101484004cfc0400b0ac018090fc0400b0ac0380c0
:10149400d4fc0400b0b0a88018fd0400b0a80180fa
:1014a4005cfd0400b0a80180a0fd0400b0a8018088
:1014b400e4fd0400a908b18028fe0400a908b18055
:1014c4006cfe0400b0b0a880fcfe0400a908b18042
:1014d40040ff0400b0b0aa80d0ff04000100000067
:1014e40060000500b0a9028034010500008420805a
:1014f40074010500b0aa0180b4010500b0b0a88051
:10150400f4010500b0b0aa80340205000100000017
:1015140074020500b0ad0280b4020500b0b0a8802a
:10152400f4020500b0b0a880c403050044eeff7fb8
:10153400040405000100000064050500b0ab06804a
:10154400a2050500a908b180e0050500a908b1803d
:101554001e060500b0b0a8805c06050044eeff7fbf
:101564009a0605008cefff7f1c07050001000000b0
:1015740058070500b0ad028094070500b0a80380a9
:10158400d0070500a908b1800c080500a908b1809e
:1015940048080500b0aa018084080500a908b180a4
:1015a400c008050000840680fc080500008406804d
:1015b400040a0500010000003e0a0500a908b180e4
:1015c400780a0500b0ab0280b20a05006ceeff7f1a
:1015d400ec0b050001000000240c0500e4ebff7f88
:1015e4005c0c050030ecff7f940c0500010000004a
:1015f400cc0c0500b0a80180440d0500b0a90880fa
:10160400bc0d0500b0a80580340e0500b0aa018009
:101614006c0e0500b0a90880a40e050001000000ae
:101624009c0f0500b0a90480d20f0500b0a9048066
:1016340008100500b0a904803e100500b0a904807c
:10164400b410050001000000e810050001000000ce
:101654001c110500010000008c110500a908b180cf
:10166400c0110500b0b0a880f4110500b0a8018035
:10167400a0120500a908b180d4120500d4edff7fa3
:1016840080130500b0a80980b2130500b0b0a8808b
:10169400e4130500b0ab188016140500a908b18046
:1016a40048140500a908b1807a14050000edff7ff5
:1016b400ac14050001000000e01405005ceaff7fa3
:1016c400101505000100000040150500008420806d
:1016d40070150500ab08b180a0150500b0b0a88056
:1016e400d0150500d0eaff7f0016050001000000b8
:1016f400301605000100000060160500010000001e
:10170400c8160500a908b180f816050001000000fc
:1017140028170500b0b0aa8090170500e8ebff7ffa
:10172400c0170500b0b0aa80281805000100000009
:101734005818050001000000881805000100000089
:10174400f0180500010000001e190500010000004a
:101754004c19050001000000e419050010eaff7fa0
:10176400101a0500b0b0a8803c1a05000100000062
:10177400681a0500ab08b180941a0500a908b18065
:10178400c01a0500b0a80780ec1a050060ebff7fc3
:10179400181b0500b0a80780441b0500b0a80780eb
:1017a400d81b050001000000021c05000100000018
:1017b4002c1c050001000000561c0500b0b0a880d8
:1017c400801c0500b0a90480aa1c0500b0b0a88044
:1017d400d41c050060ebff7ffe1c050070ebff7f4f
:1017e4005c1d050000842080841d050001000000ac
:1017f400ac1d050001000000d41d0500010000001f
:10180400fc1d0500a908b180241e0500a908b180ab
:101814004c1e050001000000741e050000840280b7
:101824009c1e0500a908b180c41e0500b0a8038051
:101834001c1f050001000000441f050001000000fa
:101844006c1f0500dcebff7f941f05000100000006
:10185400bc1f0500b0b0a880e21f05000100000015
:1018640008200500b0ab26802e200500b0ab2280f6
:1018740054200500b0a902807a2005000100000070
:10188400a020050001000000c620050001000000a2
:10189400ec20050001000000c8210500008402803e
:1018a400ec210500010000001022050001000000e9
:1018b400342205000100000058220500b0a807806a
:1018c400a822050001000000cc2205000100000050
:1018d400f0220500010000001423050001000000af
:1018e40038230500010000005c230500010000000e
:1018f4008023050001000000a4230500a908b1808d
:10190400c8230500b0b0a880ec230500b0b0a880bf
:1019140010240500b0b0a88034240500b0b0a8801d
:1019240058240500a908b1807c240500a908b180c9
:10193400a0240500a908b180c4240500b0b0a88083
:10194400e8240500a908b1800c250500a908b18088
:1019540030250500b0b0a880ac25050001000000ca
:101964008026050001000000a2260500b0a805801d
:10197400c4260500b0b0a880e6260500b0b0a88053
:1019840008270500b0b0a8802a270500b0b0a880b9
:101994004c2705000100000070270500008420800a
:1019a40090270500ece7ff7fb02705000100000049
:1019b400d0270500010000001828050001000000e0
:1019c40038280500b0b0a8805828050001000000a0
:1019d40078280500b0b0a88098280500b0ab1e8018
:1019e400b8280500b0b0a880d8280500b0b0a880f9
:1019f400f8280500b0b0a88018290500b0b0a88068
:101a0400382905000100000058290500a908b18003
:101a140078290500b0b0a88098290500b0a90280f3
:101a2400b829050000840480d829050000840480b6
:101a3400f8290500b0a90280182a0500b0b0aa80d0
:101a4400382a050001000000802a0500010000007a
:101a5400cc2a050001000000ea2a0500010000006c
:101a6400082b050001000000262b0500b0b0a8805b
:101a7400442b0500b0b0a880622b0500b0b0a8804c
:101a8400802b0500b0b0a8809e2b0500b0b0a880c4
:101a9400bc2b0500b0b0a880da2b0500b0b0a8803c
:101aa400f82b0500a908b180162c050000840480d9
:101ab400342c050001000000522c050028e9ff7faa
:101ac4004c2d050001000000682d050001000000f8
:101ad400842d0500ab08b180a02d05000100000095
:101ae400bc2d050001000000d82d050000840280f3
:101af400f42d0500b0a80180102e050078e7ff7fc3
:101b04002c2e050001000000482e0500b0b0a8806e
:101b1400642e0500b0b0a880802e0500b0b0a88067
:101b24009c2e0500b0b0a880b82e0500b0b0a880e7
:101b3400f82e0500b0b0a880142f050001000000a5
:101b4400542f050001000000702f05000100000063
:101b54008c2f050001000000a82f050094e8ff7fea
:101b6400c42f050001000000e02f05000100000063
:101b7400fc2f0500010000001830050001000000e2
:101b84003430050001000000983005000100000019
:101b9400f8310500b0b0aa8012320500b0b0a880b8
:101ba400703205000100000088320500a908b180e8
:101bb400a0320500a908b180b832050010e6ff7f05
:101bc400d032050001000000e832050001000000e9
:101bd40000330500b0b0a8801833050001000000f0
:101be40030330500b0aa178048330500b0aa01803d
:101bf40060330500b0b0a880783305000100000010
:101c04009033050001000000a83305000100000026
:101c1400c033050001000000d833050001000000b6
:101c2400f033050001000000083405000100000045
:101c3400203405000100000038340500b0b0a8804d
:101c440050340500b0b0a88068340500b0aa1380f1
:101c5400c034050001000000d83405000100000074
:101c6400f034050001000000083505000100000003
:101c74002035050001000000583505000100000072
:101c840070350500010000008835050001000000e2
:101c9400a03505000100000058360500b0b0a8804a
:101ca4006e36050040e5ff7f8436050044e5ff7f7e
:101cb4009a36050054e5ff7fb036050001000000a8
:101cc400c6360500bce5ff7fdc360500b0b0a88051
:101cd400f2360500b0b0a88008370500b0b0a8807f
:101ce4001e3705000100000050370500a908b18027
:101cf40064370500b0b0a8807837050000840280fe
:101d04008c37050001000000a03705000100000029
:101d1400b437050001000000c837050001000000c9
:101d2400dc37050001000000f03705000100000069
:101d34000438050001000000183805000100000007
:101d44002c3805000084028040380500b0b0aa8019
:101d540054380500b0b0aa806838050000840280b9
:101d64007c380500008402809038050001000000e2
:101d7400a438050001000000b83805000100000087
:101d8400cc38050001000000e0380500b0b0a880a0
:101d9400f4380500b0a9188024390500b0a91880ca
:101da4003839050001000000d8390500b0b0a8801a
:101db400ec390500b0b0a880003a0500010000002d
:101dc400143a050001000000283a05000100000053
:101dd4003c3a050001000000503a050001000000f3
:101de400d43a050001000000e63a050001000000b5
:101df400f83a0500010000000a3b0500010000005c
:101e04001c3b0500010000002e3b05000100000002
:101e1400403b050001000000523b0500b0b0a88023
:101e2400643b0500b0b0a880763b0500b0b0a88044
:101e3400883b0500b0b0a8809a3b0500b0b0a880ec
:101e4400ac3b0500b0b0a880be3b0500b0b0a88094
:101e5400d03b0500b0b0a880e23b0500b0b0a8803c
:101e64000e3c050001000000203c050001000000bc
:101e7400323c050001000000443c05000100000064
:101e8400563c050001000000683c0500010000000c
:101e94007a3c0500010000008c3c050001000000b4
:101ea4001c3d0500b0b0a8802c3d050001000000d9
:101eb4003c3d0500010000004c3d0500b0b0a88089
:101ec4005c3d0500010000006c3d050001000000c0
:101ed4007c3d0500010000008c3d0500a908b1808f
:101ee4009c3d050001000000ac3d0500b0a82f801a
:101ef400bc3d050001000000cc3d050001000000d0
:101f0400dc3d0500b0a81d80ec3d0500b0a825808f
:101f1400fc3d0500b0a821800c3e0500b0a82d8032
:101f24001c3e0500b0a801802c3e0500b0a80f801f
:101f34003c3e0500b0a821804c3e0500b0a81580a9
:101f44005c3e0500b0b0a8806c3e0500b0a80f80d0
:101f54007c3e0500b0a80b808c3e0500b0a80f8025
:101f64009c3e0500b0a80f80ac3e0500b0a81580cb
:101f7400d43e0500b0a80d80e43e0500b0a80d8055
:101f8400f43e0500b0a80180043f0500b0a80d8010
:101f9400143f0500b0a81b80243f0500b0a80d80a5
:101fa400343f0500b0a80780443f0500b0a8118065
:101fb400543f0500b0a81180643f0500b0a80b8011
:101fc400743f0500b0a80d80843f0500b0a80d80c3
:101fd400943f0500b0a80580a43f0500010000005f
:101fe400b43f0500b0a80580c43f0500b0a8138025
:101ff400d43f0500b0a80b80e43f0500b0a80b80d7
:10200400f43f0500b0a8098004400500b0a8318061
:102014002c400500b0a803803c400500b0a80f8008
:102024004c400500b0b0a8805c400500b0a8038017
:102034006c400500b0a80580c4400500b0a80f801e
:10204400d440050001000000e44005000100000048
:10205400f4400500010000000441050001000000f7
:1020640014410500010000002441050001000000a6
:102074003441050001000000444105000100000056
:102084005241050001000000604105000084028007
:102094006e410500008412807c41050000840280aa
:1020a4008a41050000e2ff7f984105000084168004
:1020b400a641050000840480b441050084e2ff7f4a
:1020c400c241050000840680d041050000840280de
:1020d400de41050001000000ec41050001000000a4
:1020e400fa4105000100000008420500010000005b
:1020f400164205009ce3ff7f244205000100000016
:1021040070420500010000007c42050054e0ff7f9e
:10211400884205000100000094420500b0b0a88088
:10212400a042050001000000ac42050001000000cf
:10213400b842050001000000c4420500010000008f
:10214400d0420500b0b0a880f042050070e1ff7fe6
:102154003843050001000000204405000100000090
:102164002c44050000e2ff7f384405000100000014
:1021740080440500010000008c44050001000000bb
:102184009844050001000000a4440500010000007b
:10219400c4440500b0b0a880ce440500b0b0a88007
:1021a400d8440500b0b0a880e24405000100000056
:1021b400ec440500b0b0a880f6440500010000001e
:1021c40018460500b0b0a8802046050001000000b4
:1021d400284605000100000030460500010000000b
:1021e40038460500010000004046050001000000db
:1021f40048460500010000005046050001000000ab
:10220400584605000100000060460500010000007a
:1022140068460500010000007046050010e0ff7fdd
:102224007846050014e0ff7f8046050018e0ff7f34
:102234008846050001000000a0460500b0b0a88053
:10224400a8460500b0b0a880d0460500ace0ff7fea
:10225400e8460500b0b0a880404705000100000032
:10226400484705000100000050470500ece0ff7fef
:102274006847050001000000704705005ce1ff7f2e
:102284007847050008849780904705000100000006
:1022940028480500b0b0a8802e48050001000000c1
:1022a40034480500010000003a4805000100000020
:1022b40040480500010000004648050001000000f8
:1022c4004c480500010000005248050001000000d0
:1022d40058480500010000005e48050001000000a8
:1022e40064480500010000006a4805000100000080
:1022f4001c4905003cdeff7f2049050040deff7fce
:102304002449050044deff7f2849050048deff7f9d
:1023140038490500010000003c49050001000000a7
:102324004049050001000000444905000100000087
:1023340048490500010000004c49050050dfff7fbb
:1023440050490500b0b0a8805449050064dfff7f00
:102354007c49050001000000bc49050001000000a3
:10236400c049050001000000c44905000100000047
:10237400c849050001000000cc4905000100000027
:10238400d049050001000000d44905000100000007
:10239400444a050001000000464a0500010000000f
:1023a400484a0500010000004a4a0500fcddff7fa1
:1023b4004c4a0500010000004e4a05001cdeff7f68
:1023c400504a050001000000524a0500b8ddff7fb5
:1023d400524a050001000000524a050001000000b5
:1023e400524a050001000000524a050010deff7f3a
:1023f4005c4a0500a4deff7f844a0500010000005a
:10240400a44a050001000000a44a050001000000e0
:10241400a44a050001000000a44a050001000000d0
:10242400dc4a050001000000da4a05000100000052
:10243400d84a050001000000d64a0500010000004a
:10244400d44a050001000000d24a05000100000042
:10245400d04a050001000000ce4a0500010000003a
:10246400cc4a050001000000ca4a05000100000032
:10247400c84a050001000000c64a0500010000002a
:10248400c44a050001000000c24a05000100000022
:10249400c04a050001000000be4a0500010000001a
:1024a400bc4a050001000000ba4a05000100000012
:1024b400b84a050001000000b64a0500010000000a
:1024c400b44a050001000000b24a05000100000002
:1024d400b04a050001000000ae4a050001000000fa
:1024e400aa4a050001000000a64a050001000000f8
:1024f400a24a0500010000009e4a050001000000f8
:102504009a4a050001000000964a050001000000f7
:10251400924a0500010000008e4a050001000000f7
:102524008a4a050001000000864a050001000000f7
:10253400824a0500010000007e4a050001000000f7
:102544007a4a050001000000764a050001000000f7
:10255400724a0500010000006e4a050001000000f7
:102564006a4a050001000000664a050001000000f7
:10257400624a0500010000005e4a050001000000f7
:102584005a4a050001000000564a050001000000f7
:10259400524a050001000000544a050001000000f1
:1025a400544a050001000000504a050001000000e3
:1025b4004c4a050001000000484a050001000000e3
:0825c400444a0500010000007b
:020000040000fa
:020000040040ba
:1025cc0000000000000000000000000000000000ff
:1025dc0000000000000000000018000802a023f812
:1025ec0023f823f823f823f823f823f823f823f807
:1025fc0023f802a0000800180000000000000000f2
:10260c0000000000000000000000000000000000be
:10261c0000000000000000000000000000000000ae
:10262c00000000000030015023f823f823f823f8b1
:10263c0023f823f823f823f823f823f823f823f8b6
:10264c0023f823f823f823f8015000300000000091
:10265c00000000000000000000000000000000006e
:10266c00000000000000000000000000000000005e
:10267c000000002003e823f823f823f823f823f8bc
:10268c0023f823f823f823f823f823f823f823f866
:10269c0023f823f823f823f823f803e8002000009c
:1026ac00000000000000000000000000000000001e
:1026bc00000000000000000000000000000000000e
:1026cc0003f003e823f823f823f823f823f823f87e
:1026dc0023f823f823f823f823f823f823f823f816
:1026ec0023f823f823f823f823f823f803e803f05e
:1026fc0000000000000000000000000000000000ce
:10270c00000000000000000000000000000003f8c2
:10271c0023f823f823f823f823f823f823f823f8d5
:10272c0001f801f801f801f801f801f801f801f8d5
:10273c0023f823f823f823f823f823f823f823f8b5
:10274c0003f8000000000000000000000000000082
:10275c0000000000000000000000000802d023f878
:10276c0023f823f823f823f823f823f823f801f8a7
:10277c006ffb0efb0efb0efb0efb0efb0efb6ffb43
:10278c0001f823f823f823f823f823f823f823f887
:10279c0023f802d000080000000000000000000038
:1027ac000000000000000000000002d023f823f815
:1027bc0023f823f823f823f823f823f823f800f858
:1027cc00ffffffffffffffffffffffffffffffff0d
:1027dc0000f823f823f823f823f823f823f823f838
:1027ec0023f823f802d000000000000000000000d5
:1027fc00000000000000000023f823f823f823f861
:10280c0023f823f823f823f823f823f823f800f807
:10281c00ffffffffffffffffffffffffffffffffbc
:10282c0000f823f823f823f823f823f823f823f8e7
:10283c0023f823f823f823f8000000000000000020
:10284c0000000000000003f023f823f823f823f81d
:10285c0023f823f823f823f823f823f823f800f8b7
:10286c00ffffffffffffffffffffffffffffffff6c
:10287c0000f823f823f823f823f823f823f823f897
:10288c0023f823f823f823f803f0000000000000dd
:10289c0000000000002803e823f823f823f823f8ad
:1028ac0023f823f823f823f823f823f823f800f867
:1028bc00ffffffffffffffffffffffffffffffff1c
:1028cc0000f823f823f823f823f823f823f823f847
:1028dc0023f823f823f823f803e80028000000006d
:1028ec0000000000029823f823f823f823f823f8bb
:1028fc0023f823f823f823f823f823f823f800f817
:10290c00ffffffffffffffffffffffffffffffffcb
:10291c0000f823f823f823f823f823f823f823f8f6
:10292c0023f823f823f823f823f80298000000007a
:10293c000000014803f823f823f823f823f823f8c0
:10294c0023f823f823f823f823f823f823f800f8c6
:10295c00ffffffffffffffffffffffffffffffff7b
:10296c0000f823f823f823f823f823f823f823f8a6
:10297c0023f823f823f823f823f803f80148000080
:10298c000000015823f823f823f823f823f823f840
:10299c0023f823f823f823f823f823f823f800f876
:1029ac00ffffffffffffffffffffffffffffffff2b
:1029bc0000f823f823f823f823f823f823f823f856
:1029cc0023f823f823f823f823f823f80158000000
:1029dc00000002a023f823f823f823f823f823f8a7
:1029ec0023f823f823f823f823f823f823f800f826
:1029fc00ffffffffffffffffffffffffffffffffdb
:102a0c0000f823f823f823f823f823f823f823f805
:102a1c0023f823f823f823f823f823f802a0000066
:102a2c00001823f823f823f823f823f823f823f8c5
:102a3c0023f823f823f823f823f823f823f800f8d5
:102a4c00ffffffffffffffffffffffffffffffff8a
:102a5c0000f823f823f823f823f823f823f823f8b5
:102a6c0023f823f823f823f823f823f823f8001885
:102a7c00001023f823f823f823f823f823f823f87d
:102a8c0023f823f823f823f823f823f823f800f885
:102a9c00ffffffffffffffffffffffffffffffff3a
:102aac0000f823f823f823f823f823f823f823f865
:102abc0023f823f823f823f823f823f823f800103d
:102acc00003023f823f823f823f823f823f823f80d
:102adc0023f823f823f823f823f823f823f800f835
:102aec00ffffffffffffffffffffffffffffffffea
:102afc0000f823f823f823f823f823f823f823f815
:102b0c0023f823f823f823f823f823f823f80030cc
:102b1c0023f823f823f823f823f823f823f823f8d1
:102b2c0023f823f823f823f823f823f823f800f8e4
:102b3c00ffffffffffffffffffffffffffffffff99
:102b4c0000f823f823f823f823f823f823f823f8c4
:102b5c0023f823f823f823f823f823f823f823f891
:102b6c0023f823f823f823f823f823f823f823f881
:102b7c0023f823f823f823f823f823f823f800f894
:102b8c00ffffffffffffffffffffffffffffffff49
:102b9c0000f823f823f823f823f823f823f823f874
:102bac0023f823f823f823f823f823f823f823f841
:102bbc0023f823f823f823f823f823f823f823f831
:102bcc0023f823f823f823f823f823f823f800f844
:102bdc00fffffffffffffffffffffffffffffffff9
:102bec0000f823f823f823f823f823f823f823f824
:102bfc0023f823f823f823f823f823f823f823f8f1
:102c0c0023f823f823f823f823f823f823f823f8e0
:102c1c0023f823f823f823f823f823f823f800f8f3
:102c2c00ffffffffffffffffffffffffffffffffa8
:102c3c0000f823f823f823f823f823f823f823f8d3
:102c4c0023f823f823f823f823f823f823f823f8a0
:102c5c0023f823f823f823f823f823f823f823f890
:102c6c0023f823f823f823f823f823f823f800f8a3
:102c7c00ffffffffffffffffffffffffffffffff58
:102c8c0000f823f823f823f823f823f823f823f883
:102c9c0023f823f823f823f823f823f823f823f850
:102cac00016823f823f823f823f823f823f823f8f2
:102cbc0023f823f823f823f823f823f823f801f852
:102ccc006ffb0efb0efb0efb0efb0efb0efb6ffbee
:102cdc0001f823f823f823f823f823f823f823f832
:102cec0023f823f823f823f823f823f823f80168b2
:102cfc00000823f823f823f823f823f823f823f803
:102d0c0023f823f823f823f823f823f823f823f8df
:102d1c0001f801f801f801f801f801f801f801f8df
:102d2c0023f823f823f823f823f823f823f823f8bf
:102d3c0023f823f823f823f823f823f823f80008c2
:102d4c00001823f823f823f823f823f823f823f8a2
:102d5c0023f823f823f823f823f823f823f802f8b0
:102d6c0047f906f906f906f906f906f947f923f8c1
:102d7c0003f823f823f823f823f823f823f823f88f
:102d8c0023f823f823f823f823f823f823f8001862
:102d9c00001823f823f823f823f823f823f823f852
:102dac0023f823f823f823f823f823f823f800f862
:102dbc00ffffffffffffffffffffffffffff47f9d5
:102dcc0002f823f823f823f823f823f823f823f840
:102ddc0023f823f823f823f823f823f823f8001812
:102dec00000002a023f823f823f823f823f823f893
:102dfc0023f823f823f823f823f823f823f800f812
:102e0c00ffffffffffffffffffffffffffff07f9c4
:102e1c0002f823f823f823f823f823f823f823f8ef
:102e2c0023f823f823f823f823f823f802a0000052
:102e3c000000016023f823f823f823f823f823f883
:102e4c0023f823f823f823f823f823f823f800f8c1
:102e5c00ffffffffffffffffffffffffffff07f974
:102e6c0002f823f823f823f823f823f823f823f89f
:102e7c0023f823f823f823f823f823f80160000043
:102e8c0000000000029023f823f823f823f823f81d
:102e9c0023f823f823f823f823f823f823f800f871
:102eac00ffffffffffffffffffffffffffff07f924
:102ebc0002f823f823f823f823f823f823f823f84f
:102ecc0023f823f823f823f823f8029000000000dd
:102edc0000000000015003f023f823f823f823f836
:102eec0023f823f823f823f823f823f823f800f821
:102efc00ffffffffffffffffffffffffffff07f9d4
:102f0c0002f823f823f823f823f823f823f823f8fe
:102f1c0023f823f823f823f803f0015000000000f5
:102f2c0000000000000003e823f823f823f823f83e
:102f3c0023f823f823f823f823f823f823f800f8d0
:102f4c00ffffffffffffffffffffffffffff07f983
:102f5c0002f823f823f823f823f823f823f823f8ae
:102f6c0023f823f823f823f803e8000000000000fe
:102f7c00000000000000000024f823f823f823f8d8
:102f8c0023f823f823f823f823f823f823f800f880
:102f9c00ffffffffffffffffffffffffffff47f9f3
:102fac0002f823f823f823f823f823f823f823f85e
:102fbc0023f823f823f824f8000000000000000098
:102fcc000000000000000000000823f823f823f89c
:102fdc0023f823f803f823f823f823f823f823f82d
:102fec0000f800f800f800f800f800f800f802f813
:102ffc0023f823f823f823f823f823f823f823f8ed
:10300c0023f823f823f8000800000000000000005b
:10301c000000000000000000000802d023f823f894
:10302c0023f803f823f803f823f823f823f823f8fc
:10303c0023f823f823f823f823f823f823f823f8ac
:10304c0023f823f823f823f823f823f823f823f89c
:10305c0023f823f802d00008000000000000000054
:10306c0000000000000000000000000802d023f85f
:10307c0023f803f823f803f823f823f823f823f8ac
:10308c0023f823f823f823f823f823f823f823f85c
:10309c0023f823f823f823f823f823f823f823f84c
:1030ac0023f802d00008000000000000000000001f
:1030bc0000000000000000000000000000080008f4
:1030cc0024f823f803f823f823f823f823f823f83b
:1030dc0023f823f823f823f823f823f823f823f80c
:1030ec0023f823f823f823f823f823f823f824f8fb
:1030fc0000080008000000000000000000000000b4
:10310c0000000000000000000000000000000000b3
:10311c00000023f823f823f823f823f823f823f8e6
:10312c0023f823f823f823f823f823f823f823f8bb
:10313c0023f823f823f823f823f823f823f80000c6
:10314c000000000000000000000000000000000073
:10315c000000000000000000000000000000000063
:10316c0000000028029803f823f823f823f823f82a
:10317c0023f823f823f823f823f823f823f823f86b
:10318c0023f823f823f823f803f80298002800000a
:10319c000000000000000000000000000000000023
:1031ac000000000000000000000000000000000013
:1031bc000000000000000148015802a023f823f889
:1031cc0023f823f823f823f823f823f823f823f81b
:1031dc0023f823f802a00158014800000000000069
:1031ec0000000000000000000000000000000000d3
:1031fc0000000000000000000000000000000000c3
:10320c00000000000000000000000000001800009a
:10321c0023f823f823f823f823f823f823f823f8ca
:10322c00000000180000000000000000000000007a
:10323c000000000000000000000000000000000082
:10324c000000000000000000000000000000000072
:10325c00000000000000000000000000e3028606f1
:10326c00c807880788078807880788078807c8075a
:10327c008606e302000000000000000000000000d1
:10328c000000000000000000000000000000000032
:10329c000000000000000000000000000000000022
:1032ac000000000080004202e605e907e907c807b4
:1032bc00880788078807880788078807880788078a
:1032cc00c807e907e907e605420280000000000094
:1032dc0000000000000000000000000000000000e2
:1032ec0000000000000000000000000000000000d2
:1032fc000000e201c605e907e80788078807880788
:10330c008807880788078807880788078807880739
:10331c00880788078807e807e907c605e201000067
:10332c000000000000000000000000000000000091
:10333c000000000000000000000000000000800001
:10334c0024046807e907880788078807880788071f
:10335c0088078807880788078807880788078807e9
:10336c0088078807880788078807e90768072404ff
:10337c0080000000000000000000000000000000c1
:10338c000000000000000000000000008101a60504
:10339c00e907c80788078807880788078807870709
:1033ac0087078707870787078707870787078707a1
:1033bc00880788078807880788078807c807e907e8
:1033cc00a6058101000000000000000000000000c4
:1033dc0000000000000000000000a101a706e807a3
:1033ec00880788078807880788078807870787075b
:1033fc00891f8917891789178917891789178917b9
:10340c008707880788078807880788078807880739
:10341c00e807a706a1010000000000000000000062
:10342c000000000000000000a0002606e807880746
:10343c0088078807880788078807880786078b27e7
:10344c00fff7fde7fde7fde7fde7fde7fde7ffff24
:10345c00630788078807880788078807880788070d
:10346c008807e8072606a000000000000000000006
:10347c000000000000006000a605e8078807880728
:10348c008807880788078807880788078607aa2778
:10349c00ffffffffffffffffffffffffffffffff30
:1034ac0062078807880788078807880788078807be
:1034bc0088078807e807a6056000000000000000e8
:1034cc000000000000004404e9078807880788070b
:1034dc008807880788078807880788078607aa2728
:1034ec00ffffffffffffffffffffffffffffffffe0
:1034fc00620788078807880788078807880788076e
:10350c00880788078807e9074404000000000000ca
:10351c0000000000e201a807c80788078807880791
:10352c008807880788078807880788078607aa27d7
:10353c00ffffffffffffffffffffffffffffffff8f
:10354c00620788078807880788078807880788071d
:10355c00880788078807c807a807e2010000000051
:10356c0000002000c504e90788078807880788073a
:10357c008807880788078807880788078607aa2787
:10358c00ffffffffffffffffffffffffffffffff3f
:10359c0062078807880788078807880788078807cd
:1035ac008807880788078807e907c50420000000fa
:1035bc0000004101e807a8078807880788078807e3
:1035cc008807880788078807880788078607aa2737
:1035dc00ffffffffffffffffffffffffffffffffef
:1035ec00620788078807880788078807880788077d
:1035fc008807880788078807a807e80741010000a3
:10360c000000e302e907880788078807880788070e
:10361c008807880788078807880788078607aa27e6
:10362c00ffffffffffffffffffffffffffffffff9e
:10363c00620788078807880788078807880788072c
:10364c0088078807880788078807e907e3020000ce
:10365c0000006707c8078807880788078807880756
:10366c008807880788078807880788078607aa2796
:10367c00ffffffffffffffffffffffffffffffff4e
:10368c0062078807880788078807880788078807dc
:10369c0088078807880788078807c8076707000016
:1036ac000000ea07880788078807880788078807c3
:1036bc008807880788078807880788078607aa2746
:1036cc00fffffffffffffffffffffffffffffffffe
:1036dc00620788078807880788078807880788078c
:1036ec00880788078807880788078807ea07000083
:1036fc006303e9078807880788078807880788070e
:10370c008807880788078807880788078607aa27f5
:10371c00ffffffffffffffffffffffffffffffffad
:10372c00620788078807880788078807880788073b
:10373c00880788078807880788078807e9076303cd
:10374c00e403e8078807880788078807880788073d
:10375c008807880788078807880788078607aa27a5
:10376c00ffffffffffffffffffffffffffffffff5d
:10377c0062078807880788078807880788078807eb
:10378c00880788078807880788078807e807e403fd
:10379c00e807680788078807880788078807880765
:1037ac008807880788078807880788078607aa2755
:1037bc00ffffffffffffffffffffffffffffffff0d
:1037cc00620788078807880788078807880788079b
:1037dc008807880788078807880788076807e80725
:1037ec008807880788078807880788078807880755
:1037fc008807880788078807880788078607aa2705
:10380c00ffffffffffffffffffffffffffffffffbc
:10381c00620788078807880788078807880788074a
:10382c008807880788078807880788078807880714
:10383c008807880788078807880788078807880704
:10384c008807880788078807880788078607aa27b4
:10385c00ffffffffffffffffffffffffffffffff6c
:10386c0062078807880788078807880788078807fa
:10387c0088078807880788078807880788078807c4
:10388c0088078807880788078807880788078807b4
:10389c008807880788078807880788078607aa2764
:1038ac00ffffffffffffffffffffffffffffffff1c
:1038bc0062078807880788078807880788078807aa
:1038cc008807880788078807880788078807880774
:1038dc008807880788078807880788078807880764
:1038ec008807880788078807880788078607ab2713
:1038fc00ffffffffffffffffffffffffffffffffcc
:10390c006207880788078807880788078807880759
:10391c008807880788078807880788078807880723
:10392c00e8076807880788078807880788078807d3
:10393c0088078807880788078807880786078a1feb
:10394c00fef7dbcfdbd7dbd7dbd7dbd7fcd7fbd75f
:10395c006307880788078807880788078807880708
:10396c008807880788078807880788076807e80793
:10397c00e403e8078807880788078807880788070b
:10398c0088078807880788078807880788078707b4
:10399c00650765076507650765076507650786079a
:1039ac008807880788078807880788078807880793
:1039bc00880788078807880788078807e807e403cb
:1039cc006303e9078807880788078807880788073b
:1039dc008807880788078807880788078807880763
:1039ec008607650765076507650765076507870728
:1039fc008807880788078807880788078807880743
:103a0c00880788078807880788078807e9076303fa
:103a1c000000ea078807880788078807880788074f
:103a2c008807880788078807880788078807630737
:103a3c00fbd7fcd7dbd7dbd7dbd7dbcffeefaf5722
:103a4c0086078807880788078807880788078807f4
:103a5c00880788078807880788078807ea0700000f
:103a6c0000006707c8078807880788078807880742
:103a7c0088078807880788078807880788076207e8
:103a8c00ffffffffffffffffffffffffffffb16f18
:103a9c0085078807880788078807880788078807a5
:103aac0088078807880788078807c8076707000002
:103abc000000e302e907880788078807880788075a
:103acc008807880788078807880788078807620798
:103adc00ffffffffffffffffffffffffffffb167d0
:103aec008507880788078807880788078807880755
:103afc0088078807880788078807e907e30200001a
:103b0c0000000101a807c8078807880788078807ed
:103b1c008807880788078807880788078807620747
:103b2c00ffffffffffffffffffffffffffffb1677f
:103b3c008507880788078807880788078807880704
:103b4c008807880788078807c807a80701010000ad
:103b5c00000000002404e907880788078807880705
:103b6c0088078807880788078807880788076207f7
:103b7c00ffffffffffffffffffffffffffffb1672f
:103b8c0085078807880788078807880788078807b4
:103b9c008807880788078807e907240400000000c5
:103bac000000000001012606e8078807880788073f
:103bbc0088078807880788078807880788076207a7
:103bcc00ffffffffffffffffffffffffffffb167df
:103bdc008507880788078807880788078807880764
:103bec00880788078807e8072606010100000000ff
:103bfc00000000000000c403e90788078807880755
:103c0c008807880788078807880788078807620756
:103c1c00ffffffffffffffffffffffffffffb2777d
:103c2c008507880788078807880788078807880713
:103c3c00880788078807e907c40300000000000014
:103c4c0000000000000000006504e80788078807f2
:103c5c0088078807880788078807880788078607e2
:103c6c00b067b167b05fb05fb05fb05fb26f8b2f02
:103c7c0087078807880788078807880788078807c1
:103c8c0088078807e80765040000000000000000b2
:103c9c000000000000000000c000c605e80788070f
:103cac008807880788078807880788078807880790
:103cbc008507850785078507850785078507870796
:103ccc008807880788078807880788078807880770
:103cdc008807e807c605c0000000000000000000cf
:103cec000000000000000000000021012606e8078b
:103cfc008807880788078807880788078807880740
:103d0c00880788078807880788078807880788072f
:103d1c00880788078807880788078807880788071f
:103d2c00e80726062101000000000000000000004a
:103d3c00000000000000000000000000010164040d
:103d4c00e907c8078807880788078807880788074e
:103d5c0088078807880788078807880788078807df
:103d6c00880788078807880788078807c807e9072e
:103d7c0064040101000000000000000000000000cd
:103d8c000000000000000000000000000000000027
:103d9c0044046707e907a807880788078807880786
:103dac00880788078807880788078807880788078f
:103dbc008807880788078807a807e9076707440466
:103dcc0000000000000000000000000000000000e7
:103ddc0000000000000000000000000000000000d7
:103dec000000e201a605e907e907a807880788078c
:103dfc00880788078807880788078807880788073f
:103e0c0088078807a807e907e907a605e20100006b
:103e1c000000000000000000000000000000000096
:103e2c000000000000000000000000000000000086
:103e3c000000000060004101e403e907e907e8071e
:103e4c0088078807880788078807880788078807ee
:103e5c00e807e907e907e4034101600000000000fe
:103e6c000000000000000000000000000000000046
:103e7c000000000000000000000000000000000036
:103e8c00000000000000000000000000a10144043c
:103e9c00e807880788078807880788078807e807de
:103eac004404a1010000000000000000000000001c
:103ebc0000000000000000000000000000000000f6
:103ecc000000000f0003e00078000f0000f0001e5f
:103edc000003e0003e0003c0003e0003e0003f0092
:103eec0001f0001f8000fc0007f0003ff000fe0016
:103efc00000000000060000600106083861c1c039c
:103f0c00808f1001f8003fc007fe0e7fefe7fef038
:103f1c007fe003fc001f8008f101c0383861c10646
:103f2c000800600006000000000000000000000314
:103f3c00fffc3fffc1fff81fff80fff00fff007f6a
:103f4c00e007fe003fc001f8001f8000f0000f00ea
:103f5c0000600000000000000000000000000000f5
:103f6c0000000000060000f0000f0001f8001f80a8
:103f7c0003fc007fe007fe00fff00fff01fff81fbe
:103f8c00ff83fffc3fffc0000000000000000000aa
:103f9c00a2ffa2ffa2ffa2ffa2ffa2ffa2ffa2ff0d
:103fac00a2ffa2ffa2ffa2ffa2ffa2ffa2ffa2fffd
:103fbc00a2ffa2ffa2ffa2ffa2ffa2ffa2ffa2ffed
:103fcc00a2ffa2ffa2ffa2ffa2ffa2ffa2ffa2ffdd
:103fdc00a2ffa2ffa2ffa2ffa2ffa2ffa2ffa2ffcd
:103fec00a2ffa2ffa2ffa2ffa2ffa2ffa2ffa2ffbd
:103ffc00a2ffa2ffa2ffa2ffa2ffa2ffa2ffa2ffad
:10400c00a2ffa2ffa2ffa2ffa2ffa2ffa2ffa2ff9c
:10401c00a2ffa2ffa2ffa2ffa2ffa2ffa2ffa2ff8c
:10402c00a2ffa2ffa2ffa2ffa2ffa2ffa2ffa2ff7c
:10403c00a2ffa2ffa2ffa2ffa2ffa2ffa2ffa2ff6c
:10404c00a2ffa2ffa2ffa2ff0000000000000000e0
:10405c000000a2ffa2ff0000000000000000000012
:10406c00a2ffa2ff00000000000000000000a2ff61
:10407c00a2ff00000000000000000000a2ffa2ff51
:10408c0000000000000000000000a2ffa2ff0000e2
:10409c000000000000000000a2ffa2ff00000000d2
:1040ac00000000000000a2ffa2ff000000000000c2
:1040bc0000000000a2ffa2ff0000000000000000b2
:1040cc000000a2ffa2ff00000000000000000000a2
:1040dc00a2ffa2ffa2ffa2ffa2ffa2ffa2ffa2ffcc
:1040ec00a2ffa2ffa2ffa2ffa2ffa2ffa2ffa2ffbc
:1040fc00a2ffa2ffa2ffa2ffa2ffa2ffa2ffa2ffac
:10410c00a2ffa2ffa2ffa2ffa2ffa2ffa2ffa2ff9b
:10411c000000000000000000000000000000000093
:10412c000000000000000000000000000000000083
:10413c0000000000000000000000a2ffa2ff000031
:10414c000000000000000000000000000000000063
:10415c000000000000000000000000000000000053
:10416c000000000000000000a2ffa2ff0000000001
:10417c000000000000000000000000000000000033
:10418c000000000000000000000000000000000023
:10419c00000000000000a2ffa2ff000000000000d1
:1041ac000000000000000000000000000000000003
:1041bc0000000000000000000000000000000000f3
:1041cc0000000000a2ffa2ff0000000000000000a1
:1041dc0000000000000000000000000000000000d3
:1041ec0000000000000000000000000000000000c3
:1041fc000000a2ffa2ff0000000000000000000071
:10420c0000000000000000000000000000000000a2
:10421c000000000000000000000000000000000092
:10422c00a2ffa2ff00000000000000000000000040
:10423c000000000000000000000000000000000072
:10424c000000000000000000000000000000a2ffc1
:10425c00a2ff0000000000000000000000000000b1
:10426c000000000000000000000000000000000042
:10427c00000000000000000000000000a2ffa2fff0
:10428c000000000000000000000000000000000022
:10429c000000000000000000000000000000000012
:1042ac0000000000000000000000a2ffa2ff0000c0
:1042bc0000000000000000000000000000000000f2
:1042cc0000000000000000000000000000000000e2
:1042dc000000000000000000a2ffa2ffa2ffa2ff4e
:1042ec00a2ffa2ffa2ffa2ffa2ffa2ffa2ffa2ffba
:1042fc00a2ffa2ffa2ffa2ffa2ffa2ffa2ffa2ffaa
:10430c00a2ffa2ffa2ffa2ff00000000000000001d
:10431c000000000040f340eb40eb40eb40eb40eb87
:10432c0040eb40eb40eb40eb40eb40eb40eb40eb29
:10433c0040eb40eb40eb40eb40eb60f30000000047
:10434c000000000000000000000000000000000061
:10435c0040f340eb40eb60f360f380fb80fb80fbb1
:10436c0080fb80fb80fb80fb80fb80fb80fb80fb69
:10437c0080fb80fb80fb60f360f340eb40eb60f371
:10438c00000000000000000000000000000040f3ee
:10439c0040eb60f380fb80fb80fb80fb80fb80fbb1
:1043ac0080fb80fb80fb80fb80fb80fb80fb80fb29
:1043bc0080fb80fb80fb80fb80fb80fb60f340eb91
:1043cc0060f30000000000000000000040f340eb30
:1043dc0060f380fb80fb80fb80fb80fb80fb80fb21
:1043ec0080fb80fb80fb80fb80fb80fb80fb80fbe9
:1043fc0080fb80fb80fb80fb80fb80fb80fb60f301
:10440c0040eb40f300000000000040f340eb60f391
:10441c0080fb80fb80fb80fb80fb80fb80fb80fbb8
:10442c0080fb80fb80fb80fb80fb80fb80fb80fba8
:10443c0080fb80fb80fb80fb80fb80fb80fb80fb98
:10444c0060f340eb60f30000000040eb60f380fb96
:10445c0080fb80fb80fb80fb80fb80fb80fb80fb78
:10446c0080fb80fb80fb80fb80fb80fb80fb80fb68
:10447c0080fb80fb80fb80fb80fb80fb80fb80fb58
:10448c0080fb60f340eb000040eb40eb80fb80fbdb
:10449c0080fb80fb80fb80fb80fb80fb80fb80fb38
:1044ac0080fb80fb80fb80fb80fb80fb80fb80fb28
:1044bc0080fb80fb80fb80fb80fb80fb80fb80fb18
:1044cc0080fb80fb40eb60f340eb60f380fb80fbf8
:1044dc0080fb80fb80fb80fb80fb80fb80fb80fbf8
:1044ec0080fb80fb80fb80fb80fb80fb80fb80fbe8
:1044fc0080fb80fb80fb80fb80fb80fb80fb80fbd8
:10450c0080fb80fb40eb40eb40eb60f380fb80fbdf
:10451c0080fb80fb80fb80fb80fb80fb80fb80fbb7
:10452c0080fb80fb80fb80fb80fb80fb80fb80fba7
:10453c0080fb80fb80fb80fb80fb80fb80fb80fb97
:10454c0080fb80fb60f340eb40eb80fb80fb80fb4f
:10455c0080fb80fb80fb80fb80fb80fb80fb80fb77
:10456c0080fb80fb80fb80fb80fb80fb80fb80fb67
:10457c0080fb80fb80fb80fb80fb80fb80fb80fb57
:10458c0080fb80fb60fb40eb40eb80fb80fb80fb07
:10459c0080fb80fb80fb80fb80fb80fb80fb80fb37
:1045ac0080fb80fb80fb80fb80fb80fb80fb80fb27
:1045bc0080fb80fb80fb80fb80fb80fb80fb80fb17
:1045cc0080fb80fb80fb40eb40eb80fb80fb80fba7
:1045dc0080fb87fc0afd0afd03fc80fb80fb80fb53
:1045ec0080fb80fb80fb0afd0afd87fc80fb80fbc7
:1045fc0080fb80fb80fb80fb80fb80fb80fb80fbd7
:10460c0080fb80fb80fb40eb40eb80fb80fb03fce2
:10461c00f8feffffffffffffffff11fe80fb80fb9b
:10462c0080fb11feffffffffffffffff7cff0afd7a
:10463c0080fb80fb80fb80fb80fb80fb80fb80fb96
:10464c0080fb80fb80fb40eb40eb80fb80fbf8feab
:10465c00ffffffff95fe7cffffffffff87fc80fb4a
:10466c008efdffffffff7cff95feffffffffffffaf
:10467c0003fc80fb80fb03fc0afd0afd03fc80fbb2
:10468c0080fb80fb80fb40eb40eb80fb03fcffffdf
:10469c00ffff11fe80fb03fc7cff95fe0afd80fbf7
:1046ac00f8feffff7cff80fb80fb87fcffffffff1a
:1046bc008efd80fb87fcffffffffffffffff0afd66
:1046cc0080fb80fb80fb40eb40eb80fb0afdffff97
:1046dc00ffff0afd80fb80fb80fb80fb80fb80fbe7
:1046ec00ffffffff95fe80fb80fb80fbffffffffc2
:1046fc0095fe80fb95feffff8efd8efdffff95fe68
:10470c0080fb80fb80fb40eb40eb80fb0afdffff56
:10471c00ffff0afd80fb80fb87fc80fb80fb80fb9e
:10472c00ffffffff95fe80fb80fb80fbffffffff81
:10473c0095fe80fb80fb80fb80fb95feffff8efdd2
:10474c0080fb80fb80fb40eb40eb80fb03fcffff1e
:10475c00ffff11fe80fb87fcffffffff8efd80fb40
:10476c00f8feffff7cff80fb80fb87fcffffffff59
:10477c008efd80fb80fb03fcf8feffff8efd80fbb3
:10478c0080fb80fb80fb40eb40eb80fb80fbf8fe6a
:10479c00ffffffff95fe7cffffffffff87fc80fb09
:1047ac008efdffffffff7cff95feffffffffffff6e
:1047bc0003fc80fb03fc7cffffff11fe0afd87fc62
:1047cc0080fb80fb80fb40eb40eb80fb80fb03fc21
:1047dc00f8feffffffffffffffff11fe80fb80fbda
:1047ec0080fb11feffffffffffffffff7cff0afdb9
:1047fc0080fb80fb8efdffffffffffffffff95fea1
:10480c0080fb80fb80fb40eb40eb80fb80fb80fb64
:10481c0080fb87fc0afd0afd03fc80fb80fb80fb10
:10482c0080fb80fb80fb0afd0afd0afd80fb80fb00
:10483c0080fb80fb87fc0afd0afd0afd0afd87fc54
:10484c0080fb80fb80fb40eb40eb80fb80fb80fb24
:10485c0080fb80fb80fb80fb80fb80fb80fb80fb74
:10486c0080fb80fb80fb80fb80fb80fb80fb80fb64
:10487c0080fb80fb80fb80fb80fb80fb80fb80fb54
:10488c0080fb80fb80fb40eb40eb80fb80fb80fbe4
:10489c0080fb80fb80fb80fb80fb80fb80fb80fb34
:1048ac0080fb80fb80fb80fb80fb80fb80fb80fb24
:1048bc0080fb80fb80fb80fb80fb80fb80fb80fb14
:1048cc0080fb80fb80fb40eb40eb60f380fb80fbcc
:1048dc0080fb80fb80fb80fb80fb80fb80fb80fbf4
:1048ec0080fb80fb80fb80fb80fb80fb80fb80fbe4
:1048fc0080fb80fb80fb80fb80fb80fb80fb80fbd4
:10490c0080fb80fb60f340eb40eb60f380fb80fbb3
:10491c0080fb80fb80fb80fb80fb80fb80fb80fbb3
:10492c0080fb80fb80fb80fb80fb80fb80fb80fba3
:10493c0080fb80fb80fb80fb80fb80fb80fb80fb93
:10494c0080fb80fb60f340eb40eb40eb80fb80fb9b
:10495c0080fb80fb80fb80fb80fb80fb80fb80fb73
:10496c0080fb80fb80fb80fb80fb80fb80fb80fb63
:10497c0080fb80fb80fb80fb80fb80fb80fb80fb53
:10498c0080fb80fb40eb40eb000040eb60f380fbd6
:10499c0080fb80fb80fb80fb80fb80fb80fb80fb33
:1049ac0080fb80fb80fb80fb80fb80fb80fb80fb23
:1049bc0080fb80fb80fb80fb80fb80fb80fb80fb13
:1049cc0080fb60f340eb0000000040eb40eb60f339
:1049dc0080fb80fb80fb80fb80fb80fb80fb80fbf3
:1049ec0080fb80fb80fb80fb80fb80fb80fb80fbe3
:1049fc0080fb80fb80fb80fb80fb80fb80fb80fbd3
:104a0c0060f340eb40f300000000000040eb40eb93
:104a1c0060f380fb80fb80fb80fb80fb80fb80fbda
:104a2c0080fb80fb80fb80fb80fb80fb80fb80fba2
:104a3c0080fb80fb80fb80fb80fb80fb80fb60f3ba
:104a4c0040eb40f30000000000000000000040ebd1
:104a5c0040eb60f380fb80fb80fb80fb80fb80fbea
:104a6c0080fb80fb80fb80fb80fb80fb80fb80fb62
:104a7c0080fb80fb80fb80fb80fb80fb60f340ebca
:104a8c0040eb0000000000000000000000000000ef
:104a9c0040eb40eb40eb60f360f380fb80fb80fb72
:104aac0080fb80fb80fb80fb80fb80fb80fb80fb22
:104abc0080fb80fb80fb60f360f340eb40eb40f34a
:104acc0000000000000000000000000000000000da
:104adc000000000040eb40eb40eb40eb40eb40ebc8
:104aec0040eb40eb40eb40eb40eb40eb40eb40eb62
:104afc0040eb40eb40eb40eb40eb40eb00000000a8
:104b0c000000000000000000000000000000000099
:104b1c000000000040f340eb40eb40eb40eb40eb7f
:104b2c0040eb40eb40eb40eb40eb40eb40eb40eb21
:104b3c0040eb40eb40eb40eb40eb60f3000000003f
:104b4c000000000000000000000000000000000059
:104b5c0040f340eb40eb60f360f380fb80fb80fba9
:104b6c0080fb80fb80fb80fb80fb80fb80fb80fb61
:104b7c0080fb80fb80fb60f360f340eb40eb60f369
:104b8c00000000000000000000000000000040f3e6
:104b9c0040eb60f380fb80fb80fb80fb80fb80fba9
:104bac0080fb80fb80fb80fb80fb80fb80fb80fb21
:104bbc0080fb80fb80fb80fb80fb80fb60f340eb89
:104bcc0060f30000000000000000000040f340eb28
:104bdc0060f380fb80fb80fb80fb80fb80fb80fb19
:104bec0080fb80fb80fb80fb80fb80fb80fb80fbe1
:104bfc0080fb80fb80fb80fb80fb80fb80fb60f3f9
:104c0c0040eb40f300000000000040f340eb60f389
:104c1c0080fb80fb80fb80fb80fb80fb80fb80fbb0
:104c2c0080fb80fb80fb80fb80fb80fb80fb80fba0
:104c3c0080fb80fb80fb80fb80fb80fb80fb80fb90
:104c4c0060f340eb60f30000000040eb60f380fb8e
:104c5c0080fb80fb80fb80fb80fb80fb80fb80fb70
:104c6c0080fb80fb80fb80fb80fb80fb80fb80fb60
:104c7c0080fb80fb80fb80fb80fb80fb80fb80fb50
:104c8c0080fb60f340eb000040eb40eb80fb80fbd3
:104c9c0080fb80fb80fb80fb80fb80fb80fb80fb30
:104cac0080fb80fb80fb80fb80fb80fb80fb80fb20
:104cbc0080fb80fb80fb80fb80fb80fb80fb80fb10
:104ccc0080fb80fb40eb60f340eb60f380fb80fbf0
:104cdc0080fb80fb80fb80fb80fb80fb80fb80fbf0
:104cec0080fb80fb80fb80fb80fb80fb80fb80fbe0
:104cfc0080fb80fb80fb80fb80fb80fb80fb80fbd0
:104d0c0080fb80fb40eb40eb40eb60f380fb80fbd7
:104d1c0080fb80fb80fb80fb80fb80fb80fb80fbaf
:104d2c0080fb80fb80fb80fb80fb80fb80fb80fb9f
:104d3c0080fb80fb80fb80fb80fb80fb80fb80fb8f
:104d4c0080fb80fb60f340eb40eb80fb80fb80fb47
:104d5c0080fb80fb80fb80fb80fb80fb80fb80fb6f
:104d6c0080fb80fb80fb80fb80fb80fb80fb80fb5f
:104d7c0080fb80fb80fb80fb80fb80fb80fb80fb4f
:104d8c0080fb80fb60fb40eb40eb80fb80fb80fbff
:104d9c0080fb80fb80fb80fb80fb80fb80fb80fb2f
:104dac0080fb80fb80fb80fb80fb80fb80fb80fb1f
:104dbc0080fb80fb80fb80fb80fb80fb80fb80fb0f
:104dcc0080fb80fb80fb40eb40ebeafc0afd0afd1c
:104ddc0080fb80fb80fb87fc0afd0afd03fc80fb4b
:104dec0080fb80fb0afd0afd87fc80fb80fb80fbbf
:104dfc0080fb80fb80fb03fc0afd0afd87fc80fb2b
:104e0c0080fb80fb80fb40eb40eb75feffffffff60
:104e1c0003fc80fb80fb95feffffffff80fb80fb0c
:104e2c0011feffffffffffffffff7cff0afd80fb72
:104e3c0080fb80fb11fefffffffffffffffff8fe73
:104e4c0003fc80fb80fb40eb40ebeafcffffffff29
:104e5c008efd80fb80fbffffffff95fe80fb8efd30
:104e6c00ffffffff7cff95feffffffffffff03fc33
:104e7c0080fb8efdfffffffff8fef8feffffffff3c
:104e8c0011fe80fb80fb40eb40eb80fb7cffffffc7
:104e9c00f8fe80fb87fcffffffff0afd80fbf8fe9e
:104eac00ffff7cff80fb80fb87fcffffffff8efd7d
:104ebc0080fbf8feffff7cff80fb80fbf8fe95fe7d
:104ecc0011fe80fb80fb40eb40eb80fb11fefffff3
:104edc00ffff03fc11feffffffff80fb80fbffffca
:104eec00ffff95fe80fb80fb80fbffffffff95fe25
:104efc0080fbffffffff95fe80fb80fb80fb80fbb0
:104f0c0080fb80fb80fb40eb40eb80fb03fcffff56
:104f1c00ffff0afdf8feffff11fe80fb80fbffff89
:104f2c00ffff95fe80fb80fb80fbffffffff95fee4
:104f3c0080fbffffffff95fe80fb80fb87fc80fb67
:104f4c0080fb80fb80fb40eb40eb80fb80fbf8fea2
:104f5c00ffff95feffffffff87fc80fb80fbf8fe49
:104f6c00ffff7cff80fb80fb87fcffffffff8efdbc
:104f7c0080fbf8feffff7cff80fb80fb7cffffffcc
:104f8c00f8fe80fb80fb40eb40eb80fb80fb8efd52
:104f9c00ffffffffffff7cff80fb80fb80fb8efd94
:104fac00ffffffff7cff95feffffffffffff03fcf2
:104fbc0080fb8efdfffffffff8fef8fefffffffffb
:104fcc0011fe80fb80fb40eb40eb80fb80fb80fb09
:104fdc00ffffffffffff11fe80fb80fb80fb80fbd0
:104fec0011feffffffffffffffff7cff0afd80fbb1
:104ffc0080fb80fb11fefffffffffffffffff8feb2
:10500c0003fc80fb80fb40eb40eb80fb80fb80fbd8
:10501c0087fc0afd0afd03fc80fb80fb80fb80fb08
:10502c0080fb80fb0afd0afd0afd80fb80fb80fbf8
:10503c0080fb80fb80fb03fc0afd0afd87fc80fbe8
:10504c0080fb80fb80fb40eb40eb80fb80fb80fb1c
:10505c0080fb80fb80fb80fb80fb80fb80fb80fb6c
:10506c0080fb80fb80fb80fb80fb80fb80fb80fb5c
:10507c0080fb80fb80fb80fb80fb80fb80fb80fb4c
:10508c0080fb80fb80fb40eb40eb80fb80fb80fbdc
:10509c0080fb80fb80fb80fb80fb80fb80fb80fb2c
:1050ac0080fb80fb80fb80fb80fb80fb80fb80fb1c
:1050bc0080fb80fb80fb80fb80fb80fb80fb80fb0c
:1050cc0080fb80fb80fb40eb40eb60f380fb80fbc4
:1050dc0080fb80fb80fb80fb80fb80fb80fb80fbec
:1050ec0080fb80fb80fb80fb80fb80fb80fb80fbdc
:1050fc0080fb80fb80fb80fb80fb80fb80fb80fbcc
:10510c0080fb80fb60f340eb40eb60f380fb80fbab
:10511c0080fb80fb80fb80fb80fb80fb80fb80fbab
:10512c0080fb80fb80fb80fb80fb80fb80fb80fb9b
:10513c0080fb80fb80fb80fb80fb80fb80fb80fb8b
:10514c0080fb80fb60f340eb40eb40eb80fb80fb93
:10515c0080fb80fb80fb80fb80fb80fb80fb80fb6b
:10516c0080fb80fb80fb80fb80fb80fb80fb80fb5b
:10517c0080fb80fb80fb80fb80fb80fb80fb80fb4b
:10518c0080fb80fb40eb40eb000040eb60f380fbce
:10519c0080fb80fb80fb80fb80fb80fb80fb80fb2b
:1051ac0080fb80fb80fb80fb80fb80fb80fb80fb1b
:1051bc0080fb80fb80fb80fb80fb80fb80fb80fb0b
:1051cc0080fb60f340eb0000000040eb40eb60f331
:1051dc0080fb80fb80fb80fb80fb80fb80fb80fbeb
:1051ec0080fb80fb80fb80fb80fb80fb80fb80fbdb
:1051fc0080fb80fb80fb80fb80fb80fb80fb80fbcb
:10520c0060f340eb40f300000000000040eb40eb8b
:10521c0060f380fb80fb80fb80fb80fb80fb80fbd2
:10522c0080fb80fb80fb80fb80fb80fb80fb80fb9a
:10523c0080fb80fb80fb80fb80fb80fb80fb60f3b2
:10524c0040eb40f30000000000000000000040ebc9
:10525c0040eb60f380fb80fb80fb80fb80fb80fbe2
:10526c0080fb80fb80fb80fb80fb80fb80fb80fb5a
:10527c0080fb80fb80fb80fb80fb80fb60f340ebc2
:10528c0040eb0000000000000000000000000000e7
:10529c0040eb40eb40eb60f360f380fb80fb80fb6a
:1052ac0080fb80fb80fb80fb80fb80fb80fb80fb1a
:1052bc0080fb80fb80fb60f360f340eb40eb40f342
:1052cc0000000000000000000000000000000000d2
:1052dc000000000040eb40eb40eb40eb40eb40ebc0
:1052ec0040eb40eb40eb40eb40eb40eb40eb40eb5a
:1052fc0040eb40eb40eb40eb40eb40eb00000000a0
:10530c000000000000000000000000000000000091
:10531c0000000000542c542c542c542c542c542c81
:10532c00542c542c542c542c542c542c542c542c71
:10533c00542c542c542c542c542c542c0000000061
:10534c000000000000000000000000000000000051
:10535c00542c542c542c542c542c542c542c542c41
:10536c00542c542c542c542c542c542c542c542c31
:10537c00542c542c542c542c542c542c542c542c21
:10538c000000000000000000000000000000542c91
:10539c00542c542c542c542c542c542c542c542c01
:1053ac00542c542c542c542c542c542c542c542cf1
:1053bc00542c542c542c542c542c542c542c542ce1
:1053cc00542c00000000000000000000542c542c51
:1053dc00542c542c542c542c542c542c542c542cc1
:1053ec00542c542c542c7bae9534542c542c542cbf
:1053fc00542c542c542c542c542c542c542c542ca1
:10540c00542c542c000000000000542c542c542c10
:10541c00542c542c542c542c542c542c542c542c80
:10542c00542c542c786dffff3a9e542c542c542c35
:10543c00542c542c542c542c542c542c542c542c60
:10544c00542c542c542c00000000542c542c542c50
:10545c00542c542c542c542c542c542c542c542c40
:10546c00542c75347ee7fffffffff64c542c542c64
:10547c00542c542c542c542c542c542c542c542c20
:10548c00542c542c542c0000542c542c542c542c90
:10549c00542c542c542c542c542c542c542c542c00
:1054ac00542c198effffffffffff3dd7742c542c9b
:1054bc00542c542c542c542c542c542c542c542ce0
:1054cc00542c542c542c542c542c542c542c542cd0
:1054dc00542c542c542c542c542c542c542c542cc0
:1054ec00b53cdff7ffffffffffffffff1996542cc2
:1054fc00542c542c542c542c542c542c542c542ca0
:10550c00542c542c542c542c542c542c542c542c8f
:10551c00542c542c542c542c542c542c542c542c7f
:10552c009baeffffffffffffffffffffdffff64c10
:10553c00542c542c542c542c542c542c542c542c5f
:10554c00542c542c542c542c542c542c542c542c4f
:10555c00542c542c542c542c542c542c542cf64c7d
:10556c00ffffffffffffffffffffffffffff3dd729
:10557c00742c542c542c542c542c542c542c542cff
:10558c00542c542c542c542c542c542c542c542c0f
:10559c00542c542c542c542c542c542c542cfcc6bd
:1055ac00ffffffffffffffffffffffffffffffffff
:1055bc001a96542c542c542c542c542c542c542caf
:1055cc00542c542c542c542c542c542c542c542ccf
:1055dc00542c542c542c542c542c542c776dffffdd
:1055ec00ffffffffffffffffffffffffffffffffbf
:1055fc00dffff64c542c542c542c542c542c542c7f
:10560c00542c542c542c542c542c542c542c542c8e
:10561c00542c542c542c542c542c742c5ddfffff24
:10562c00ffffffffffffffffffffffffffffffff7e
:10563c00ffff3dd7742c542c542c542c542c542c2c
:10564c00542c542c542c542c542c542c542c542c4e
:10565c00542c542c542c542c542cf985ffffffff44
:10566c00ffffffffffffffffffffffffffffffff3e
:10567c00ffffffff198e542c542c542c542c542cfb
:10568c00542c542c542c542c542c542c542c542c0e
:10569c00542c542c542c542c953cbef7ffffffff7c
:1056ac00fffffffffffffffffffffffffffffffffe
:1056bc00ffffffffdff7d644542c542c542c542cf2
:1056cc00542c542c542c542c542c542c542c542cce
:1056dc00542c542c542c542c3a96fffffffffffff4
:1056ec00ffffffffffffffffffffffffffffffffbe
:1056fc00ffffffffffff9bae542c542c542c542c5b
:10570c00542c542c542c542c542c542c542c542c8d
:10571c00542c542c542c742c7ee7fffffffffffffe
:10572c00ffffffffffffffffffffffffffffffff7d
:10573c00ffffffffffffdff77534542c542c542c64
:10574c00542c542c542c542c542c542c542c542c4d
:10575c00542c542c542cb544ffffffffffffffffcc
:10576c00ffffffffffffffffffffffffffffffff3d
:10577c00ffffffffffffffff1655542c542c542c3a
:10578c00542c542c542c542c542c542c542c542c0d
:10579c00542c542c542c1655ffffffffffffffff1a
:1057ac00fffffffffffffffffffffffffffffffffd
:1057bc00ffffffffffffffff986d542c542c542c60
:1057cc00542c542c542c542c542c542c542c542ccd
:1057dc00542c542c542c1655ffffbff7ffffffff22
:1057ec00ffffffffffffffffffffffffffffffffbd
:1057fc00ffffffffffffffff776d542c542c542c41
:10580c00542c542c542c542c542c542c542c542c8c
:10581c00542c542c542c9534ffff5ddfbff7ffff45
:10582c00ffffffffffffffffffffffffffffffff7c
:10583c00fffffffffffffffff64c542c542c542ca2
:10584c00542c542c542c542c542c542c542c542c4c
:10585c00542c542c542c542c3dd7ffff5aa6ffff2c
:10586c00ffffffffffffffffffffffffffffffff3c
:10587c00ffffffffffff9ee7742c542c542c542c7d
:10588c00542c542c542c542c542c542c542c542c0c
:10589c00542c542c542c542cb875ffff5ddf3a96c5
:1058ac00fffffffffffffffffffffffffffffffffc
:1058bc00ffffffffffff198e542c542c542c542c3b
:1058cc00542c542c542c542c542c542c542c542ccc
:1058dc00542c542c542c542c742c1dcfffff3dd71e
:1058ec00b87d5ddfffffffffffffffffffffffff47
:1058fc00ffffffff7edf7534542c542c542c542c9a
:10590c00542c542c542c542c542c542c542c542c8b
:10591c00542c542c542c542c542cb53c7ee7ffffa7
:10592c00dfff9bb67aa6fcc67ee7fffffffffffffb
:10593c00ffffbeeff64c542c542c542c542c542cee
:10594c00542c542c542c542c542c542c542c542c4b
:10595c00542c542c542c542c542c542cb53cfcc688
:10596c00ffffffffffffffffffffffffffffffff3b
:10597c003dd7d644542c542c542c542c542c542ced
:10598c00542c542c542c542c0000542c542c542c8b
:10599c00542c542c542c542c542c542c542c742cdb
:1059ac00776dfcc6dff7ffffffffdfff1cc7b87585
:1059bc00742c542c542c542c542c542c542c542cbb
:1059cc00542c542c542c00000000542c542c542ccb
:1059dc00542c542c542c542c542c542c542c542cbb
:1059ec00542c542c542c542c542c542c542c542cab
:1059fc00542c542c542c542c542c542c542c542c9b
:105a0c00542c542c542c000000000000542c542c0a
:105a1c00542c542c542c542c542c542c542c542c7a
:105a2c00542c542c542c542c542c542c542c542c6a
:105a3c00542c542c542c542c542c542c542c542c5a
:105a4c00542c542c00000000000000000000542cca
:105a5c00542c542c542c542c542c542c542c542c3a
:105a6c00542c542c542c542c542c542c542c542c2a
:105a7c00542c542c542c542c542c542c542c542c1a
:105a8c00542c00000000000000000000000000008a
:105a9c00542c542c542c542c542c542c542c542cfa
