:020000040040BA
:10000000F0470020298340002583400025834000DD
:100010002583400025834000258340000000000028
:1000200000000000000000000000000025834000E8
:1000300025834000000000002583400045A54000C6
:100040002583400025834000258340002583400010
:10005000B9AC40002583400025834000000000002B
:1000600065524000258340006556400025834000CE
:1000700025834000000000002583400025834000C8
:1000800025834000000000000000000025834000A0
:10009000258340002583400025834000E19D4000EA
:1000A0002583400025834000000000000000000080
:1000B00000000000193040002583400025834000E7
:1000C00010B5054C237833B9044B13B10448AFF392
:1000D00000800123237010BDF809002000000000FB
:1000E000F41F41000C4B43B10C480D4910B5AFF360
:1000F00000800C48036823B910BD0A48036833B96F
:100100007047094B002BF7D0BDE810401847064B4D
:10011000002BF5D0184700BF00000000F41F41007D
:10012000FC090020F41F410000000000074A1223D0
:1001300003FB0023DB7913F0020304D01628CCBFA5
:100140000020012070471846704700BFA41300200C
:10015000074A122303FB0023DB7913F0040304D0C6
:100160001628CCBF0020012070471846704700BFFA
:10017000A413002008B5094B01469847084A20B946
:10018000122303FB012381209871122303FB012119
:10019000CB7943F01003CB7108BD00BF5101400083
:1001A000A413002010B50446C0F3C700064B2A3044
:1001B000984704F007040123A3401840C0B2003060
:1001C00018BF012010BD00BFD18D4000162801DCF2
:1001D000014B1847704700BF75014000162808B54D
:1001E00001460FDC084B9847084A20B1122303FB55
:1001F000012380209871122303FB0121CB7923F086
:100200001003CB7108BD00BF51014000A4130020B2
:10021000162807DC044B122202FB0030C37943F09E
:100220000303C371704700BFA4130020162807DC26
:10023000044B122202FB0030C37923F00203C37186
:10024000704700BFA413002000B516281ED8DFE8B1
:1002500000F00C13171F2327292B2F333537393B79
:100260003F414547494B4D4F5100090734D50021C7
:10027000117003221A7009E0002111700422F9E7BD
:1002800011F0080111D00021117019705DF804FB04
:10029000022111700622EDE7022111700722E9E721
:1002A0000221E5E70221E8E7022111700122E1E7DE
:1002B000002111700522DDE70121FAE70121E8E7BD
:1002C0000121EAE70021E8E7032111700022D1E7CC
:1002D0000321EAE7032111700222CBE70321D3E7D0
:1002E0000321CAE70321E4E70221E2E70221CBE789
:1002F0000221EAE70321CCE71628F7B5054632DCF0
:100300001C4B1D4E1D4F98471D4B122101FB053103
:100310000A23CB74012400230DF107020C754B75E1
:100320008B75E8B20DF10603C979B0479DF80760F7
:100330002A363046B8479DF806108C400443E1B297
:100340003046104CA0473A20B847411CC9B23A2069
:10035000A0470D4B032102209847A5F10903012B6B
:1003600003D80A4B984703B0F0BD112DFBD1084BC1
:10037000F8E700BF1102400049024000D18D400063
:10038000A4130020698D4000D99E40003D8E40009E
:10039000498F40002DE9F341032300251628074625
:1003A0008DF806508DF807305FDC314B314E12244A
:1003B00004FB00340DF10702E1790DF10603C0B230
:1003C000B0472572E571A5716572A572E572257356
:1003D0006573A573E57325746574E5759DF807501D
:1003E000254C264E2A352846A0479DF80630012187
:1003F000994020EA0101C9B22846B0473A20A047F7
:10040000411CC9B23A20B047A7F10903012BA0460D
:1004100002D9113F012F24D8194C2E20A0470546A0
:100420003020A04704463A20C047230625F0E001CB
:1004300089B24BBF24F0400424F0C00441F0A00175
:1004400041F0200107460F4D2E20A4B2A8472146B7
:100450003020A847791CC9B23A20B0470A4B002285
:100460001A7006210120094B984702B0BDE8F081BF
:10047000A413002049024000D18D4000698D400046
:10048000DD8D4000818D40003F000020D99E40005E
:100490002DE9FF41334C0D4616461F4601AA08239D
:1004A0000121A0470128044659D19DF80430DFF806
:1004B000C4E09DF80B009DF80A20122101FB05E124
:1004C0004FEAC30803F0E0038DF8043043F0010362
:1004D000CB719DF8053003FA07F79DF82C3000F03A
:1004E000F00076441F40204B8DF80B0040EA121CB0
:1004F0000020188086F8F7719DF806309DF8076097
:10050000887508F4E06843EA06234CEA080CA1F871
:100510000DC0A1F8093091F814C09DF809609DF84C
:100520000830887402F0F0020CF1010C43EA062353
:100530008DF80A2081F814C0A1F80B304A74BEF877
:100540000230082093424FF0050300FB053014BF32
:10055000064B074B9847204604B0BDE8F0810020C9
:10056000FAE700BFD5364000600E0020A92E4000FB
:10057000FD2E4000A4130020F0B585B00D461746AF
:1005800001211E460DF105020823274CA047C1B2E8
:10059000012946D1254C122303FB054300229A75FD
:1005A0001A7D01321A759DF8052042F00100D871BC
:1005B00012F0100318BF0B4684F8A831930702D538
:1005C00028461B4B98479DF806309DF82C00E219F1
:1005D000B340034092F8F7619DF828003040034390
:1005E00082F8F731122303FB05459DF80B309DF887
:1005F0000C20AB7494F8A5316A7493420FD094F830
:10060000A631012B03D8013384F8A63104E000237E
:1006100084F8A63184F8A521084605B0F0BD002372
:10062000F2E70021F8E700BFD5364000A413002010
:100630001102400010B5174C94F8A72102F0FB03FB
:10064000532B01D0002010BD07211920124B9847D1
:1006500001280DD194F8A73184F8EA3094F8A43138
:1006600023F0010384F8A431002384F8A93110BDDC
:1006700094F8A9310133DBB2032B84F8A931E1D915
:1006800094F8A431002023F0010384F8A43184F805
:10069000A90110BDA4130020C935400038B51A4C7B
:1006A0001A4B94F8A52108211920984701282546BE
:1006B00015D194F8A53184F8E9300C20144B9847F3
:1006C00010B90C20134B984795F8A43123F002037E
:1006D00085F8A431002385F8A931012038BD94F8AC
:1006E000A9310133DBB2032B84F8A93188BF94F818
:1006F000A4314FF0000082BF23F0020384F8A4313C
:1007000084F8A90138BD00BFA4130020C9354000FA
:100710005101400075014000F0B5012385B00F463E
:1007200001AA19461F4C0646A04701282FD11E4D8D
:10073000122101FB075100240B7D8C7501330B75D1
:1007400038461A4B98479DF80420CB7902F00402F2
:1007500023F00C031343CB71B5F9BB71144D214643
:10076000C7F307223046A8470128014614D1FAB240
:100770003046A84701280FD10E4F3A5DE1B230460E
:10078000A847012808D10134082CF6D102E00A4B11
:100790000020186005B0F0BD074B00201860074B23
:1007A0001870F7E7D5364000A4130020110240006E
:1007B000C935400034170020E80A0020F20A002062
:1007C0002DE9F04385B00D461746984601AA0B2344
:1007D0000121904CA047012840F017818E49122634
:1007E00006FB05160024337DB475013333752846A6
:1007F0008A4B9847F3799DF804209DF806E09DF810
:1008000008C09DF80C0002F0040223F00C0313430F
:10081000F3719DF807309DF80B204EEA032E9DF8EA
:1008200009304CEA032C9DF80A30A6F80BC043EAC5
:1008300002239DF80D2040EA02200FFA8EFE1BB223
:1008400000B29DF80E20A6F809E0032DA6F80D30A1
:10085000A6F80F0072743AD1714EDFF8DCC1D6F8F9
:100860000090E1450DD9DFF8D491346099F800602B
:10087000DFF8CCC12F2E0ED82CF816E0013689F8FF
:1008800000609BB243EA0043664803609DF8053070
:1008900003F001035CE0BCF9006089F80040B64653
:1008A0000CEB04090234B9F902904E45B8BF4E462C
:1008B000CE45A8BFCE465E2CF2D1A6EB0E06B6F50D
:1008C000FA7F594CD4BF012600262670D9E7042DA3
:1008D00035D1564EDFF860C1D6F80090E1450DD90C
:1008E000DFF86091346099F80060DFF85CC12F2E6A
:1008F00009D82CF816E0013689F800609BB243EA6B
:1009000000434B48C1E7BCF9006089F80040B64697
:100910000CEB04090234B9F902904E45B8BF4E46BB
:10092000CE45A8BFCE465E2CF2D1A6EB0E06B6F59C
:10093000FA7F404CD4BF012600262670DEE7082D42
:10094000A4D19DF80530C3F340030BB9A1F8CFC182
:100950000F449DF8300097F8F74103FA08F8122386
:10096000204003FB051340EA08085008A3F80D00D7
:10097000D30787F8F78125D5042D07D191F8AE313B
:1009800063F07F0381F8AE3101203FE0032D04D1F5
:1009900091F8AE3143F04003F4E7062D04D191F80D
:1009A000AE3143F02003EDE7052D04D191F8AE31CF
:1009B00043F01003E6E7072DE6D191F8AE3143F09E
:1009C0000803DFE7042D04D191F8AE3103F07F0373
:1009D000D8E7032D04D191F8AE3123F04003D1E7DD
:1009E000062D04D191F8AE3123F02003CAE7052D7E
:1009F00004D191F8AE3123F01003C3E7072DC3D122
:100A000091F8AE3123F00803BCE7002005B0BDE843
:100A1000F08300BFD5364000A4130020110240002F
:100A2000100E00201C0A0020E40A0020180E0020EE
:100A3000800A0020E50A00203F771B00EC0A002016
:100A4000200A0020ED0A0020840A00202DE9FF4141
:100A50000E4617460221032301AA1A4CA04701287B
:100A6000054619492CD1122404FB06144FF0000846
:100A7000237D84F81680013323753046134B984745
:100A80009DF806209DF8053043EA0223CA19A4F810
:100A90000930B4F90B3092F8F701A4F80D309DF845
:100AA0002830E572034084F80C8082F8F73128463C
:100AB000122303FB06160023737404B0BDE8F08113
:100AC0000020F5E7D5364000A413002011024000B5
:100AD00010B50520164CA047164910B90620A047AE
:100AE00030B1B1F96300B1F975309842B8BF18461A
:100AF000A1F8BD010320A04710B90420A04730B1E0
:100B0000B1F93F00B1F951309842B8BF1846A1F889
:100B1000BB010720A04718B1B1F98730A1F8BF3158
:100B20000820A04718B1B1F99B30A1F8C13110BD20
:100B30002D014000A41300202DE9F84F0F464F4E21
:100B400000210546B0474FF0000800B14546012F8F
:100B50004DD1DFF864B14A4FDBF80040DFF85CA10B
:100B6000002CD9460DDC38682946D0470134454B66
:100B70003860CBF80040B3F90000434B9847044677
:100B80002DE03D68414B424C19682846A047294654
:100B9000A0472946A0473F4B834619682846A047EF
:100BA0002946A04701465846D0473B4B8346196823
:100BB0002846A04701465846D047384B1968D047C9
:100BC00037490446B04780B93649374B20469847E5
:100BD00000B1344CC7F800800023C9F8003020462B
:100BE000324B984700B2BDE8F88F0024F2E7022F9D
:100BF000F5D1DFF8CCB0DFF8C490DBF800402C4F23
:100C0000002CDA4608DC38682946C84701343860C9
:100C1000CBF80040274BAEE73D681C4B1C4C1968D5
:100C20002846A0472946A0472946A047194B834696
:100C300019682846A0472946A04701465846C84794
:100C4000154B834619682846A04701465846C847B1
:100C5000124B1968C84712490446B04758B91149A0
:100C6000114B2046984700B10E4CC7F80080002376
:100C7000CAF80030B3E70024F7E700BF1DC1400009
:100C8000880E00207E0E002025BD40000C1D410076
:100C9000CDBD4000101D4100141D4100181D410034
:100CA0000000A0410000634431C1400059C1400030
:100CB0008C0E0020800E00206C0E0020BDBB40007A
:100CC000700E00202DE9FF41884616460B2301AA2D
:100CD0000121404C0546A0470128074675D13E4CEE
:100CE000122101FB084100238B750B7D01330B752D
:100CF00040463A4B98479DF80420CB799DF80B006D
:100D000002F0040223F00C031343CB719DF807207B
:100D10009DF8063043EA0223A1F809309DF8082027
:100D20009DF8093042EA03229DF80A30A1F80B2011
:100D300043EA0023A1F80D309DF80D009DF80C301A
:100D4000264443EA00239DF80E0096F8F7E1487424
:100D50009DF828001BB200EA0E003E2DA1F80F30CE
:100D600086F8F70126D1B4F977011D4B98471D4B42
:100D7000394698471C4B1880B4F971316433A4F894
:100D80007131B4F973316433A4F87331B4F9753146
:100D90006433A4F875313F3D012D09D89DF80B301F
:100DA0009DF80D2023F00F0343EA12130F4A13702E
:100DB00001200BE03C2D04D10D480380A1F80D204B
:100DC000E9E73D2DE7D10B48F7E7002004B0BDE887
:100DD000F08100BFD5364000A4130020110240006E
:100DE00025BD4000390B40007E0E0020180A00206F
:100DF000F00A0020EE0A00202DE9F04FB14EB6F8BF
:100E0000F22112F0200F89B0B24603D1AE4A126827
:100E1000002A6ADDAD484FF400620263AC480278F4
:100E2000551C12F00102057040F0B280A94D0395E7
:100E30002E78701CC0B2162895BF2A4603981070F1
:100E40000270A54A04921078012810D1A34A069195
:100E5000962005939047A24A059B157806998542EE
:100E60001FBF049D10704FF0000E85F800E09D4AF2
:100E700005921078012815D19720984A079106937A
:100E80009047DFF87CC2069B9CF80050079985428A
:100E900008D0059ADFF86CE28CF800000025157088
:100EA0008EF800509048914A079106939047069B10
:100EB0000799162E00F2A081DFE816F01C007F00D3
:100EC0006E008B009700A300AF00BB00C700DF00DF
:100ED000D300EB00F700260132013E014A01560122
:100EE00062016E017A018601920178484FF4006236
:100EF000426393E77E4C0220A04780460320A04730
:100F000080445FFA88F83546334634464FF0070987
:100F10005F210A27B8F1000F07D1122202FB06A2B7
:100F2000D079C00744BF82209071122202FB06AB29
:100F30009BF80620100640F1CB8102F03F038BF8AE
:100F4000173000216B4B3846984701289BF8063034
:100F500040F0A081DF07304640F15081664B984752
:100F60009BF8063023F001038BF80630122202FBB7
:100F700006A29379990740F14A815444304694F887
:100F8000F7311D40002393715C4B84F8F75198476B
:100F9000012009B0BDE8F08F554C0120A0478046E4
:100FA0000020A047002580445FFA88F83446374681
:100FB0004FF017095F212B46ACE74D4B04209847B3
:100FC0000025804634464FF00F091F212B46142779
:100FD000A0E7474B16209847344680464FF01B0940
:100FE000F325042102231E2794E7414B172098473D
:100FF0001F2580464FF01E091021052303242F468C
:1010000088E73B4B13209847042180464FF0230983
:10101000E32502230C4622277CE7354B1420984712
:101020004FF0260980461F2510210523042423277D
:1010300070E72F4B112098474FF02B098046F3257E
:10104000042102230524262764E7294B052098471D
:101050004FF03F0980464D464021062307243227A2
:1010600058E7234B0E2098474FF034098046C72598
:1010700008210323062429274CE71D4B0D20984700
:101080004FF031098046F825012100230624282746
:1010900040E7174B0F209847062380464FF037094B
:1010A0003F2540211C462A2734E7114B072098474B
:1010B0004FF02F0980463F2540210623052419279C
:1010C00028E700BFA4130020780E0020000E0E4079
:1010D000F30A0020F40A00203E000020D18D4000D9
:1010E000830E00203D00002050140E40613340006C
:1010F000A5014000C9354000CD01400095034000E6
:10110000430000203C000020C14B182098474FF0BE
:101110005C098046CF25202105230B243327F9E6DF
:10112000BB4B192098474FF05E0980463F25802130
:1011300007230B243427EDE6B54B1A2098474FF0D0
:1011400060098046FC25022101230C243527E1E6B5
:10115000AF4B1B2098474FF062098046F3250421CE
:1011600003230C243627D5E6A94B1C2098474FF0C3
:1011700064098046CF25202105230C243C27C9E69D
:10118000A34B1D2098474FF0660980463F258021DC
:1011900007230C243D27BDE69D4B152098474FF0B3
:1011A00068098046FC25022101230D243F27B1E672
:1011B000974B122098474FF06A098046F325042187
:1011C00003230D243E27A5E6914B102098474FF0AE
:1011D0006C098046CF25202105230D24402799E660
:1011E0008B4B1E2098474FF019098046FC250221A1
:1011F0000023032441278DE600258BE6854B984785
:101200009BF8073023F004038BF80730AEE6039A0F
:101210001278002A3CD0013A03990A70122202FB8C
:1012200006A203F07F0393717B4A4FF400631363BC
:10123000B8F1000F40F04A81784B304698471223AE
:1012400003FB06A30A22DA74122303FB06A300227F
:101250009A751A7D01321A75B8F1000F3FF498AEF5
:10126000122404FB06A6727D337D1344032B7FF604
:101270008FAE991A092B4FF00A0202FB01F292FB82
:10128000F3F288BF0023F27484BF737533757FE671
:101290001622C1E79F0726D582229BF808308BF8DB
:1012A0000620039A01331278DBB28BF808306AB15A
:1012B000013A0399032B0A7015D912243046584B72
:1012C00004FB06A698470023B37161E61622F0E7F7
:1012D0009AF8A42112B39AF8DF00C0071ED5D307ED
:1012E00014D5504B9847B8F1000F40F0F3805444A8
:1012F000484694F8F7311D4084F8F751122404FB56
:1013000006A6494B984786F8168041E612F002027D
:1013100001D0464BE6E78AF8A421E4E7132E0FD16B
:10132000059A1278002A40F0B580414B0B211A78BB
:10133000404B3F2098470128D5D1059B1870D2E734
:10134000152E14D1DFF8F8B09BF80020002A40F0E9
:10135000A180374B1A78374BC2F16402D2B20B210D
:10136000402098470128BED18BF80000BBE7142E1F
:101370000ED1049A1278002A40F08C802E4B0B215B
:101380001A782C4B3E2098470128ACD1049BD5E716
:10139000162EA8D801A252F826F000BFF91340007B
:1013A000F9134000F9134000531440005314400057
:1013B0005314400053144000531440005314400091
:1013C0009D144000A9144000BD1440004514400085
:1013D000611440006D144000751440007D144000FD
:1013E000851440008D14400095144000E712400021
:1013F000E7124000B11440003846104F01910095AB
:1014000022463146B84700287FF40EAF6BE700BF95
:10141000A5014000DD014000000E0E40F902400031
:101420009503400035064000FD2E40009D0640001B
:1014300043000020C9354000830E00209104400085
:101440003C00002001913846009522460C21384F7F
:10145000D8E73846374F009522463146B847D2E79D
:10146000009522460D213846334FF7E70095224676
:101470000E21F8E7009522460F21F4E70095224659
:101480001021F0E7009522461121ECE70095224655
:101490001221E8E7009522463146E4E7009522460E
:1014A00009213846254FD9E7009522460A21F8E759
:1014B0003846009522461621214FCFE70AEB040259
:1014C00092F8F7312B4082F8F7310CE748461D4B74
:1014D0009847B9E6122303FB06A103FB06A34A7D46
:1014E00001324A758A7D0132D2B2242A88BF242271
:1014F0008A759A7D232A7FF6B3AE5444484694F801
:10150000F721154084F8F75100245C729C72DC725C
:101510001C735C739C73DC731C740B4B98473046D4
:101520000A4B98470C2E08BF8AF8A84198E600BFDE
:1015300079054000C1074000C50C40004D0A40003D
:1015400019074000FD2E4000A92E40002D0240004A
:10155000C0F57F70F8B50330234B244E244C254D45
:10156000254F9847B04714A3D3E90023A04714A3FD
:10157000D3E90023A847214CA047B04702460B46B9
:1015800011A1D1E90001A84711A3D3E90023B8476D
:10159000A0471B4B1B499847B0471B4B9847024637
:1015A0000B460DA1D1E90001A8470DA3D3E9002303
:1015B000B847A047F8BD00BF6666666666660A4023
:1015C0000000000000F88F4000000000001DE04017
:1015D000000000000088C3400000000000DCAE40B6
:1015E000666666666612714025BD400079B44000AB
:1015F00021B5400075B74000B9B1400011BB4000B3
:1016000035BF40008D71903CBDAC40002DE9F04FDE
:101610008A4D8B4B85B09847B5F8EB315B06044695
:1016200001D5884B9847884B1A68A11A312902D8EE
:10163000944280F0C0801C608448854B854C864E67
:10164000864F9847864B40209847042828BF04209F
:10165000C3B20193834B1878B047236818443B68A2
:10166000206001333B60804B1878B04763681844B2
:101670007B68606001337B60019B022BB8460FD909
:101680007A4B1878B047A3681844BB68A060013350
:10169000BB60019B042B06D00023C8F80C300BE084
:1016A0000023BB60F8E7724B1878B047E368184432
:1016B000FB68E0600133FB60DFF8A091DFF8948104
:1016C0004FF0580A0027019BBB4240F3AB80D9F88A
:1016D00000204F2A14DDD8F80030B3FBF2FB42F2B1
:1016E00016639B45504669D9624B9847D9F800303C
:1016F0009B10C9F80030D8F800309B08C8F80030BB
:101700000137042F09F1040908F104080AF1010A5C
:10171000D9D1594B1F68F8B2B04754F827304F4A17
:10172000184452F8273044F827000133172B42F8A9
:10173000273090460DDDB0FBF3F280089B1044F893
:10174000270048F82730D2002121B2FBF1F2A5F89A
:10175000D9214A4B4A4F1B6801934FF0000AD346E8
:10176000019B03EB0A095FFA89F0B04758F829108A
:1017700054F82930013118440F2944F8290048F859
:10178000291013DDB0FBF1F039780AF1E8030029E4
:1017900051D105EB430300EB80000321B0FBF1F0D6
:1017A000A3F8050048F829B044F829B00AF1010A65
:1017B000BAF1020FD4D105B0BDE8F08F314B984794
:1017C0005846314B98473149314B9847012F834652
:1017D00013D108202F4B9847002887D12E492F4B33
:1017E000584698472E4B02939847029BA5F8CF0185
:1017F000584698472B4B588078E707F1E40303934A
:101800002549264A9047264A02929047039B05EBBA
:101810004303A3F80500029A58469047214B23F84A
:10182000170063E70023C9F80030C8F800305046BD
:10183000144B984764E705EB4303B1E7A41300207A
:1018400001A6400039A04000500B002050140E406B
:1018500061334000F80A002001AC4000240B002056
:10186000D18D4000820E0020410000204200002067
:1018700040000020C92E4000281D41002C1D4100C1
:10188000300E0020FD2E4000511540000000C842DF
:10189000CDBD40002D0140000000204135BF40007B
:1018A00059C140009C1300202DE9F043A648A74FE2
:1018B00085B0B847A64B9847012806461BDDA54CC6
:1018C000237843B90220A44B0321984701232370B6
:1018D0005620A24B9847A24B00221A60A14BD97800
:1018E00052291C4600F01C8409D8442900F04C8180
:1018F000502900F06E83304605B0BDE8F0835429CE
:101900004ED05729F7D193F804805979ADF80020CB
:101910004C23ADF80830ADF802307E23ADF80A3024
:101920008523ADF8043098234144ADF80C30992359
:101930000139ADF80630ED23ADF80E301FFA81F90C
:1019400002AB3DF81210414504D833F81210494556
:1019500080F0FE830132042AF3D131257A48B8475A
:10196000302D40F0F783804A804B494640469847E7
:10197000013008BF32257448B8470B23A370A57106
:1019800057237B4DE3703A20A847E0717E20A8479B
:1019900020729820A8476072ED20A847A07214E03A
:1019A000744D442185F8F411072185F8F511197952
:1019B000342900F0B38029D831296DD007D83029D7
:1019C00045D0B5F8F231002B95D06648DAE23229DD
:1019D00000F094803329F4D15B79B5F8EB21412BE9
:1019E000B5F8F23142F480520BBF43F0110323F0FB
:1019F0001003A5F8F231A5F8F231A5F8EB2107BFE5
:101A000002205D4B5D4B02209847DAE7392902D06E
:101A100004D83529D5D1B5F8F23138E045290DD0B3
:101A20005329CED1B5F8EB3143F48053A5F8EB310F
:101A3000012385F8F23185F8F321C2E7B5F8EB31DF
:101A400085F8F22123F48053A5F8EB31F3E7B5F8DC
:101A5000EB3143F48053A5F8EB31B5F8F23143F0A4
:101A60000302A5F8F221A279012A9CBF0222A271E9
:101A700062796F2A04D1A1790020414B9847A0E7F1
:101A8000632A02D1A1790120F7E723F0020343F092
:101A90000103A5F8F23194E7B5F8EB215B7942F444
:101AA0008052A5F8EB21B5F8F221412B42F0050157
:101AB000A5F8F2110DD1334B4FF400021A63012245
:101AC000C3F8302295F8F13143F0030385F8F13182
:101AD00077E7532B0BD12B4B4FF400025A630122B3
:101AE000C3F8342295F8F13123F00303EEE722F036
:101AF000040242F00102A5F8F22162E7B5F8EB21F9
:101B000099795879144B42F48052A5F8EB21B5F835
:101B1000F22142F00902A5F8F221AFE7B5F8EB2176
:101B200042F48052A5F8EB215A79432AB5F8F22104
:101B300007D142F021029B79A5F8F22185F8F63110
:101B40003FE722F02002D6E750140E4061334000F8
:101B500019584000680E0020D99E4000FD2E40001C
:101B6000640E0020291600202F160020F995400051
:101B7000D18D4000A4130020CD014000DD014000C4
:101B8000299F4000000E0E40E24DE1706323A370D8
:101B900095F8B5302371B5F9C33163711B12A37188
:101BA0006B78E37195F8EF31237295F8F031637239
:101BB000B5F9B731A3721B12E372B5F9B9312373CA
:101BC0001B126373B5F9DB31A3731B12E373B5F911
:101BD000E13123751B126375B5F9DD3123741B12D6
:101BE0006374B5F9E331A3751B12E375B5F9DF3101
:101BF000A3741B12E374B5F9E53123761B126376E7
:101C0000B5F9C53184F826301B1284F8273095F8D1
:101C10003730A376EB7CE37695F825302377EB79A4
:101C2000190703F0010748BF47F002075A0740F1C0
:101C3000AC8147F00407EB7DDB0795F8F73148BF2F
:101C400047F008070BB147F010076A7EA77702F04C
:101C50000103570795F8292048BF43F00403D00734
:101C600095F8F82148BF43F008030AB143F0100388
:101C700095F82B20E377110702F0010348BF43F0EA
:101C80000203520795F83B2048BF43F00403D707EF
:101C900095F8F92148BF43F008030AB143F0100357
:101CA00095F893216377900702F0010348BF43F052
:101CB0000203510795F8A32195F8FA0148BF43F0B4
:101CC0000403D20748BF43F0080308B143F01003F0
:101CD00084F83330B5F90B3084F820301B1284F8C7
:101CE0002130AB7C95F83DE0012B0CBFB5F90930F4
:101CF000B5F9CF3184F822301B1284F82330B5F9BE
:101D00001D3084F824301B1284F82530B5F91B30BF
:101D100084F831301B1284F83230B5F92F3084F852
:101D20002D301B1284F82E30B5F92D3084F82F3069
:101D30001B1284F83030B5F9E73184F82830B5F952
:101D4000E93184F829301EF001024FEA232384F898
:101D50002A3000F0218195F8493084F82B302B7916
:101D600084F82C306C4B95F83911B3F9003084F8B5
:101D700034301B1284F83530684BB3F9003084F8E6
:101D800036301B1284F83730654BB3F9003084F8D5
:101D900038301B1284F83930624BB3F9003084F8C4
:101DA0003A301B1284F83B3095F8573184F83C30B8
:101DB00095F8453184F83D304F0701F0010395F85F
:101DC000491148BF43F00403C90795F8031248BFFF
:101DD00043F0080309B143F0100395F84B7184F800
:101DE0003E3007F001037F0795F85B7148BF43F071
:101DF0000403FF0748BF43F0080309B143F0100391
:101E000084F83F30B5F93F3084F840301B1284F835
:101E10004130B5F9873084F842301B1284F84330E2
:101E2000B5F9633084F84430B5F9513084F8453061
:101E30001B1284F84630B5F9753084F84730B5F98F
:101E4000433084F84830B5F9553084F8493095F876
:101E5000493084F84A3095F85B3084F84B30B5F956
:101E60004170BB1084F84C30C7F3852384F84D30A3
:101E7000B5F953108B1084F84E30C1F3852384F8E4
:101E80004F3095F84D301EF0040F18BF42F0040299
:101E9000DB0748BF42F0080208B142F0100295F893
:101EA0004F3084F8502003F001025B0795F85F3053
:101EB00048BF42F00402DC0748BF42F0080208B104
:101EC00042F01002184880F85120B5F98930B5F970
:101ED00065209B00120103F00C0302F03002134353
:101EE00007F003073B4380F85230B5F977301B0108
:101EF00003F0300301F003010B4380F85330B5F9D0
:101F00003F3180F854301B1280F85530B5F951310B
:101F10000CE000BFA4130020F00A0020EE0A00200D
:101F2000160A0020140A00202916002080F85630D6
:101F30001B1280F85730B5F9313080F858301B1239
:101F400080F85930B5F90D3080F85A301B1280F8FE
:101F50005B30B5F91F3080F85C301B1280F85D30C3
:101F6000B5F9AF3080F85E301B1280F85F30B5F9FC
:101F7000C13080F860301B1280F86130764B1B78DE
:101F800080F86230754B9847B5E49620744B9847BB
:101F900000287FF44EAE4EE695F84F30DB0702D5B1
:101FA00095F85B30D9E695F86130DF0702D595F8F2
:101FB0006D30D2E695F87330D90702D595F87F30A9
:101FC000CBE695F88530DB077FF5C9AE95F8913003
:101FD000C3E65A79634B5978914207D1D878E179B1
:101FE000884203D19878A17988420ED05A70A2799C
:101FF0009A70E279DA70227A1A71627A5A71A27A48
:1020000021799A71E27A1970DA712C23A370564DF6
:102010005023E370B5F9CD3123711B126371082091
:10202000524B9847002878D0B5F99B30A3711B120A
:10203000E371B5F9D13123721B126372B5F9D33153
:10204000A3721B12E372B5F9D5210A2192FBF1F2BA
:1020500092B2642A28BF64222273B5F9D73193FB68
:10206000F1F39BB2642B28BF6423637395F8AE3100
:10207000A373B5F9BD31E373B5F9BB3123741B12FA
:102080006374B5F9BF31A3741B12E374B5F8EB3177
:1020900023751B0A637595F8ED31A3750023E918C4
:1020A000E218013391F8F711D1750D2BF7D195F89E
:1020B000932102F00103900748BF43F00203510748
:1020C00095F8A32148BF43F00403D20795F8FA21FD
:1020D00048BF43F008030AB143F01003204F84F8CF
:1020E00024303A2095F8B13184F82530B84784F887
:1020F00026007E20B84784F827009820B84784F847
:102100002800ED20B84784F82900B5F9C13184F8DA
:102110002A301B1284F82B3057E4B5F9CF3185E70C
:102120001A795D79DFF83880D97097B23D44013D66
:10213000ADB2C2F107022A449A705C1DAF423FF66D
:1021400044AC3846C047013704F8010FBFB2F5E789
:10215000302503E431250EE4180A0020E55740003D
:10216000D18D400034170020A41300202D01400021
:1021700010B50C4B04462B20984722064ABF40F06E
:10218000010100F0FE01C9B2630648BF41F002013F
:10219000054B58BF01F0FD012B209847034B5C71A4
:1021A00010BD00BFD18D4000698D4000A4130020F8
:1021B0002DE9F04FB64BA5B098470128824640F371
:1021C000B781B44C2379462B4CD005D8312B00F085
:1021D0001A81B14B9847F4E0522B00F08181572BC4
:1021E000F7D14C22ADF80820ADF802207E22ADF8E0
:1021F0000A208522ADF8042098226079A179ADF8F3
:102200000C2099220023ADF80620ED22ADF80E2017
:102210000144ADF8003002AA3DF81350854204D8BD
:1022200032F813508D4280F087810133042BF3D1B3
:10223000312308228DF8122007228DF8132057220F
:102240008DF8142062798DF815208DF81730A27959
:10225000924B8DF816200A2104A89847904B012232
:102260001A70AEE03B208F4B98470428814600F05F
:10227000AC80062814BF1123772362798A4F8B4ED6
:10228000E07994F809808A4D43F008031A403A70C7
:10229000A27913403370237A40EA0320A37A48EAF4
:1022A000032800B20FFA88F8A5F8B701A5F8B9819C
:1022B000002800F08C807F4BDFF820B2984772A393
:1022C000D3E90023D8477C4B98477C4B9847A5F827
:1022D000DB01B8F1000F7FD04046764BDFF8FC8180
:1022E000984769A3D3E90023C047734B9847734BC2
:1022F0009847A5F8E101A27B637B43EA0223A5F896
:10230000DD31227DE37C43EA0223A5F8E331227C20
:10231000E37B43EA0223A5F8DF31A27D637D684CAD
:1023200043EA0223674AA5F8E531136850200133D8
:102330001360A047B9F1020F53D0B9F1040F0CBFDD
:10234000032307233A78787890424CD1B9788142B8
:1023500049D121F0080185F8EF1132787078904268
:1023600049D1B178814246D121F0080185F8F011B8
:1023700095F8F03103F00F0385F8F03195F8EF315F
:10238000442003F00F0385F8EF31A0474C20A0470D
:102390004D4B2E20984743040BD595F8F03123F090
:1023A0000F0385F8F03195F8EF3123F00F0385F82E
:1023B000EF317B78BB703B787B707378B370337888
:1023C0007370504625B0BDE8F08F332355E785F88C
:1023D000DB0185F8DC017CE785F8E18185F8E281A5
:1023E00089E70123AEE723EA020122F00F020A4344
:1023F00085F8FF21B1E723EA020322F00F0213431D
:1024000085F80032B4E72A4B60795B79834201D0CA
:102410002E4B9847237A532B08D12D4BA27A1A7052
:10242000E27A5A70227B9A70627ADA70637B1D4E70
:10243000432B13D01D20B047A17988421ED11E2006
:10244000B047E179884202D01E20224B9847224BA8
:1024500000221A7051201A4B9847B2E75520184BAA
:102460001C4F984722252846B0472B1D01350146B1
:10247000ADB298B2B847262DF5D1DBE71D20154B3C
:102480009847DCE7AFF300809A99999999990940A8
:102490003D594000B4160020A5584000C5584000E2
:1024A0006E0B0020D18D40006B0B0020680B0020CC
:1024B000A413002055B4400011BB4000A5C140004A
:1024C000FD2E40005C0B0020DD8D4000712140009E
:1024D00034170020698D4000540B002021B54000C6
:1024E000A279772AB3D8D11D67798DF81210DFF859
:1024F00064908DF81430072102F109088DF813104B
:102500008DF815708DF816200023DDB25E1CA379BE
:102510007819AB42C0B204D8414604A80A4B984788
:1025200095E7C84724AB1D44334605F8790CECE722
:102530000028BFF646AF4CE6044B054A98470130E9
:1025400014BF3023322374E6C5584000F99540008B
:10255000BB160020D18D400038B5094B094C984777
:102560002268811A0229054602D8904206D338BD56
:10257000904203D9044B9847044B9847256038BDD7
:1025800001A64000640B0020A9184000B1214000C2
:10259000F0B5604DB5F8F231990689B04BD595F894
:1025A000F64185F8EE4173238DF800306D238DF8E8
:1025B00001300C238DF8023004238DF803304623BC
:1025C0008DF8043095F8AF318DF805308DF807405F
:1025D00095F8B031504C8DF806303C20A0478DF86E
:1025E00008003B20A0474D4C8DF8090026680023C9
:1025F000711C8DF80A308DF80B308B07216014D1D7
:10260000474B18680A22172902FB00F292FBF6F2E8
:102610006A701D4609DD10B95020424B98472B685F
:102620005B102B6023685B1023600E2168463E4BD5
:10263000984709B0F0BD3D4E95F8011233783C4AF9
:10264000002B4FF0000414BFF720002001F0DF0141
:1026500023460A2B03D1002918BF082407E0A3F161
:102660000807012F177838D8384218BF08240133DB
:102670000D2B02F10102ECD155202E4B984710B1E1
:1026800044F00204E4B295F8ED31DA0748BF64F093
:102690007F044FF03B00204B48BFE4B2984702282C
:1026A0001DD004280BBF302270220320072033786E
:1026B0004F2B214B1FD11978042919D905211970E5
:1026C00095F8F03130EA030103D195F8EF11884312
:1026D00008D044F01004E4B263E7002FBCE71022F6
:1026E0000120E4E70B431A42F3D144F02004F2E75F
:1026F00001311970F9E795F8F0110A4203D195F804
:10270000EF110A4202D044F01004E4B200221A7021
:1027100047E700BFA4130020D18D4000580B0020D4
:102720005C0B0020A92E4000C5584000300E002050
:102730009B150020892E4000600B00202DE9F047FA
:10274000694B1A789AB022B100221A701AB0BDE80B
:10275000F087664E664CDFF8A88107238DF80330BA
:10276000337813F0010F40F0CD8038238DF802301C
:1027700031238DF80430B4F8EB318DF805301B0AA5
:102780008DF8063094F8FF3194F80012003318BF2A
:10279000012309B143F002038DF8073094F80132A8
:1027A00013F0570F94F8F13103F0030318BF202200
:1027B0008DF8093055204F4B8DF8082098478DF83B
:1027C0000A003B200A21B4F9D521B4F9D73192FB94
:1027D000F1F293FBF1F38DF80B208DF80C30C0472C
:1027E000B4F9B7318DF80E301B128DF80F30B4F9F3
:1027F000B9318DF810301B128DF8113000238DF88F
:102800000D0019460DEB03020133142B9174F9D11D
:10281000B4F9DB318DF812301B128DF813309DF8AE
:102820000D20B4F9E1318DF81430022A4FEA232348
:102830008DF815301ED9B4F9DD318DF816301B1224
:102840008DF81730B4F9E3318DF81830042A4FEAC7
:1028500023238DF819300DD9B4F9DF318DF81A30F2
:102860001B128DF81B30B4F9E5318DF81C301B12AA
:102870008DF81D303A20C0478DF826007E20C047D5
:102880008DF827009820C0478DF82800ED20C0471C
:1028900094F8EF318DF82A3094F8F0318DF82B3020
:1028A0008DF829000023E1180DEB0302013391F8A4
:1028B000F71182F82C100C2BF5D13A2533780E49FC
:1028C000013333700B78152BC3F116024FF0020061
:1028D00092FBF0F2227100F26A8201330B702946FA
:1028E0006846064B984731E76E0B0020610B0020CD
:1028F000A4130020892E4000540B0020C55840002E
:10290000D18D400067238DF8023032238DF80430DA
:10291000C64BC74FDA788DF805209A788DF80620D7
:102920005A781B788DF80830C24B8DF807201B6849
:102930008DF809301A0A8DF80A2040201A0C1B0E57
:102940008DF80B208DF80C30C04700F007008DF893
:102950000D007B20C0478DF835007C20C0478DF8E6
:1029600036009620C0478DF865009720C047B7F91C
:10297000002094F8AE318DF866008DF80E20AE4D33
:102980008DF83430121208208DF80F20A847AA467F
:102990003B46002800F0FF81B4F99920A74F8DF83D
:1029A000102012128DF811203A786AB9B3F9042078
:1029B000B3F906308DF812208DF8143012121B1264
:1029C0008DF813208DF81530DFF87C920020C84771
:1029D000051C4FF0010018BF0125C8474B4608B140
:1029E00045F002050220984708B145F0040594F827
:1029F0002B301B07A37948BF45F00805D807237E75
:102A000048BF45F01005D90794F82A3048BF45F073
:102A10002005DA07E37948BF45F040051B07B4F904
:102A200009308DF817304FEA23238DF81830B4F9A8
:102A30000B308DF830304FEA23238DF83130B4F964
:102A40001B308DF837304FEA23238DF83830B4F936
:102A50001D308DF819304FEA23238DF81A30B4F960
:102A60002D308DF839304FEA23238DF83A30B4F900
:102A70002F308DF81B304FEA23238DF81C303B7824
:102A800048BF45F080058DF816506BB9B4F9F320B6
:102A90008DF83B2012128DF83C20B4F9F5208DF80A
:102AA0003D2012128DF83E20B4F9F7208DF83F201A
:102AB00012128DF84020B4F9F9208DF8412012123D
:102AC0008DF842206BB9B4F905218DF8432012121C
:102AD0008DF84420B4F907218DF8452012128DF8A5
:102AE0004620B4F909218DF8472012128DF84820AC
:102AF000B4F90B218DF8492012128DF84A20B4F94F
:102B000017218DF84B2012128DF84C20B4F91921A1
:102B10008DF84D2012128DF84E20B4F91B218DF83E
:102B20004F2012128DF85020B4F91D218DF851203C
:102B300012128DF852206BB9B4F929218DF8532067
:102B400012128DF85420B4F92B218DF85520121251
:102B50008DF85620B4F92D218DF8572012128DF8DA
:102B60005820B4F92F218DF8592012128DF85A20CF
:102B7000334AB2F900208DF85B2012128DF85C20E8
:102B8000304AB2F900208DF85D2012128DF85E20D7
:102B9000A3B9B4F971318DF85F301B128DF8603034
:102BA000B4F973318DF861301B128DF86230B4F9CD
:102BB00075318DF863301B128DF86430B4F9BB3178
:102BC0008DF81D301B128DF81E30B4F9BD318DF813
:102BD0001F30B4F9BF318DF82030B4F9C3318DF80E
:102BE00021301B128DF82230B4F9C5318DF8233015
:102BF0001B128DF82430B4F9CF308DF825301B121C
:102C00008DF82630E37C8DF8273094F825308DF848
:102C100028300A2094F837308DF82930D047002822
:102C200000F0BC8094F8C73010E000BF34170020DB
:102C30009C130020740E00202D0140004E0E002039
:102C4000F00A0020EE0A0020510140008DF82A30E1
:102C50000F2063788DF82B30C0473038C0B202287F
:102C60009FBFC0EB401500EB850000EB8000050125
:102C70004FF0100094BFADB20025C047814611202F
:102C8000C0473038A9F13003C0B2DBB200EB80009E
:102C9000C3EB431200EB800003EB8203800000EBE8
:102CA000C300454B05449847ADB2C82D4FF06403AF
:102CB000B0FBF3F38DF82C3073D819238DF82D3039
:102CC00094F8B1318DF8323094F8ED318DF833301D
:102CD0003B788DF82E00012B4FEA10208DF82F0045
:102CE00057D1364BB3F900308DF843301B128DF8B5
:102CF0004430334BB3F900308DF845301B128DF85A
:102D00004630304BB3F900308DF85F301B128DF830
:102D100060302D4BB3F900308DF861301B128DF807
:102D200062302A4BB3F900308DF863301B128DF8F6
:102D30006430274BB3F900308DF812301B128DF838
:102D40001330244BB3F900308DF814301B128DF87A
:102D50001530214BB3F900308DF83B301B128DF844
:102D60003C301E4BB3F900308DF83D301B128DF80E
:102D70003E301B4BB3F900308DF853301B128DF8E9
:102D80005430184BB3F900308DF855301B128DF8C4
:102D90005630692592E5B7F90220FFE594F8B53081
:102DA00054E7B5F5966F94BF23232D2386E7512072
:102DB0000D4B984793E500BFD53F4000380E0020EB
:102DC000360E0020440E0020460E0020480E002043
:102DD0004C0E00204A0E0020340E0020320E00203F
:102DE0003C0E00203A0E0020A92E400038B51148B4
:102DF000114B124D9847124BDC6B14F000540AD063
:102E00002B7801332B702B78DB074CBF0D4B0E4B0F
:102E10009847012038BD0D4B2C701C7051200C4B75
:102E200098470C4B5B79002BEDD020460A4B984716
:102E3000E9E700BF50140E4061334000620B0020F0
:102E4000000E0E403D27400091254000540B00200D
:102E5000FD2E4000A41300207121400000230848EB
:102E600019461A1801330D2B82F8F711F9D10023F6
:102E7000044A194699540133702BFBD1704700BFA7
:102E8000A4130020F80E0020064BC0F3C702134421
:102E900000F0070093F8F73143FA00F000F001006A
:102EA000704700BFA4130020064BC0F3C7021344B1
:102EB00000F007020120904093F8F721104383F8B7
:102EC000F7017047A41300200A4A135C082B02D8AC
:102ED000013313547047084AC0F3C7031A4400F083
:102EE0000700012303FA00F092F8F731184382F843
:102EF000F7017047F80E0020A413002010B50A4B0C
:102F0000C0F3C702134400F0070493F8F72142FA14
:102F100004F1C90741BF0121A1408A4383F8F72189
:102F2000024B00221A5410BDA4130020F80E0020FA
:102F3000074A4260074A82604FF480220023C26041
:102F400002220360027442748374C3740375704771
:102F500000E1F505808D5B00B1F5803F436802D04C
:102F6000B1F5003F06D123F010034360036C194311
:102F70000164704719434160036C23F440330364D8
:102F80007047000070B5056B15F080753ED10123C8
:102F900003608B7C4A7C002B0B7C4FEA02724FEA69
:102FA000036302F0405203F0706343EA0203CA680D
:102FB00043EA02038A684FEA42064A68B2FBF6F225
:102FC00002F1FF324FEA022292B218BF4FF00045E1
:102FD00013432B434360CB7C0A7D002B14BF4FF07F
:102FE00080730023002A14BF4FF480120022134381
:102FF00003640968064B98470023064A194642F8BD
:1030000023100133182BFAD1002070BD192070BD98
:10301000592F4000700F002073B50A4B0A4D1B6BEF
:103020000A4E01930024019A55F824301A4203D025
:1030300056F8243003B198470134182CF3D102B06C
:1030400070BD00BF00800340D8014100700F002018
:1030500007B5104B1D2098470F4A9378FF2B00D1DE
:10306000FEE7EFF31083B3FA83F35B09019372B6C3
:10307000BFF35F8F094900230B70937801980133E8
:10308000937020B101230B70BFF35F8F62B603B062
:103090005DF804FB75804000680F00202D000020C3
:1030A00019B10B6803604B6843601AB11368036180
:1030B00053684361704721F0FE01C905C90D0162E3
:1030C0007047406870470000214B994210B53CD8CA
:1030D000A3F57A53994223D91E4B1F4CB2FBF4F44B
:1030E0000B449B00043CB2FBF3F20023043AFF2C98
:1030F00001D9072B0CD1FF2A0DD812021B0492B262
:1031000003F4E0231A43E4B222430261002010BD1D
:1031100001336408EBE7062BEFD801335208EAE7E6
:1031200049000023B2FBF1F2043AFF2A01D9072B30
:1031300008D111021B0489B203F4E0230B43D2B27D
:103140001A43E2E701335208EFE7012010BD00BF48
:10315000801A06000012FD3F00B80B0038B54FF092
:10316000FF338362036A80230360036B08230360D9
:1031700020230360042303600D460A68064B496858
:1031800004469847431E584258416B7A012B04BFAE
:103190004023236038BD00BFC930400061B1012920
:1031A000037807DD4278022942EA032302D08278BD
:1031B00042EA0323184670470B46FBE7F8B5CC6894
:1031C00005460846002C48D000268F686E604B6884
:1031D0000A7C1B0203F44073120402F4FE0243F45F
:1031E000805313436B60EE601E4B49689847012C77
:1031F0000CBF03230123E86006BF26462B602B602B
:10320000022147F230532A6AD00528D433B9092461
:103210002046F8BD47F230531746F4E7012C02D19F
:103220000EB929602646900702D4013B3A46F3E7DF
:103230002B6B3B70013C07F10102EBD10A4B1C6088
:103240002A6AD20703D41A68B2F5FA7FF8D32A6A39
:103250001B68B3F5FA7FDAD2DAE70124D8E7052450
:10326000D6E700BF9D314000A00E002070B5CE68AB
:1032700004460846002E3ED08D6800216160037C24
:1032800042681B04120202F4407203F4FE0313436B
:103290006360E1604168194B98472E44E060AE429C
:1032A0000ED1174B00221A60226A12F480710AD1E3
:1032B000500710D41A68B2F5FA7FF5D3092070BD13
:1032C000236ADA0501D5052070BD5B0744BF15F8F8
:1032D000013B6363E3E7022222601960226AD2079E
:1032E00003D41A68B2F5FA7FF8D31B68B3F5FA7FF6
:1032F000E4D2002070BD012070BD00BF9D314000B0
:10330000A00E002043699B0743BFC1F30801C161C0
:103310000020012070470000084BB3FBF1F181420F
:1033200008D8C1EB0133834204D3B0FBF1F0C0F302
:103330000B0070474FF6FF70704700BF0020A107D9
:1033400010B5044CC2F30B0204EA034313430B43CE
:10335000436010BD0000FF0F4FF40043436070470F
:10336000024B984204BF024B0360704750140E405A
:10337000010000A54068C0F30B00C001B0FBF1F1F3
:1033800001484843704700BF40420F00024B0122F2
:103390005A61C3F8A0207047000E0E40024B022273
:1033A0005A61C3F8A0207047000E0E4010B5034BC1
:1033B0009847034BBDE81040184700BF9D334000BD
:1033C0008D334000034B01221A61C3F8A0205A63D9
:1033D000704700BF000E0E40034B02221A61C3F873
:1033E000A0205A63704700BF000E0E40034B01221D
:1033F0005A61C3F8A020D86B10407047000E0E40F1
:1034000010B5084B084C9847084B984740F2955028
:10341000A047074B9847234640F29550BDE810401F
:10342000184700BF8D334000010000209D3340004D
:10343000C533400010B50A4B0A4C98470A4B9847D1
:1034400040F29550A047094B984740F29550A0474D
:10345000074B9847234640F29550BDE81040184767
:10346000D933400001000020C53340009D334000A7
:103470008D33400070B50A4D0A4CA84740F2CB206E
:10348000A047094B984740F2CB20A047074B9847ED
:1034900040F29550A047A847054BBDE8704018473B
:1034A000D933400001000020C53340009D33400067
:1034B0008D33400070B50A4E0A4C0B4DB04740F2B8
:1034C000CB20A047A84740F2CB20A047074B984706
:1034D00040F29550A047B0472B46BDE870401847D2
:1034E000D9334000010000208D3340009D3340005F
:1034F000F8B5194F194D1A4EB84740F29550A847E4
:10350000184B9847B320A847B0470446B320A847B4
:10351000B0470444B320A847B047E4B20444B32002
:10352000A847B047E4B20444B320A847B047E4B288
:103530000444B320A847B047E4B20444B320A847EA
:10354000B047E4B20444E4B2B320A847B847032C20
:1035500094BF00200120F8BDD933400001000020B5
:10356000ED3340009D3340002DE9F047114F814677
:1035700008248026B846B8470F4D40F2CB20A84714
:1035800019EA060F14BF0D4B0D4B984740F2CB20A4
:10359000A8470C4B9847013C40F29550A847C047BC
:1035A00014F0FF044FEA5606E5D1044BBDE8F0479E
:1035B000184700BFD9334000010000208D33400080
:1035C000C53340009D3340002DE9F8434000174BC0
:1035D000174E184D184F89469046C4B29847174B5E
:1035E00098472046B047A84720B1B8476FF004007D
:1035F000BDE8F8834846B047A8470028F5D14046C3
:10360000B047A8470028F0D104EB09004044C0436C
:10361000C0B2B047A84720B1B8476FF00200BDE87C
:10362000F883B8470120BDE8F88300BFAD33400000
:1036300069354000F1344000353440000134400029
:103640002DE9F84F1F4F08264FF0800B4FF0000A6E
:10365000B8461D4DDFF87890B84740F29550A8471E
:103660001A4B9847B320A847C8470446B320A84739
:10367000C8470444B320A847C847E4B20444B32071
:10368000A847C847E4B20444B320A847C847E4B2F7
:103690000444B320A847C847E4B20444B320A84771
:1036A000C847E4B20444E4B2B320A847042C88BF5E
:1036B0004AEA0B0AC047013E4FEA5B0BC9D15046AC
:1036C000BDE8F88FD9334000010000209D33400051
:1036D000ED3340002DE9F84F44000134E4B2DFF847
:1036E000C8B0DFF8C8802A4F0D4691461E46D8471D
:1036F0002046C047B84728B1264B98476FF00400D2
:10370000BDE8F88F2846C047B8470028F4D13046B6
:10371000C047B8470028EFD160193044C043C0B259
:10372000C047B84728B11B4B98476FF00A00BDE867
:10373000F88F40F29550184B9847D8472046C0471D
:10374000B8470028D8D1013E144FDFF8588009F15E
:10375000FF354E44B5420AD1B84782450D4C11D0D1
:103760000F4B9847A0476FF00200BDE8F88FB847AD
:103770000444E4B26FEA040A05F8010F5FFA8AFA1A
:10378000C047E7E7074B9847A0470120BDE8F88FFF
:10379000F134400035344000010000204136400043
:1037A000B5344000753440000134400069354000B4
:1037B00083B203F1630292B2312AA1EB000111D866
:1037C000FA29A1F1E203CCBF24484FF07E50182B18
:1037D000A1F1C90398BF2248182B34D9C8293BDC72
:1037E0002048704795339BB2312B14D8B1F5967FA2
:1037F000A1F1FB03CCBF1C484FF07E50312BA1F14F
:10380000C90398BF4FF07D50312B1ED9C82923DC46
:103810004FF07A50704795301ADAB1F5AF7FA1F5C5
:10382000A373CCBF4FF07D504FF07E50182B6FF438
:1038300096730B4498BF0D48182B0CD9B1F5967FA1
:103840000ADC0B4870470B4870474FF07C507047BC
:103850004FF07E5070470848704700BF7B146E3FA2
:103860009A99593F3D0A173FAE47613FCDCC0C3F77
:10387000C3F5A83EC3F5283FAE47E13E0000000077
:103880002DE9F0414020944CA04706461220A04765
:10389000362800F006810720904B914C914D9847B7
:1038A00030B394F8A8311BB38F4F904B3E78DFF8BC
:1038B0008882304698478E4B984785A3D3E90023EA
:1038C000C0478C4B98478C4BC0B23228187004D834
:1038D0003336361A33223E701A70B4F8EB3143F0A7
:1038E0000203A4F8EB3140F2B1432B60BDE8F08154
:1038F000B4F8EB31990740F1B980B4F8F221D2075E
:1039000000F1B4802A68B2F5966F05DD23F002035A
:10391000A4F8EB31BDE8F081042E784E6AD15B202B
:10392000B04758B1B4F8EB3123F00203A4F8EB31FF
:10393000734B4FF480025A63BDE8F0814020B047DA
:103940000028EFD14820B0470028EBD14420B047F1
:103950000028E7D14C20B0470028E3D1B4F9D33197
:10396000312B0DDDB4F8EB3123F00203A4F8EB3179
:10397000644B00221A60624B4FF480025A630DE0E0
:103980002968322291FBF2F302FB131333B95E4B29
:10399000022098475D4B68B15D4A1A605B4E5D4BF3
:1039A00037684FF07A5421463846984700283ED071
:1039B000346044E0B4F9D32112F13B0F06DA564AE1
:1039C0001A604F4B4FF480021A63E7E712F1280F99
:1039D00001DA524AF4E712F1140F01DA504AEFE724
:1039E000002A02DA4FF07D52EAE71D2AD6DC4D4A62
:1039F0001A60C0E75920B04750B1B4F8EB3123F05A
:103A00000203A4F8EB313F4B00221A60BDE8F081BD
:103A10005820B0470028F0D1B4F9CD01031DECDAED
:103A2000B4F9CF11404B9847384B1860B6E74FF0C8
:103A30007E54214638463D4B98470028B8D12A4F3E
:103A40002A4B3C78204698473168394B9847394B88
:103A50009847294BC0B23228187004D83334241A3E
:103A600033223C701A702B6801333EE72A681AB182
:103A7000013A2A60BDE8F081042E224A16D1B4F939
:103A8000D3111E290FDC1168481C0329106004DDC6
:103A900043F00203A4F8EB3116601C4B4FF07E524A
:103AA0001A60BDE8F08100231360F6E7B4F9CD1188
:103AB0003131F8DA1168481C03291060EDDD43F05C
:103AC0000203A4F8EB310423EEE700BFAFF300805C
:103AD0009A9999999999D93FD18D4000A5014000B3
:103AE000A4130020800B0020990B00201DBD400076
:103AF00079B4400081BA4000980B0020892E400024
:103B0000000E0E408C0B00205101400028000020C8
:103B10009A99593F09C140003333B33E6666E63E89
:103B20009A99193F6666663FB137400045C140002B
:103B3000CDBD400059C1400021B54000000000004B
:103B400038B53F200C4B0D4D98470D4B98470D490C
:103B50000D4B98470D4B0446984705A3D3E9002326
:103B6000A84700B10A4C204638BD00BFAFF3008023
:103B70009A9999999999D93FD18D400005BA4000F9
:103B80001DBD40000000C84235BF400079B4400070
:103B9000CDCCCC3E2DE9F74FB04C4E20A04781460E
:103BA0008DF804004F20A0478DF8050005467920C8
:103BB000A04709F1FF33012B8246A04665D96B1E51
:103BC000012B62D9B9F1030F61D0032D0CBF802501
:103BD0000025A34EA34FB6F8EB3115F0800F17BFA9
:103BE00043F4807323F48073A6F8EB31802508BF7B
:103BF000A6F8EB3100240DF1040B14F80B20012A78
:103C000050D1994B1B78002B43D1E83406EB440488
:103C100040F2ED23B4F905209A424FDDB9F1010FCE
:103C20001CD1924C226843F697239A4204D9904BB8
:103C30001A780AB901221A704C20C047012840F0B6
:103C4000E480B6F8EB31C3F30E03A6F8EB31884AF3
:103C500000231370874A236013701025EB0756D595
:103C6000B6F8EB3123F00103802DA6F8EB3108D82C
:103C70007C4C3820A0473920A0473A20A0473B2061
:103C8000A047284603B0BDE8F08F1025A1E78025A6
:103C90009FE74F2BC2D1E83406EB4404B4F905305A
:103CA000C72BBAE7022A16D16F4B1B7843B9E83409
:103CB00006EB4404B4F90530C72BAFDD112516E03F
:103CC0004F2BABD1E83406EB440440F2ED23B4F9BA
:103CD00005209A42F1E7032A1ED1E83406EB44049A
:103CE000B4F9053003339B10332B04DC8125B9F183
:103CF000010FB5D195E7FF2B5F4AA8BFFF23DBB2C9
:103D000013705E4A80251370B9F1010F89D0B6F89F
:103D1000EB3143F00103A7E7A2F10B03032B28D8F3
:103D200004F1E80306EB43030B2AB3F9053025D170
:103D3000B3F5AF7F18DB4B4C3920A0473B20A047A1
:103D40003A20A04738204E4B9847BAF1000FCDD10A
:103D50007E20C0474B4D044601217920A847611CB5
:103D6000C9B27E20A847C1E7BAF1010F4BD0382075
:103D7000B8470134022C3FF451AF3EE70C2A14D16E
:103D8000B3F5C87F0FDB3C4AFF2313703B4A382052
:103D90001370B8473B20B8473A20B8473920384B12
:103DA00098478225B0E73920E2E70D2A15D1B3F50F
:103DB000C87F10DB304BFF221A70304B00223820B6
:103DC0001A70B8473920B8473B20B8473A202C4BE7
:103DD000984783258BE73A20CAE7B3F5C87F10DB05
:103DE000254B00221A70254BFF2238201A70B84745
:103DF0003920B8473A20B8473B20214B98478425C3
:103E000082E73B20B4E78125B3E796F8ED3113F064
:103E1000010F154B1B7802D04F2B3FF418AFD3B9CD
:103E2000B6F9D531962B16DD11490B78002B3FF4EE
:103E300015AF104A1378002B7FF410AF0B7023607E
:103E400001231370B6F8EB316FEA43436FEA534333
:103E5000A6F8EB3101E7112500E700BFD18D400046
:103E6000A4130020FD2E4000300E0020840E002000
:103E7000900B00206F0B0020990B0020980B002066
:103E8000A92E4000698D400073B50020464E474C76
:103E9000474DB047002834D0E379190731D52B6856
:103EA000002B6DD0434E0220B0470020B0470120C8
:103EB000B0472A68013A2A60B4F8EB3123F03F0397
:103EC0009BB2002A63D1A4F8EB3194F8AF2194F8A7
:103ED000B031013AD2B2013BDBB2542A84F8AF21AF
:103EE00084F8B0315BD9542B9CBF552384F8B03192
:103EF000314B94F8AF211A70304B94F8B0211A70FE
:103F00004BE00220B04718B194F82B301A07C6D402
:103F10000120B0470028C2D12B68002BC2D1284B0A
:103F200000201860244B84F8AF011870234B84F8EC
:103F3000B0011870B4F8EB3123F03F03A4F8EB3173
:103F4000204C23680133072B236013D11E4B984765
:103F50001E4B1B688DF800301A0A8DF801201A0CD0
:103F60001B0E8DF802208DF803306A462521222091
:103F7000174B984723680C2BC4BF0C2323600CE01D
:103F8000B4F8EB319B06CAD096232B60C4E743F00C
:103F900004037D2AA4F8EB3197DD02B070BD5522F1
:103FA00084F8AF219FE700BF51014000A413002017
:103FB0007C0B0020DD014000990B0020980B0020B5
:103FC000880B0020840B0020BD9D4000740E002053
:103FD000F995400070B51F4C1F4D23680F20EBB9B9
:103FE000A84704461020A84706461120A84704EB1E
:103FF0008404A0F5A65004EB8404103800EB840080
:1040000006EB860600EB460000B220EAE07000EB0B
:10401000800000EB8000800080B270BDA84723685C
:104020001B78834213D11020A84723685B78834212
:104030000DD11120A84723689B78834207D1122015
:10404000A8472368DB78834201D1A08870BD06347D
:10405000C3E700BF0A000020D18D4000000000002F
:104060002DE9F74F364B374DDFF8F8B0C0F1640A51
:1040700008460C469847344B804620468946984768
:1040800005EB4A15314CDFF8E0A006460F46D5E9AE
:10409000002340464946A04742464B46A047324689
:1040A0003B46A047D047D847D5E90223CDE90001D8
:1040B00040464946A04732463B46A047DFF8AC8021
:1040C00002460B46DDE90001C047D5E90423CDE9EE
:1040D000000130463946A04706460F46DDE900019B
:1040E000D047D84702460B4630463946C047D047EE
:1040F000D847D5E90623C047D047154B0546984712
:10410000144B9847D8470CA3D3E90023A047D047C6
:10411000114B044601462846984728B90F49104BD1
:104120002846984720B10D4C204603B0BDE8F08FDB
:104130002C46F9E7AFF300801F85EB51B81EF13F25
:1041400035B440003802410055B4400021B540006C
:10415000D53F40001DBD400045C14000000020414A
:1041600009C1400079B4400011BB4000BDB140001E
:1041700010B51420064CA047392806D11520A047B9
:10418000A0F130035842584110BD002010BD00BFBF
:10419000D18D4000000000002DE9F74F684A694FBB
:1041A0001188B7F9DB310B445B1013801BB2772BFE
:1041B00004466BDD1220644B9847002866D0B7F99F
:1041C0005351B5F5487F64DC002DB8BF0A255F4B1D
:1041D0005F4E1D805F4BDFF8C8B19847814620468F
:1041E000B0475D495D4B984780464846B0475C4BB9
:1041F000014640469847824697F8AF01DFF8A48110
:10420000B047C047574E4AA3D3E90023B047564BA7
:104210009847564B5FFA80F99847554B01265BF853
:10422000261001935046984718B901363D2E019B40
:10423000F5D1C6F1650080B248454E4E2CD84E4BA4
:10424000284698474D494E4B98474E4B984781B268
:104250004846B0474C4B98474C4B4D4A1880137812
:104260000133DBB23C2B137010D9A11E8D4297F89D
:10427000AF3135D2B5EB540F1ADA0133E2211170A8
:10428000B3F5807F08BFFF23424A137003B0BDE837
:10429000F08F4FF448759AE7A9B2C0B2B047C04753
:1042A0003D4E25A3D3E90023B0473C4B9847D1E7C7
:1042B000A4EB9401A94202DD0133EC21DFE7A4EB7A
:1042C000D401A94202DD0133F621D8E704EB8402D0
:1042D0006421B2FBF1F2A41AAC42D5DB0133CFE783
:1042E000A11C8D42D0D904EB5401A94206DA013B4E
:1042F000E2211170342BB8BF3423C5E704EB9401DD
:10430000A94202DA013BEC21F3E704EBD401A94214
:1043100002DA013BF621ECE704EB84026421B2FBF4
:10432000F1F21444AC42A8BF03F1FF33E2E700BF4F
:104330006666666666660440666666666666EE3F44
:1043400036100020A41300202D014000EE0A0020AA
:104350001DBD4000D53F400000007A4435BF4000FD
:10436000CDBD400075B74000D1BA4000413B400090
:1043700045C140006140400025BD4000DD499F3CF3
:10438000B9BB4000A5C1400059C14000140A00203B
:10439000750B0020990B002021B5400011BB400097
:1043A000F009410079B440002DE9F74F684A694FA0
:1043B0001188B7F9E1310B445B1013801BB2772BE6
:1043C00004466BDD1120644B9847002866D0B7F98E
:1043D0004151B5F5487F64DC002DB8BF0A255F4B1D
:1043E0005F4E1D805F4BDFF8C8B19847814620467D
:1043F000B0475D495D4B984780464846B0475C4BA7
:10440000014640469847824697F8B001DFF8A481FC
:10441000B047C047574E4AA3D3E90023B047564B95
:104420009847564B5FFA80F99847554B01265BF841
:10443000261001935046984718B901363D2E019B2E
:10444000F5D1C6F1650080B248454E4E2CD84E4B92
:10445000284698474D494E4B98474E4B984781B256
:104460004846B0474C4B98474C4B4D4A1880137800
:104470000133DBB23C2B137010D9A11E8D4297F88B
:10448000B03135D2B5EB540F1ADA0133E221117095
:10449000B3F5807F08BFFF23424A137003B0BDE825
:1044A000F08F4FF448759AE7A9B2C0B2B047C04741
:1044B0003D4E25A3D3E90023B0473C4B9847D1E7B5
:1044C000A4EB9401A94202DD0133EC21DFE7A4EB68
:1044D000D401A94202DD0133F621D8E704EB8402BE
:1044E0006421B2FBF1F2A41AAC42D5DB0133CFE771
:1044F000A11C8D42D0D904EB5401A94206DA013B3C
:10450000E2211170342BB8BF3423C5E704EB9401CA
:10451000A94202DA013BEC21F3E704EBD401A94202
:1045200002DA013BF621ECE704EB84026421B2FBE2
:10453000F1F21444AC42A8BF03F1FF33E2E700BF3D
:104540006666666666660440666666666666EE3F32
:1045500036100020A41300202D014000F00A002096
:104560001DBD4000D53F400000007A4435BF4000EB
:10457000CDBD400075B74000D1BA4000413B40007E
:1045800045C140006140400025BD4000DD499F3CE1
:10459000B9BB4000A5C1400059C14000140A002029
:1045A000750B0020980B002021B5400011BB400086
:1045B000F009410079B440002DE9F04F984B994E35
:1045C0009A8859881C88DA8099805C800546B6F9FB
:1045D000DB01188014FA80F001440A4412B2B2F5EB
:1045E000177F89B0C0F2FB808F4A029213780133A3
:1045F000DBB2062B137040F2F2808C4B8C4CDFF850
:10460000AC92DFF8ACB28B4F9847A0470190284698
:10461000A047894B89498A4D98470199C8478046E8
:1046200096F8AF01A047D84779A3D3E90023A8475C
:10463000844A03929047844B5FFA80FA9847039A22
:104640000494824CCDF814900125CDF800B0914629
:1046500057F8041F4046A04718B90135EDB23D2D6B
:10466000F6D17B4BB6F9AB009847C5F165057949A2
:10467000764BADB283469847002840F094800021E5
:104680005846754B984708B1DFF828B2734B744F02
:10469000584698471FFA8AF4A542A6F8C30100F2CB
:1046A00085807049DFF810925846C847B8476E4A6F
:1046B000DFF8ECB181B250469047DFF8E8A196F8F8
:1046C000AF218BF800208AF800200390B847674A92
:1046D00067491368CDF818B013FA80F00B681060C2
:1046E0000133072B0B60CDF81CA07BDC029B1B78F1
:1046F0000B2B74D903995F4F4046C847029ADFF8E5
:104700009C81DFF83C91002313700646009B0198C2
:1047100098470022584BC0470022584BB847002208
:10472000574BC847574B9847574B81460146304631
:10473000984730B909F100413046544B984700285A
:104740004DD05349059BDFF840B148469847824613
:1047500001463046D84700284DD00534642C19D87E
:10476000AC4238BF2C46A0B2049B464C9847009BF5
:10477000984729A3D3E90023B847A047009B98474F
:1047800023A3D3E90023C047A04742492F4B044647
:10479000984700B13F4C324B20469847069BC0B229
:1047A0001870079B1AE0DFF8ACB06FE75846B847BF
:1047B0002D4B304C81B2E8B29847374B284698478A
:1047C00015A3D3E90023A04711A3D3E90023334C59
:1047D000A047C847324BC0B21870324B187009B0AE
:1047E000BDE8F08F90FBF3FE5B104010A6F8C5E12A
:1047F0000B6010607AE7494648462B4B9847814644
:1048000001463046D847002858D00234A6E700BFFA
:104810006666666666660440CDCCCCCCCCCCDC3F0C
:1048200036100020A4130020740B0020D53F400058
:104830001DBD4000F009410035BF400000007A4432
:1048400075B74000D1BA4000413B400045C140002F
:1048500025BD40000000484409C1400059C1400046
:10486000A5C14000541CC73C61404000700B0020B3
:10487000940B0020BDB140000000144000004940EE
:104880000000594011BB400031C140001DC1400033
:104890000000404000007F4355B4400021B5400077
:1048A000990B0020980B0020BDBB4000CDBD4000FF
:1048B00079B4400000002041B9BB400000213046DF
:1048C0000B4B984708B1013448E70AF10041DFF883
:1048D00024B03046D84710B1053CA4B23EE709F1F8
:1048E00000413046D84708B1023CF6E7013CF4E706
:1048F00045C1400009C1400010B50B4B0B4C984717
:104900000B4B984706A3D3E90023A047094B9847D0
:10491000094BC0B21870094B187010BDAFF300807E
:1049200052B81E85EB51D03F1DBD400021B540005F
:1049300079B44000D1BA4000990B0020980B0020B8
:104940002DE9F04F502085B0914DA847002854D153
:10495000904C94F82B30180718D41120A84748B170
:104960008D4A002313708D4A84F8AF31137084F898
:10497000B03142E01220A8470028F1D11020A8470A
:104980000028EDD11320A8470028E9D12E20844F1C
:10499000844DB84710F4804F8046064631D0082039
:1049A000A84700282DD0B4F8EB31DFF804A2DFF8D7
:1049B0004C92DFF84C827C4F7C4E774D43F00103E4
:1049C0007C20A4F8EB31D047C847C0476EA3D3E999
:1049D0000023B847B04728707B20D047C847C0475E
:1049E00069A3D3E90023B847B0476C4BC0B2187035
:1049F0002B7884F8AF3184F8B001012005B0BDE810
:104A0000F08F1620A847002833D04C20684B9847D9
:104A1000002833D018F4004FDFF8E8A150D016205A
:104A2000A847002848D0DAF80020624B9A4251D9B2
:104A30000023CAF800303A205D4B9847C8F30E06B1
:104A4000054631462E205C4B9847691CC9B23A2076
:104A50005A4B98475A4B564D984701905020A847BB
:104A60005020A847019B812BA8464ED1554B984713
:104A7000C3E71720A8470028C7D1CBE7524B534ABA
:104A800019689142C6D91860514B1B781BB9514B1C
:104A90001B78002BBED0504B504A197811B91178B1
:104AA0000029B7D0002119701170B4F8EB3143F42C
:104AB0008043A4F8EB31ADE71720A8470028B2D116
:104AC000B4F8EB3123F48043A4F8EB310023CAF8A7
:104AD0000030BFE7B4F8EB312F4A43F48043A4F829
:104AE000EB31CC2313702D4A84F8AF3113703A4A5E
:104AF00084F8B03100231370354A1370354A1370AF
:104B0000374A1360374A136077E7019B112BADD00A
:104B10009DF90450002D0CDB4C20C04794F8ED317A
:104B200003F00303032B0BD118B901214C20234BB5
:104B300098472D4B1B7833B94F202C4B98475CE797
:104B40000028F6D192E72A4B2A4900221A602A4B04
:104B50004FF480425A63B4F8EB2142F00103A4F809
:104B6000EB310B68182BD7BF01331A230B604FF0C2
:104B7000550AC4BF0B604FF0400A510644D584F873
:104B8000AFA184F8B0A138E7666666666666044041
:104B9000892E4000A4130020990B0020980B0020C0
:104BA000DD8D4000A501400021B54000D1BA400094
:104BB000D18D400040771B00818D4000698D400001
:104BC000953B4000893E4000240E0020FFDC6D0034
:104BD000EC0A0020ED0A0020E40A0020E50A00208B
:104BE000100E0020180E0020300E0020BD9D400049
:104BF000840B0020880B0020000E0E401DBD4000DD
:104C000079B44000200E002093043FF5F6AE002D4D
:104C1000C0F2078294F8ED31DD074CD598070FD527
:104C200071064FEA93193CD56120B84783465D2051
:104C3000B847BD4B054658469847BC4B2846984751
:104C4000F50701D5BA4B9847BA4B9847B4F8EB3102
:104C5000980700F1E681710600F1E381DFF8F8B210
:104C6000B54B9BF8005007209847CDF808B00028B6
:104C700000F09280B4F8F231DA0700F18D806920FB
:104C8000B847C31F9BB2532BC5F5807B2BD9692036
:104C90000A21AA4B98470F20A0F10A031BB20A2150
:104CA0005AE00FFA89F04000533080B2B84732061C
:104CB00017D5A34BC3E75220C047032828BF0320C2
:104CC00073068146B0D44000533016F0800F80B296
:104CD00006D0B4F8EB3113F4606F01D1B847E8E7C0
:104CE000B847984BABE7092832D8031F1BB2CBF368
:104CF0008F0BB4F9BF11B4F8EB21814231DD42F4DE
:104D00000062A4F8EB214FF0010BFF258A4B0393BF
:104D100005209847039B002845D0B4F8F231DB0703
:104D200045D46820C04780B2A0F114034F2BC5F5CD
:104D3000807343D968203221834A03939047039BB1
:104D40003220A0F10C0211B20C22B3FBF2F33EE0D0
:104D50000E28A1D81BB20721BBFBF1FB1FFA8BFB6E
:104D6000C7E78B4211DA42F40062A4F8EB21029A01
:104D7000CB1A11780BFB0313FF2B28BFFF239D4297
:104D800038BF1D464FF0010BC0E722F40062A4F8C3
:104D9000EB214FF0000BB9E7B4F8EB3123F40063DB
:104DA000A4F8EB31F5E7062098470028B5D1B4F810
:104DB000EB3123F40073A4F8EB3118E03128C0D8AC
:104DC000A0F10A0211B24FF00A0EB3FBFEF3B4F9E0
:104DD000BD2182421FFA83FEB4F8EB31C0F2888015
:104DE00043F40073A4F8EB314FF0010BFF25524B55
:104DF000029303209847029B002800F0B580B4F886
:104E0000F231D80700F1B5806620B847A0F24E23F2
:104E10009BB240F28E318B42024640F2B18040F2AA
:104E2000EE216620454B98474FF41672A2F1DC0341
:104E30001BB2B3F5167FB8BF4FF41673B4F9BB11AC
:104E40009142C0F2A5807D20C047B4F8EB3100B29A
:104E500000EB400000EB0010142543F4806390FB4E
:104E6000F5F5FF2DA4F8EB31A8BFFF254FEA490067
:104E7000533080B2B847354BDFF8E8B09847344B31
:104E8000984727A3D3E90023D847ABB24FF00A0BCA
:104E90000BFB03FB2F4B98472F4BEDB21D702F4B95
:104EA0000BF1090B80B21D709BFBF0FB84F8B1B1D4
:104EB000B10740F13F812A4D2B68652001332B60FB
:104EC000C04780B200EB800000EB800040002B6800
:104ED00080B2984240F394801F4AFF2313701F4A08
:104EE0001370B4F8EB3143F01003A4F8EB3198E001
:104EF0009142BFF65EAF43F40073A4F8EB31029B1E
:104F00001B78521A0EFB0232FF2A28BFFF2295425D
:104F100038BF15464FF0010B69E700BFAFF30080C3
:104F200052B81E85EB51D03FA94340009941400043
:104F300081384000D10A40002D014000818D4000A1
:104F4000B9454000F9484000698D40001DBD400052
:104F500079B44000D1BA4000990B0020980B002092
:104F6000780B002021B540000420984700287FF4EA
:104F700046AFB4F8EB3123F48063A4F8EB3137E0AB
:104F8000B0F5617FFFF452AFA0F582731BB255E715
:104F90008B42B4F8EB1127DADFF8F0B1039241F459
:104FA00080617D200293A4F8EB119BF80050C0476C
:104FB00000B200EB40001421029B039A00EB0010AA
:104FC00090FBF1F0B4F9BB11C0B2C91A451B4D43B7
:104FD000D31AB5FBF3F39BF80050694A1D44EBB2BA
:104FE0008BF80030137041E721F48061A4F8EB11D5
:104FF000BBF1000F7FF43AAF0A2384F8B13157E7D1
:1050000000233A202B60C04726F00206B6B20546C0
:1050100031462E205B4B9847691CC9B23A205A4B47
:105020009847B4F8EB31594DDFF854B113F0020F43
:1050300040F09C80720600F1998094F8ED31980759
:1050400002D513F0300F01D1F10637D5504B51483E
:1050500098476320C04702064CBFA0F58078804681
:105060004FEA4900533080B2B847DFF854914A4FB5
:10507000C8474A4B984740A3D3E90023B847484B59
:105080009847B8F1000F87B259DA08F16400454B30
:1050900098474549454B984780463846C847444B52
:1050A000014640469847434B98472F708BF80000C5
:1050B000B4F8EB3143F00803A4F8EB3116F0C00F5D
:1050C00019D1DFF8FC902878DFF8F880384FC8470E
:1050D0000646C04701463046B847374EB0472870AD
:1050E0009BF80000C8478146C04701464846B8477C
:1050F000B0478BF80000019B7D33DBB2012B0AD94E
:105100002B7853459BF8003038BF85F800A05345F5
:1051100038BF8BF800A0B4F8EB311B0604D4274B42
:10512000984708B185F800A02B7884F8AF319BF838
:1051300000301CE4B4F8EB3123F01003D5E613D0B3
:10514000C8F16400174B8BF8007098471649174B4D
:10515000984780463846C847154B01464046984711
:10516000144B98472870A3E7B4F8EB3123F00803F9
:10517000A2E700BFAFF3008052B81E85EB51D03FCD
:10518000980B0020818D4000698D4000990B002014
:10519000DD544000D809410021B5400079B44000F9
:1051A000D1BA400025BD40000000C84235BF4000D4
:1051B000CDBD4000A5C1400059C140007141400033
:1051C0001DBD4000413B4000064B002203F58071AD
:1051D0001A60DA605A609A6010338B42F8D1024B41
:1051E0001A60704740100020400E0020064900233E
:1051F0005A5858181AB142680AB1013A426010333D
:10520000B3F5807FF4D170474010002030B5094DD0
:10521000002213015C195B5933B90122E06022605E
:105220006160A160184630BD0132102AF1D14FF003
:10523000FF3030BD4010002038B5094C04F58075B2
:10524000236833B1636823B9E368984728B1A3683A
:1052500063601034AC42F3D138BDE0602060F8E701
:105260004010002010B5164C164B20469847164BA0
:1052700018602046154B9847154B1A68A1691170A4
:105280001968144A914218460CD0134C19682468C6
:1052900001318C4206D01A6801321A600F4B00228D
:1052A0001A6010BD01680E4B914205D10A4A12687E
:1052B0009A4201D00360F1E70A4B01221A70EDE730
:1052C00000060E40138140009C0B00201781400017
:1052D000280C0020250C0020A00B0020500E0020E0
:1052E000A50B0020A40B0020054B064A1A60064AB5
:1052F000064B1360064A1360064B00221A70704773
:105300002C0C0020300C0020A00B0020A50B00204E
:10531000280C0020A40B0020F8B5124E124C306867
:10532000124DA047782802D100202860F8BD3068CF
:10533000A0472B68952B13D90D4F0E490E4BC0F18A
:10534000780084B222463846984730680B490C4BA7
:105350000022984700232B600A4B1F602046F8BDAF
:105360000020F8BDAC160020C3304000500E0020D5
:10537000A50B0020A915002041C240008C1300207D
:10538000A1304000A00B0020024A136813F8010B63
:1053900013607047A00B002038B50A46054B064D38
:1053A000064C0146044898472846A0470028FBD0F1
:1053B00038BD00BF517E400000060E401F814000F6
:1053C00038B5074B074D0446984721460246064B21
:1053D0000448064C98472846A0470028FBD038BD13
:1053E00081C4400000060E40517E40001F814000F5
:1053F00030B58FB00D4604463222002101A82D4B56
:105400009847A5B922462C492C4B2D4D2D4C01A86F
:1054100098472D4B01A8984701A902462B4B2848D5
:1054200098472846A0470028FBD00FB030BD0A2D72
:1054300013D122462649214B214D224C01A89847E1
:10544000214B01A8984701A90246204B1C489847C8
:105450002846A0470028FBD0E7E7102D13D12246AD
:105460001C49164B164D174C01A89847164B01A81E
:10547000984701A90246154B114898472846A0476E
:105480000028FBD0D1E7012DCFD1224612490B4B8A
:105490000B4D0C4C01A898470B4B01A8984701A94C
:1054A00002460A4B064898472846A0470028FBD0EA
:1054B000BBE700BF75C34000F80A410011C44000BB
:1054C00000060E401F81400081C44000517E400014
:1054D000FB0A4100FE0A4100010B4100F8B50C4BEC
:1054E0000C4D0D4F04469847214602460B4C0A4886
:1054F000A0472E463846A8470028FBD0022208497C
:105500000548A047044C2046B0470028FBD0F8BD12
:1055100081C440001F81400000060E40517E4000C3
:10552000060B4100F0B58FB00D4604463222002133
:1055300001A8414B9847F5B922464049404B414CA0
:10554000414D424F01A89847414B01A8984701A9F6
:1055500002463E48A0472E463846A8470028FBD0C2
:1055600002223C493948A047384C2046B047002821
:10557000FBD00FB0F0BD0A2D1DD122463649304B6D
:10558000304C314D314F01A89847314B01A8984715
:1055900001A902462D48A0472E463846A8470028B4
:1055A000FBD002222B492948A047284C2046B0476F
:1055B0000028FBD0DDE7102D1DD122462749204BC6
:1055C000204C214D214F01A89847214B01A8984715
:1055D00001A902461D48A0472E463846A847002884
:1055E000FBD002221B491948A047184C2046B0475F
:1055F0000028FBD0BDE7012DBBD122461849104B36
:10560000104C114D114F01A89847114B01A8984714
:1056100001A902460D48A0472E463846A847002853
:10562000FBD002220B490948A047084C2046B0474E
:105630000028FBD09DE700BF75C34000F80A410079
:1056400011C44000517E40001F81400000060E4002
:1056500081C44000060B4100FB0A4100FE0A4100E4
:10566000010B410010B5164C164B20469847164BBF
:1056700018602046154B9847154B1A68A1691170A0
:105680001968144A914218460CD0134C19682468C2
:1056900001318C4206D01A6801321A600F4B002289
:1056A0001A6010BD01680E4B914205D10A4A12687A
:1056B0009A4201D00360F1E70A4B01221A70EDE72C
:1056C0000040044013814000B40C002017814000CA
:1056D000400D00203D0D0020B80C0020540E00208D
:1056E000BD0C0020BC0C0020054B064A1A60064A7F
:1056F000064B1360064A1360064B00221A7070476F
:10570000440D0020480D0020B80C0020BD0C0020E6
:10571000400D0020BC0C0020F8B5124E124C306831
:10572000124DA047642802D100202860F8BD3068DF
:10573000A0472B68952B13D90D4F0E490E4BC0F186
:10574000640084B222463846984730680B490C4BB7
:105750000022984700232B600A4B1F602046F8BDAB
:105760000020F8BDB0160020C3304000540E0020C9
:10577000BD0C00204417002041C2400094130020BB
:10578000A1304000B80C0020024A136813F8010B46
:1057900013607047B80C002038B50A46064B074D19
:1057A000074C0146054898472846A0470028FBD0EB
:1057B000044B00221A7038BD517E40000040044066
:1057C0001F814000D60D002010B502460023141A98
:1057D000A14202DCD84380B210BD12F8014B234431
:1057E0009BB2F4E770B57323857803706D23294667
:1057F0004370074B04469847AE1C60552544000A89
:10580000687006F07F012046024BBDE870401847E3
:10581000C957400099534000F8B51D4B98471D4BA0
:1058200004461A7828B1904205D018700124204609
:10583000F8BD002AFBD01C78174E184F002504F045
:105840007F041D70A54219DB3378732B1AD173784E
:105850006D2B17D1B578AB1C9C4216D1042C14DDEE
:105860000F4B0D482946984773195A78735D43EAE0
:105870000223834218BF6FF00204D8E7B84770557F
:105880000135DFE74FF0FF34D1E76FF00104CEE7D9
:1058900019534000C90D00202916002089534000EB
:1058A000C9574000044A00231360044A1370044B94
:1058B000FF221A70704700BFCC0D0020D60D0020CB
:1058C0002C00002070B5154C002301398B4220DBE1
:1058D000A5781248732323706D2363702946104BFB
:1058E0009847104B6055A91C19600F4B04221A7081
:1058F0000E4B02221A700E4A002313702C440D4ADC
:10590000000A6070136089B204480B4BBDE8704018
:105910001847C25CE2540133D8E700BFB416002038
:10592000C9574000D00D0020CA0D0020D60D002020
:10593000D40D0020CC0D002099574000F8B51E4B27
:1059400098471E4B1A7828B1904206D0187001244F
:105950002046F8BD0AB90024FAE71C78184D194F03
:10596000002604F07F041E70A6421ADB2B78732BEE
:105970001BD16B786D2B18D1EB78012BEBD1AE7866
:10598000A31E9E4214D1104B0D4831469847AB19C7
:105990005A78AB5D43EA0223984218BF6FF00204C5
:1059A000D6E7B847A8550136DEE74FF0FF34CFE71A
:1059B0006FF00104CCE700BF19574000D50D00205F
:1059C000B416002089574000C957400010B504485C
:1059D000044B98470448054BBDE81040184700BFEA
:1059E000550D4100DD544000410C4100C1534000C1
:1059F00010B50448044B98470448054BBDE81040D7
:105A0000184700BF550D4100DD544000960C410081
:105A1000C15340002DE9F041154E164FDFF8648068
:105A2000B0470024C5B2AC4214DBDFF85C80124FF3
:105A3000124C4046B8472046114B9847B047C5B274
:105A4000002DF6D00B4E0F4F0024AC4207DB28464A
:105A5000BDE8F081B847013488F80000E3E7B047BB
:105A60003E2C385501D00134EFE72546EFE700BF63
:105A7000195340008953400061334000A32C0800B3
:105A8000010000204011002050140E4000B50023FA
:105A900091B010F8012B0DF8032001333E2B02D0FA
:105AA0000278002AF5D110AA13446E294FF00002A3
:105AB00003F8402C68460CBF024B034B984711B0CB
:105AC0005DF804FBDD544000C153400070B5194E31
:105AD000194D1A4C3046A8473046A8476E21184841
